:100000000C9499010C94CA010C94CA010C94CA0175
:100010000C94CA010C94CA010C94CA010C94CA0134
:100020000C94CA010C9438160C9460160C94881623
:100030000C94CA010C94CA010C94CA010C94CA0114
:100040000C94CA010C94CA010C94CA010C94CA0104
:100050000C94CA010C94CA010C94CA010C940E1F92
:100060000C94CA010C94DA1A0C94A61B0C94CA01C5
:100070000C94CA010C94CA010C94CA010C94CA01D4
:100080000C94CA010C94CA010C94CA010C94CA01C4
:100090000C940D1B0C94E51B0C94CA010C94CA0122
:1000A0000C94CA010C94CA010C94CA010C94CA01A4
:1000B0000C94CA010C94CA010C94CA010C94CA0194
:1000C0000C94CA010C94CA010C94CA010C94401BF4
:1000D0000C94241C0C94CA010C94731B0C94631C88
:1000E0000C94CA014D2050204320472087205420E3
:1000F00058205E20622066206C20702074208720AB
:100100007A207E2082200C946C200C944D200C943C
:1001100052080C94BE0A0C94DD0A0C9462200C94D4
:1001200054200C9474200C9447200C9470200C9450
:10013000340A0C94F90B0C9499060C94371A0C940D
:10014000A1060C94CC010C9454060C94AC060C94AF
:10015000190A0C947E200C9450200C94200A0C94C4
:1001600087200C9481080C946C060C9482060C94E5
:10017000EF060C940E0A0C9426020C94CA060C94FA
:10018000810A0C94741D0C94DF130C94E21D0C94E2
:10019000600A0C94A4070C94531A0C94490B0C9409
:1001A000380A0C9462060C9482200C94D71D0C948F
:1001B00010080C9443200C944E0A0C945E200C946E
:1001C00016070C949B0B0C947E1A0C9476080C94D6
:1001D000750A0C947A200C9458200C947D0A0C9487
:1001E000950A0C94F60A0C94A21C0C9497080C9493
:1001F00046090C94731A0C9466200C9427140C94E2
:10020000EF130C94D5060C94F3060C94231A0C945B
:1002100029180C94300A0C946E150000090A020883
:100220000B0C0D0706030401000000000000000095
:1002300000000000000000000000000000000000BE
:1002400000000000000011100F000000000000007E
:10025000000000000000000000000000000000009E
:1002600001021020200808102040102040800201C8
:1002700002010804020101020408102040808040AD
:1002800020100804020180040201804020100804AC
:10029000020108040201010204081020408001024A
:1002A0000408102040800505050507050808080812
:1002B000020202020A0A08080404040401010101FE
:1002C00001010101030303030303030304070707F9
:1002D0000C0C0C0C0C0C0C0C02020202060606069E
:1002E000060606060B0B0B0B0B0B0B0B000022007C
:1002F000250028002B002E003100340002010000F0
:10030000050108010B0100002100240027002A003C
:100310002D003000330001010000040107010A0133
:10032000CC012602540676080E0AF90B2918A21CE5
:10033000D71D11241FBECFEFD1E2DEBFCDBF00E03D
:100340000CBF13E0A0E0B2E0ECEBF2E400E00BBF86
:1003500002C007900D92AC31B107D9F717E1ACE1BB
:10036000B3E001C01D92A636B107E1F711E0C9E97B
:10037000D1E000E006C021970109802FFE010E9414
:100380002A21C039D10780E00807A9F70E941C1A6A
:100390000C945C210C9400000F9300E020E040E0FE
:1003A00060E08CE193E00E94C01D0F910895FB0175
:1003B0004281538164817581FC014283538364834C
:1003C0007583178216820895CF93DF93DA01FB01BC
:1003D000EB0189918111FDCF20E030E080E090E0D9
:1003E0004AE051915523F9F08430910554F55E327D
:1003F00061F42F3F310509F024F5ED01C80FD91F35
:100400002A83019620E030E0ECCF429FB001439F69
:10041000700D1124252F332727FD309520533109E6
:10042000260F371FDECF2F3F310509F054F48430FB
:1004300091053CF4FD01E80FF91F228381E090E073
:1004400002C080E090E0DF91CF9108950F9300E02B
:1004500020E040E060E082E293E00E94C01D0F9146
:1004600008958F929F92AF92BF92CF92DF92EF92B8
:10047000FF920F931F93CF93DF9300D0CDB7DEB7DA
:100480007C016B010E94581FF70177836683870107
:10049000085F1F4FB7016A5F7F4F42E050E0C8011D
:1004A0000E94810A81E090E09A83898342E050E0D3
:1004B000BE016F5F7F4FC8010E94810A80E091E01A
:1004C0009A83898342E050E0BE016F5F7F4FC8018D
:1004D0000E94810A1A82198242E050E0BE016F5FD9
:1004E0007F4FC8010E94810A42E050E0BE016F5F69
:1004F0007F4FC8010E94810A42E050E0BE016F5F59
:100500007F4FC8010E94810A5601F501808188232E
:1005100029F1C6017C01FC0120810196211116C040
:10052000570147018C189D081814190494F48B8204
:1005300041E050E0BE016D5F7F4FC8010E94810A1B
:10054000A401B601C8010E94810A03C02E3211F72E
:10055000E7CF6701FFEFCF1ADF0AD7CF1B8241E059
:1005600050E0BE016D5F7F4FC8010E94810AE12CFF
:10057000FF24F394FA82E98242E050E0BE016F5F0B
:100580007F4FC8010E94810AFA82E98242E050E06E
:10059000BE016F5F7F4FC8010E94810A81E090E039
:1005A0000F900F900F90DF91CF911F910F91FF90BF
:1005B000EF90DF90CF90BF90AF909F908F90089575
:1005C0004F925F926F927F928F929F92AF92BF9263
:1005D000CF92DF92EF92FF920F931F93CF93DF930F
:1005E000CDB7DEB765970FB6F894DEBF0FBECDBFAF
:1005F0006C015B017A010E94581F2B013C018601AE
:10060000085F1F4F4501A12CB12CC8010E94F60ABA
:1006100018161906A4F00E94581FDC01CB0184199A
:100620009509A609B70988169906AA06BB06D0F04F
:1006300062E370E080E090E00E94891FE6CFF6015F
:100640004281538164817581818D928DA38DB48D9A
:10065000481759076A077B0741F4858D968DC59722
:1006600021F406C02FEF3FEFFCC02EEF3FEFF9C0A3
:10067000C8010E94340A0C970CF4F1C04CE050E021
:10068000BE016F5F7F4FC8010E94BE0A2B813C8173
:100690003227232732273A8B298BF601468157814F
:1006A00089819A814817590711F437FD06C0C8019E
:1006B0000E944E0A2CEF3FEFD4C02F703270232BD4
:1006C00031F0C8010E944E0A2BEF3FEFCAC0CF8025
:1006D000D884DC24CD24DC24C114D10431F4C80135
:1006E0000E944E0A2AEF3FEFBCC0A12CB12C8D8195
:1006F0009E81982789279827A816B90640F541E0DA
:1007000050E0BE01635F7F4FC8010E94BE0A8D8525
:10071000811113C08D858111F2CFC8010E94950A05
:10072000C8010E94950AC8010E94950AC8010E944A
:10073000950AFFEFAF1ABF0ADACF8D859FEF980FAA
:100740009D87882339F3C8010E94950AF6CFA12C12
:10075000B12C41E050E0BE016D5E7F4FC8010E94A8
:10076000BE0A8B89982F907C61F4882371F08B8965
:100770009FEF980F9B8B882341F0C8010E94950A38
:10078000F6CFC8010E94950A1B8A8B898111E1CF9F
:1007900042E050E0BE01615F7F4FC8010E94BE0A87
:1007A00042E050E0BE01635F7F4FC8010E94BE0A75
:1007B000C8010E94950AC8010E94950AC8010E94BA
:1007C000950AC8010E94950A42E050E0BE016F5EA2
:1007D0007F4FC8010E94BE0A8F859889811591407C
:1007E00001F52D853E85322723273227213031051B
:1007F000C1F489899A898115944031F0C8010E9419
:100800004E0A27EF3FEF2DC0B7016E5F7F4F44E0E8
:1008100050E0C8012C8B3D8B0E94BE0A2C893D897B
:1008200020C0812C912C89899A899827892798271B
:100830008816990638F4C8010E94950A8FEF881A25
:10084000980AF1CFEFEFAE1ABE0AAC14BD0409F05E
:1008500080CFC8010E944E0A26EF3FEF02C02DEF65
:100860003FEFC90165960FB6F894DEBF0FBECDBF4E
:10087000DF91CF911F910F91FF90EF90DF90CF907C
:10088000BF90AF909F908F907F906F905F904F90B0
:1008900008958F929F92AF92BF92CF92DF92EF9284
:1008A000FF920F931F93CF93DF9300D000D0CDB76B
:1008B000DEB77C014B015A010E94E4018C010097D4
:1008C00009F05DC0F7014281538164817581809197
:1008D000240390912503A0912603B0912703481784
:1008E00059076A077B0709F44DC00E94581F67012A
:1008F000F8E0CF0ED11C6F7077277C5FC6010E9495
:10090000490B813009F040C08AE193E09A838983E2
:10091000F70182819381A481B5818B839C83AD8310
:10092000BE8345E350E0BE016F5F7F4FC6010E946A
:10093000750A892B19F400E010E01DC0B401C7014D
:100940000E943102892BB9F3C6010E947D0A892BCE
:1009500091F383E0882E912CA50168E873E1C7012B
:100960000E94E0028C01F1E08F1A910821F08F3F84
:100970002FEF920789F3C6010E94600A05C001E0CB
:1009800010E002C00EEF1FEFC80126960FB6F894D4
:10099000DEBF0FBECDBFDF91CF911F910F91FF90B2
:1009A000EF90DF90CF90BF90AF909F908F90089581
:1009B00044E050E0BC0181E090E00C94680E44E01B
:1009C00050E0BC0185E090E00C94680E44E050E0FB
:1009D000BC018FE090E00C94680E8F929F92AF92D2
:1009E000BF92CF92DF92EF92FF920F931F93CF931C
:1009F000DF931F921F92CDB7DEB74C015A016901F8
:100A000082E593E069837A830E942A0E46E050E0F3
:100A100069817A8189E090E00E94680EC5010296A2
:100A20000E94E604C80102960E94D804C7010296FB
:100A30000E94DF04F60182819381A481B581F401D3
:100A400082839383A483B5830F900F90DF91CF911E
:100A50001F910F91FF90EF90DF90CF90BF90AF90DC
:100A60009F908F9008956F927F928F929F92AF92F6
:100A7000BF92CF92DF92EF92FF920F931F93CF938B
:100A8000DF93CDB7DEB76E970FB6F894DEBF0FBE1B
:100A9000CDBF6C015B017A014901380100E02FEF05
:100AA0004FEF6FEFCE0149960E94C01DEAE1F3E0DF
:100AB000FA83E9838B8D9C8DAD8DBE8D8B839C835A
:100AC000AD83BE83F887EF83D30112964D915D917C
:100AD0006D917C91159749875A876B877C87FE8734
:100AE000ED87D40112964D915D916D917C91159792
:100AF0004F87588B698B7A8BFC8BEB8BF70182814C
:100B00009381A481B5818D8B9E8BAF8BB88FCE01E5
:100B100001967C018E01095F1F4F9E01235F3F4FAD
:100B2000AE014D5E5F4FB501C6010E94ED046E96A9
:100B30000FB6F894DEBF0FBECDBFDF91CF911F91EE
:100B40000F91FF90EF90DF90CF90BF90AF909F906C
:100B50008F907F906F900895CF92DF92EF92FF92E7
:100B60000F931F93CF93DF93CDB7DEB768970FB680
:100B7000F894DEBF0FBECDBFF901DA0112960D91D8
:100B80001D912D913C9115970D8B1E8B2F8B388FBE
:100B90004AE153E05A834983A1E0A88FCD88DE88DB
:100BA000EF88F88CCB82DC82ED82FE8258874F83FF
:100BB000C280D380E480F580C986DA86EB86FC8625
:100BC0005E874D870F87188B298B3A8B8E010F5FBD
:100BD0001F4F9E01295F3F4FAE01435F5F4F0E9451
:100BE000330568960FB6F894DEBF0FBECDBFDF9118
:100BF000CF911F910F91FF90EF90DF90CF900895CC
:100C0000CF92DF92EF92FF92CF93DF93CDB7DEB713
:100C100062970FB6F894DEBF0FBECDBFFB01DA01BD
:100C200012964D915D916D917C9115974F87588BE0
:100C3000698B7A8B2AE133E03A832983A1E0AA8B7E
:100C4000CF84D888E988FA88CB82DC82ED82FE8264
:100C500038872F8349875A876B877C879E012F5F50
:100C60003F4FAE01495F5F4FBF010E94AC056296E6
:100C70000FB6F894DEBF0FBECDBFDF91CF91FF90CE
:100C8000EF90DF90CF9008952AE133E0FC013183AB
:100C90002083FB014281538164817581FC01428381
:100CA00053836483758308950F9300E020E040E050
:100CB00060E088E393E00E94C01D88E293E00F911A
:100CC0000C94B61DDC01ED91FC91008CF18DE02DB2
:100CD000199591E089270895CF93DF931F92CDB79F
:100CE000DEB76983DC01ED91FC910280F381E02D98
:100CF00041E050E0BE016F5F7F4F19950F90DF918B
:100D0000CF910895CF93DF93EC01E881F9810480BE
:100D1000F581E02DCE011995892B41F0E881F9810B
:100D20000680F781E02DCE011995EFCFDF91CF91AD
:100D3000089521E0FC018485843009F420E0822FAD
:100D40000895FC019485FB018485981303C081E01C
:100D5000943009F480E008950F931F93CF93DF93AD
:100D60008C01D42FC52FFC018485843041F481E0AF
:100D700090E0F8019383828380E090E006C00E94B7
:100D8000E20C892BA1F38D2F9C2FDF91CF911F9126
:100D90000F910895FC016485643021F082E593E0B1
:100DA0000C94030F80E090E00895CF93DF931F929F
:100DB000CDB7DEB741E050E0BE016F5F7F4FFC0171
:100DC00084850E94340D181619061CF4898190E060
:100DD00002C08FEF9FEF0F90DF91CF910895FC013C
:100DE00084850C94340D0F931F93CF93DF931F9240
:100DF000CDB7DEB78C01DC01ED91FC910480F5816B
:100E0000E02D1995892B51F0BE016F5F7F4FF801DE
:100E100084850E947A0D898190E002C08FEF9FEF58
:100E20000F90DF91CF911F910F910895CF92DF9294
:100E3000EF92FF920F931F93CF93DF93CDB7DEB75F
:100E4000AF970FB6F894DEBF0FBECDBF8C016B011C
:100E50007A01CE0101960E94B61DCE0109960E942C
:100E6000860BCE018A960E94B61D68E273E0CE0121
:100E700084960E944406BE016C5D7F4FCE010196B0
:100E80000E94D701AE01465D5F4FB601CE010196CB
:100E90000E94490481309105C1F4D801ED91FC9183
:100EA0000484F585E02D8AE193E09DA38CA38CA5B5
:100EB0009DA5AEA5BFA58EA39FA3A8A7B9A7A7016F
:100EC000BE016C5D7F4FC8011995AF960FB6F894BF
:100ED000DEBF0FBECDBFDF91CF911F910F91FF906D
:100EE000EF90DF90CF900895FC011382128288EE7C
:100EF00093E0A0E0B0E084839583A683B78385E286
:100F000092E09183808384E084870895FC011382BA
:100F1000128288EE93E0A0E0B0E084839583A683FC
:100F2000B78385E292E09183808364870895FC0112
:100F30008485843039F090E0982F88278D5F9B4F0F
:100F40000C94970E80E00895AF92BF92CF92DF92FB
:100F5000EF92FF920F931F93CF93DF93FC012485B1
:100F6000243009F03EC06A018B01EC0183E0A82E19
:100F700084E0B82EE12CF12CC5010E94970E81115E
:100F800002C0EC860BC08B7F8831D9F3FFEFEF1ADC
:100F9000FF0AB394E4E0EE16F10471F78C85843017
:100FA00001F120910002309101022F5F3F4F11F4B7
:100FB00020E034E0309301022093000240910002CF
:100FC0005091010220E061E00E94580CB8016E5F70
:100FD0007F4FA6018C850E94A40C811105C084E07E
:100FE0008C8780E090E011C0CE010E949707873186
:100FF00051F061E070E080E090E00E94891FCE0136
:101000000E949707EACF81E090E0DF91CF911F9196
:101010000F91FF90EF90DF90CF90BF90AF90089529
:10102000CF92DF92EF92FF92CF93DF93EC018C850A
:10103000843089F10E94DB0C0E94581F6B017C01F7
:10104000CE010E9497078823A1F00E94581FDC015F
:10105000CB018C199D09AE09BF09883E9340A105BB
:10106000B10538F461E070E080E090E00E94891FF3
:10107000E7CFCE010E949707882319F08C850E9444
:101080004A0CEC85F0E0EE0FFF1FE05DFC4F118293
:10109000108284E08C87DF91CF91FF90EF90DF90FA
:1010A000CF900895CF93DF93FC0124852430D1F0B5
:1010B000EC010E949707843181F0882371F0883118
:1010C00061F08C3161F4E881F9810480F581E02DD3
:1010D000CE01199521E0892B19F420E001C021E00F
:1010E000822F01C080E0DF91CF9108950F9300E03F
:1010F00020E040E060E08EE393E00E94C01D0F918D
:101100000895CF93DF931F92CDB7DEB76983DC01DB
:10111000ED91FC910280F381E02D41E050E0BE01B1
:101120006F5F7F4F19950F90DF91CF910895EF92E8
:10113000FF920F931F93CF93DF93CDB7DEB72D9719
:101140000FB6F894DEBF0FBECDBF7C0100E010E00B
:10115000602FCE0101960E948607CE0101960E9463
:101160009707811116C0F7014481558120E061E0A5
:10117000802F0E94580C802F0E94900CF7018481D0
:101180009581000F111FF801E05DFC4F9183808372
:1011900005C00F5F1F4F04301105D1F62D960FB615
:1011A000F894DEBF0FBECDBFDF91CF911F910F919D
:1011B000FF90EF900895FC011382128285E492E083
:1011C00091838083758364830895AF92BF92CF9299
:1011D000DF92EF92FF921F93CF93DF93CDB7DEB7ED
:1011E0002D970FB6F894DEBF0FBECDBF7C0190E304
:1011F000A92E93E0B92E10E0C12CD12C612FCE0185
:1012000001960E948607D5012D913D915D01F70160
:101210008481958128173907B1F4CE0101960E9487
:101220009707843169F0CE0101960E9497078C31AF
:1012300051F4CE0101960E94CA06892B91F003C099
:10124000CC24C394D12C1F5F1430C1F6CD2871F487
:10125000D701ED91FC910480F581E02DC70119952E
:1012600005C0CE0101960E941008EDCF2D960FB655
:10127000F894DEBF0FBECDBFDF91CF911F91FF90DD
:10128000EF90DF90CF90BF90AF9008956F927F92D4
:101290008F929F92AF92BF92CF92DF92EF92FF9286
:1012A0001F93CF93DF93CDB7DEB72D970FB6F8948A
:1012B000DEBF0FBECDBF5C014B013A010E94E508C5
:1012C00080E3C82E83E0D82E10E0E12CF12C612FB2
:1012D000CE0101960E948607F601219131916F019E
:1012E000F501848195812817390731F4CE010196E3
:1012F0000E9497078731C1F01F5F143041F7C70183
:101300002D960FB6F894DEBF0FBECDBFDF91CF9103
:101310001F91FF90EF90DF90CF90BF90AF909F9084
:101320008F907F906F900895A301B401CE01019634
:101330000E94AC06E80EF91EDFCFAF92BF92CF92AB
:10134000DF92FF920F931F93CF93DF93CDB7DEB75A
:101350002D970FB6F894DEBF0FBECDBF8C015B0199
:10136000CB010E94E50880E3C82E83E0D82EF12C43
:101370006F2DCE0101960E948607F60121913191D1
:101380006F01F501848195812817390761F4CE0139
:1013900001960E949707873179F0CE0101960E944D
:1013A00097078C3149F0F394F4E0FF12E1CF64E049
:1013B000C8010E94860721C0CE0101960E94CA067C
:1013C000892B89F38B819C81F801938382838D81A2
:1013D0009E81AF81B88584839583A683B7838985F1
:1013E0009A85AB85BC8580879187A287B38785E284
:1013F00092E0918380838D858487C8012D960FB6F6
:10140000F894DEBF0FBECDBFDF91CF911F910F913A
:10141000FF90DF90CF90BF90AF9008950F9300E0C2
:1014200020E040E060E084E493E00E94C01D0F9162
:101430000895DC01ED91FC91008CF18DE02D199463
:101440002AE133E0FC0131832083FB014189528989
:1014500063897489FC01428353836483758308958F
:10146000FC01858996890895FC01818D928D0895EE
:10147000CF93DF931F92CDB7DEB76983DC01ED9187
:10148000FC910280F381E02D41E050E0BE016F5FEE
:101490007F4F19950F90DF91CF910895CF93DF93F0
:1014A000EC01898D9A8D892B41F0E881F9810680C4
:1014B000F781E02DCE011995F4CFDF91CF910895FA
:1014C000CF93DF93EC018C85843061F00E944A0C4D
:1014D000EC85F0E0EE0FFF1FE05DFC4F1182108203
:1014E00084E08C87DF91CF910895FC01108E178ADC
:1014F0006E5F7F4F84850C94B60DFC0184850C943F
:10150000DB0DCF93DF93EC019A018F89988DAB01AE
:10151000BC018C850E94880D2F89388D280F391FBA
:10152000388F2F8BDF91CF9108950F931F93CF9317
:10153000DF931F92CDB7DEB7FC01218D328D232BB7
:1015400061F08C0141E050E0BE016F5F7F4F848508
:101550000E94340D181619061CF08FEF9FEF08C07B
:10156000F801818D928D0197928F818F898190E012
:101570000F90DF91CF911F910F910895CF93DF933B
:10158000FC01218D328D2115310519F48FEF9FEF6C
:1015900011C0EC014217530708F0A9018C850E9485
:1015A000340D1816190694F7298D3A8D281B390B1E
:1015B0003A8F298FDF91CF910895CF93DF931F92B8
:1015C000CDB7DEB7FC01218D328D232B49F0BE0152
:1015D0006F5F7F4F84850E947A0D898190E002C001
:1015E0008FEF9FEF0F90DF91CF9108950F931F938F
:1015F000CF93DF93CDB7DEB728970FB6F894DEBF51
:101600000FBECDBF8C01DC01ED91FC910284F3850E
:10161000E02D1995F801648582E593E00E94030F9F
:10162000892B51F148E050E0BE016F5F7F4FD80138
:101630001C968C910E94340D9C0118161906D4F446
:10164000BE016F5F7F4FC8010F960E94CC1D8D8138
:1016500090E0982F88272E81820F911DF801968B9C
:10166000858B2F8130E0322F22278885280F311D6E
:10167000328F218FC90102C080E090E028960FB61A
:10168000F894DEBF0FBECDBFDF91CF911F910F91B8
:101690000895CF92DF92EF92FF920F931F93CF9313
:1016A000DF93FC012485243011F080E026C08B01FB
:1016B000EC0183E0C82E84E0D82EE12CF12CC60189
:1016C0000E94970E811102C0EC860AC08831E1F3B6
:1016D000FFEFEF1AFF0AD394E4E0EE16F10479F776
:1016E0008C85843011F31E870D871A8E198E20E0A9
:1016F000A80162E00E94580C81E0DF91CF911F9118
:101700000F91FF90EF90DF90CF900895FC0113822E
:10171000128288EE93E0A0E0B0E084839583A683F4
:10172000B7838FE492E09183808384E08487CF0144
:101730000F960C94B61DCF92DF92EF92FF920F930B
:101740001F93CF93DF93CDB7DEB7AF970FB6F89463
:10175000DEBF0FBECDBF8C016B017A01CE010196B9
:101760000E94B61DCE0109960E94860BCE018A9674
:101770000E94B61D68E273E0CE0184960E94440682
:10178000BE016C5D7F4FCE0101960E94D701AE0174
:10179000465D5F4FB601CE0101960E94490481303B
:1017A0009105C1F4D801ED91FC910088F189E02DFB
:1017B0008AE193E09DA38CA38CA59DA5AEA5BFA5B2
:1017C0008EA39FA3A8A7B9A7A701BE016C5D7F4FF9
:1017D000C8011995AF960FB6F894DEBF0FBECDBF06
:1017E000DF91CF911F910F91FF90EF90DF90CF90FD
:1017F00008950F9300E020E040E060E08AE493E089
:101800000E94C01D0F91089590E0982F882744E012
:1018100050E0845F9B4F0C94680E90E00496982FE4
:101820008827860F971F0C94970E62E070E00C9447
:101830000D0C9B0190E00496982F8827642F820F4F
:10184000931F0C94070ECF93DF93C82FD62F472FEB
:1018500064E070E00E94190C4D2F65E070E08C2F61
:10186000DF91CF910C94190C462F62E070E00C943C
:10187000190CCF93DF93C82FD62F472F60E170E06C
:101880000E94190C4D2F61E170E08C2FDF91CF91F8
:101890000C94190CCF93C82F40E150E0682F82E5DB
:1018A00093E00E9453106FEF8C2FCF910C94340C67
:1018B000FF920F931F93CF93DF939FEF960F953077
:1018C00040F5D22F8A01F62EC82F0E944A0C4F2DC8
:1018D0004D2B60E070E08C2F0E94190C0115110552
:1018E00011F0B8010AC060915003709151036F5F0D
:1018F0007F4F70935103609350038C2F0E94230CF1
:1019000041E050E06C2F82E593E00E94531081E0AB
:1019100001C080E0DF91CF911F910F91FF9008955A
:10192000CF93C82F63E070E00E940D0C833149F41F
:1019300042E050E06C2F82E593E00E94531081E07A
:1019400001C080E0CF9108950F931F93CF93FB01C7
:1019500090819F3F51F491819F3F91F492819F3FED
:1019600079F493819F3F61F420C0911109C0918166
:10197000911106C09281911103C093819923B1F016
:101980004115510591F08A01BF01C82F0E94040C36
:10199000B8018C2F0E94390C44E050E06C2F82E596
:1019A00093E00E94531091E001C090E0892FCF9105
:1019B0001F910F91089548E050E0682F82E593E071
:1019C0000C945310CF92DF92EF92FF920F931F93DC
:1019D000CF93C82F7B018A01413088E0580710F06F
:1019E00000E018E06C2F82E593E00E94CF0E6C01BE
:1019F00063E070E08C2F0E940D0C873111F08C3168
:101A000021F4C016D10670F302C000E010E0980186
:101A1000A7016C2F82E593E00E948F0F40E250E017
:101A20006C2F82E593E00E9453108C2F0E94150CBE
:101A300084FD0DC063E070E08C2F0E940D0C8111BD
:101A4000F4CF8C2F0E944A0C80E090E005C060E14A
:101A50008C2F0E94340CC801CF911F910F91FF90E1
:101A6000EF90DF90CF900895CF92DF92EF92FF92A8
:101A70000F931F93CF93DF93182F6B017A01682F79
:101A800082E593E00E94030FEC01009799F463E074
:101A900070E0812F0E940D0C843111F1882301F137
:101AA000C1E0D0E08C3111F4C0E0D0E0D195C19517
:101AB000D10916C0E816F9060CF4E7011C161D063C
:101AC0007CF400E09E01A601612F82E593E00E9474
:101AD000031040E450E0612F82E593E00E94531030
:101AE000CE01DF91CF911F910F91FF90EF90DF908A
:101AF000CF9008950F93AB0101E021E030E0682F13
:101B000082E593E00E94031081E090E00F91089538
:101B1000AF92BF92CF92DF92FF920F931F93CF931A
:101B2000DF93F82E6B015A01E901682F82E593E0FB
:101B30000E94CF0E8C179D0730F46F2D82E593E045
:101B40000E94CF0EEC018E019501A6016F2D82E55A
:101B500093E00E941F0FCE01DF91CF911F910F9153
:101B6000FF90DF90CF90BF90AF9008950F931F9399
:101B7000CF93FB019081911109C09181911106C011
:101B80009281911103C09381992379F041155105F8
:101B900061F08A01BF01C82F0E94040CB8018C2F8C
:101BA0000E94390C81E090E002C080E090E0CF918B
:101BB0001F910F910895CF93C82F40E250E0682FF6
:101BC00082E593E00E9453108C2F0E94150C84FD37
:101BD0000CC08C2F0E94150C83FFF6CF68E18C2F70
:101BE0000E94340C80E090E006C060E18C2F0E94DF
:101BF000340C81E090E0CF9108958EBD0DB407FEC6
:101C0000FDCF8EB508952C9808952C9A08951F93B2
:101C1000CF93DF931F921F92CDB7DEB7182F6A8341
:101C200099830E94030E80EF0E94FD0D9981892FF8
:101C30000E94FD0D812F0E94FD0D6A81862F0E945A
:101C4000FD0D0E94050E81E00F900F90DF91CF9166
:101C50001F910895CF93DF93EC016CE271E080E077
:101C600090E00E94891F0E949715249A60E880E006
:101C700090E00E94070E65E58BE190E00E94070E60
:101C800065E58AE190E00E94070E80E090E4998388
:101C9000888380E090E69987888780E098E49B833A
:101CA0008A8380E098E69B878A8780E090E59D8321
:101CB0008C8380E090E79D878C8780E098E59F8308
:101CC0008E8380E098E79F878E87DF91CF9108957C
:101CD000CF92DF92EF92FF920F931F93CF93DF93F8
:101CE000EC017A018B016C01C40ED51ECC15DD050B
:101CF000A1F00E94030E80EF0E94FD0D8D2F0E9427
:101D0000FD0D8C2F0E94FD0D2196F80181918F0110
:101D10000E94FD0D0E94050EE9CFC701DF91CF9112
:101D20001F910F91FF90EF90DF90CF9008951F9338
:101D3000CF93DF931F92CDB7DEB7182F99830E9400
:101D4000030E8FE00E94FD0D9981892F0E94FD0DE9
:101D5000812F0E94FD0D80E00E94FD0D89830E946D
:101D6000050E89810F90DF91CF911F9108951F93E8
:101D7000CF93DF93182F60E270E00E940D0CC82F04
:101D8000D0E061E270E0812F0E940D0CDC2FCC27A7
:101D90009E01282BC901DF91CF911F910895FF92D9
:101DA0000F931F93CF93DF93F62EC0E0D0E08F2DDB
:101DB0000E94B70E8C01009721F08F2D0E94B70E64
:101DC000EC01C017D10799F7CE01DF91CF911F9198
:101DD0000F91FF9008951F93CF93DF93182F66E222
:101DE00070E00E940D0CC82FD0E067E270E0812FF8
:101DF0000E940D0CDC2FCC279E01282BC901DF91FE
:101E0000CF911F910895FF920F931F93CF93DF936C
:101E1000F62EC0E0D0E08F2D0E94EB0E8C010097D3
:101E200021F08F2D0E94EB0EEC01C017D10799F71E
:101E3000CE01DF91CF911F910F91FF9008956F9286
:101E40007F928F929F92AF92BF92CF92DF92EF924A
:101E5000FF920F931F93CF93DF931F92CDB7DEB7FF
:101E6000882E962E6A01590164E270E0892D9983CB
:101E70000E940D0CE82EF12C65E270E0892D0E9485
:101E80000D0CFE2CEE24E82A37016C0C7D1CA301FE
:101E90005770E82C9981F92EE90CF11CE90CF11C22
:101EA000F70180819181840F951F9A01200F311FC6
:101EB0002130384098F060E078E06B01C41AD50A10
:101EC000A601B5010E94680EA8014C195D09B50173
:101ED0006C0D7D1DF7018081918102C0A801B501C3
:101EE0000E94680E060D171D412F64E270E0892DD7
:101EF0000E94190C402F65E270E0892D0F90DF9150
:101F0000CF911F910F91FF90EF90DF90CF90BF90F6
:101F1000AF909F908F907F906F900C94190C0F93BF
:101F20001F9389019A0140E050E00E941F0F1F910A
:101F30000F910895CF92DF92EF92FF920F931F932C
:101F4000CF93DF93EC017A018B016C01C40ED51E97
:101F5000CC15DD05A9F00E94030E8FE00E94FD0D57
:101F60008D2F0E94FD0D8C2F0E94FD0D219680E08B
:101F70000E94FD0DF80181938F010E94050EE8CFAC
:101F8000C701DF91CF911F910F91FF90EF90DF90EC
:101F9000CF900895CF92DF92EF92FF920F931F930D
:101FA000CF93DF93690157707C01E60EF11CE60EBA
:101FB000F11CF70180859185840F951F9A01200FF0
:101FC000311F2130384098F0E0E0F8E0EF01C41B09
:101FD000D50BAE01B6010E949A0FA8014C1B5D0BF8
:101FE000B6016C0F7D1FF7018085918502C0A801A5
:101FF000B601DF91CF911F910F91FF90EF90DF908D
:10200000CF900C949A0F8F929F92AF92BF92CF92E3
:10201000DF92EF92FF920F931F93CF93DF936C01A8
:10202000962E5A017901802E68E270E0892D0E9477
:102030000D0CC82FD0E069E270E0892D0E940D0CD4
:10204000DC2FCC27C82B87019501AE01692DC60175
:102050000E94CA0F81101AC0CE0DDF1D4D2F68E2FD
:1020600070E0892D0E94190C4C2F69E270E0892DD7
:10207000DF91CF911F910F91FF90EF90DF90CF9064
:10208000BF90AF909F908F900C94190CDF91CF91DF
:102090001F910F91FF90EF90DF90CF90BF90AF9086
:1020A0009F908F900895CF93C62F61E070E08C2FA2
:1020B0000E94190C61E070E08C2F0E940D0C8111C0
:1020C000F9CFCF910895FC01E15BFF4F71836083ED
:1020D0000895CF93DF93EC01C15BDF4F8881998135
:1020E000DC01ED91FC910190F081E02D1995888142
:1020F0009981DC01ED91FC910280F381E02DDF916B
:10210000CF911994EF92FF920F93CF93DF93FC013D
:1021100094E1978781E0808B918B828B7F018FE4A4
:10212000E80EF11CD7018D919C91EF012F96DC01F7
:10213000ED91FC910480F581E02D00E020E030E09D
:1021400044E0BE011995811112C0F701808191818F
:10215000DC01ED91FC910680F781E02D28EE33E063
:1021600040E4BE01199521E0181619060CF020E094
:10217000822FDF91CF910F91FF90EF900895CF9232
:10218000DF92EF92FF920F93CF93DF93EC016901FF
:102190007C018FE4E80EF11CD7018D919C91DC014C
:1021A000ED91FC910480F581E02D00E020E030E02D
:1021B000199587FD15C0F70180819181DC01ED91B2
:1021C000FC91BE01615F7F4F0680F781E02D960193
:1021D00040E41995181634F08E3F31F08EEF05C0AB
:1021E0008FEF03C081E001C080E0DF91CF910F91BC
:1021F000FF90EF90DF90CF900895EF92FF920F93B2
:102200001F93CF93DF93EB01142F26E82883815B84
:102210009F4F7C01DC018D919C91DC01ED91FC9143
:102220000480F581E02D00E020E030E041E01995E8
:10223000811122C0F70180819181DC01ED91FC9137
:102240000680F781E02D28EB3BE0412FBE01199578
:1022500018161906B4F401972881211110C040E026
:10226000242F30E02817390760F4FE01E20FF31F36
:10227000218120834F5FF4CF8FEF9FEF02C08BEF60
:102280009FEFDF91CF911F910F91FF90EF900895F5
:10229000EF92FF920F93CF93DF93EC014034E0F085
:1022A000232B09F055C0DC011F966A177B0709F440
:1022B0004FC08EE88F87FE01E15BFF4F80819181E7
:1022C000FC0120813181F901E480F580042F9B011C
:1022D00041E0BD01F70122C08FEF840F8F3F69F00D
:1022E000E82FFF27E7FDF095DB01AE0FBF1F9C91A4
:1022F000EC0FFD1F908B8150F1CF8EE88F87FE0190
:10230000E15BFF4F80819181DC01ED91FC914F5F9A
:102310000480F581E02DBE01615F7F4F1995811129
:1023200017C0FE01E15BFF4F80819181DC01ED91DF
:10233000FC910680F781E02D28EB3BE040E4BE01F4
:10234000615F7F4F199597FD03C081E09F859111D3
:1023500080E0DF91CF910F91FF90EF900895EF9281
:10236000FF920F93CF93DF93FC0182E58787608B09
:102370007F018FE4E80EF11CD7018D919C91EF0154
:102380002F96DC01ED91FC910480F581E02D00E0B9
:1023900020E030E042E0BE011995811113C0F70141
:1023A00080819181DC01ED91FC910680F781E02D27
:1023B00028EE33E040E4BE01DF91CF910F91FF9012
:1023C000EF90199480E090E0DF91CF910F91FF9012
:1023D000EF900895CF93DF93EC010E946910CE0136
:1023E000DF91CF910C948210FC01EF52FF4F71836B
:1023F000608308950F93FA01D90162307105B9F035
:1024000044F46115710569F061307105D9F48AE60B
:1024100014C06330710569F06430710599F482E687
:102420000CC080E9808311820E5F0C930BC08AE69A
:1024300001C085E6808381E802C0808382E88183D1
:1024400082E08C930F9108952F923F924F925F926A
:102450006F927F928F929F92AF92BF92CF92DF92B4
:10246000EF92FF920F931F93CF93DF93CDB7DEB719
:10247000C35CD1090FB6F894DEBF0FBECDBF7C019F
:102480009B01FE01EF57FF4F86E2DF011D928A9507
:10249000E9F78CE8808385E0818384E0828380E2B1
:1024A0008783D701AF52BF4F0D90BC91A02D1097DD
:1024B00031F08D919D91AC9184839583A68346E202
:1024C000BF01C7010E94BF10813009F05DC18FE0DC
:1024D000E3E0F2E0DE01A955BF4F01900D928A952D
:1024E000E1F75701B4EDAB0EB11CF501808181110C
:1024F00006C08FEFCB54DF4F8883C55BD0404701C8
:10250000F3ED8F0E911CD4011C92C12CD12CF7013C
:10251000EF5AFF4FC054DF4FF983E883C05CD040CF
:10252000C7018E5A9F4FCE53DF4F99838883C25C79
:10253000D040270195ED490E511C3701A3E56A0EE5
:10254000711C19E040E8BE016F5F7F4FC7010E9418
:10255000FD1097FF06C060E0C7010E94AF1181E047
:1025600014C18B812C810D81682F70E0762F662736
:10257000620F711D9A81903B09F45AC0963D09F48F
:102580009DC0943A09F0E5C0882319F0843069F1C0
:10259000ECC02C3041F000E09E0121543F4FAE01D1
:1025A0004F5F5F4F88C0023009F04EC08E81813E80
:1025B00009F04AC08F818350823008F045C000E0A6
:1025C0009E0121543F4FAE014F5F5F4F60E070E0CE
:1025D000C7010E94FA118F81833031F1843009F0F4
:1025E000C4C022E0C22ED12CC0C0E2E1F2E0DE0184
:1025F000AA54BF4F812F01900D928A95E1F749E0CF
:1026000050E0BE016C5F7F4FCE018A549F4F0E9405
:10261000462100E09E0121543F4FAE014F5F5F4FC6
:10262000892B09F09DC047C0CC24C394D12C9DC0F8
:10263000B1E0CB16D10491F0E2E0CE16D104D1F096
:10264000C114D10409F091C000E09E0121543F4F14
:10265000AE014F5F5F4F61E070E084C0613871058B
:1026600060F4202E312C87EA90E08C0F9D1F680FBC
:10267000791F13C06138710550F000E09E012154AC
:102680003F4FAE014F5F5F4F64E070E06BC0202EA4
:10269000312C6F5A7F4F6E0D7F1DA101CE01019627
:1026A0000E94532141E050E04C0F5D1F420D531D2D
:1026B0009E0121543F4F60E070E054C0D5018C91E1
:1026C000882309F446C06138710550F000E09E018E
:1026D00021543F4FAE014F5F5F4F63E070E042C057
:1026E000CB018F5A9F4F402F50E0BE016A5F7F4F52
:1026F0008E0D9F1D0E94532100E09E0121543F4FEB
:10270000AE014F5F5F4F60E070E0C7010E94FA11B9
:1027100081E0F4018083C054DF4FA881B981C05C9F
:10272000D0406C9170E0762F6627CE53DF4FE88162
:10273000F981C25CD0408081680F711D61157105FF
:10274000A1F0D201ED91FC91309779F0C301199578
:102750000CC000E09E0121543F4FAE014F5F5F4F20
:1027600062E070E0C7010E94FA1100E020E030E072
:10277000C154DF4F4881CF5BD040BE016F5F7F4FB8
:10278000C7010E944811DECE80E0CD53DF4F0FB667
:10279000F894DEBF0FBECDBFDF91CF911F910F9197
:1027A000FF90EF90DF90CF90BF90AF909F908F9071
:1027B0007F906F905F904F903F902F90089561E0D1
:1027C000FC0184810E9488200E94971580E00E946D
:1027D000B61580E00E94AD1585E00C94BB15CF9333
:1027E000DF93EC0160E08C810E94C42062E070E025
:1027F00080E090E00E94891F61E08C81DF91CF91A1
:102800000C94C42080E00C94FD0DFC0183E792E061
:1028100091838083158273836283448308951F9319
:10282000CF93DF93EC0160E08C810E94C42082E0B2
:102830000E94FD0D0E940214182F61E08C810E94FD
:10284000C420812F8170DF91CF911F910895BF9295
:10285000CF92DF92EF92FF920F931F93CF93DF936C
:102860007C01D62EB72EC42E8901C0E0D0E0C7016E
:102870000E940F14811110C061E070E080E090E0D0
:102880000E94891F21960115110589F30C171D0758
:1028900070F78EEF9FEF57C060E0F70184810E94D0
:1028A000C42061E070E080E090E00E94891F83E036
:1028B0000E94FD0D0E940214811115C00E94021495
:1028C000811111C00E9402148F3F69F40E9402140A
:1028D000C82F0E9402148C0F31F4F701D5810E9499
:1028E0000214853D49F0CDEFDFEF61E0F70184810F
:1028F0000E94C420CE0127C00E94021491E09D0FC7
:102900009813F1CFC250CC1638F40E9402140E94E2
:102910000214CCEFDFEFE9CFDA52CD2C0D2D1B2DB9
:10292000802F8C198C1738F40E940214F8018193BF
:102930008F01D80FF5CF0E9402148D0FA1F60E94CF
:102940000214D0E0D2CFDF91CF911F910F91FF9071
:10295000EF90DF90CF90BF9008958F929F92AF92AB
:10296000BF92CF92DF92EF92FF920F931F93CF937C
:10297000DF937C01162FB72EC42ED22E932E60E04B
:10298000FC0184810E94C42062E070E080E090E05D
:102990000E94891F81E00E94FD0D80E00E94FD0DD4
:1029A00080E00E94FD0D8FEF0E94FD0DC1E0C00F81
:1029B000CC0D8C2F0E94FD0D8C2F81950E94FD0D5A
:1029C00084ED0E94FD0D812EC12FDB2D14ED8C2F87
:1029D00088198C1540F45E0189910E94FD0DF50166
:1029E0008081180FF4CFCD2CCD2DD92D8C2F8C19A3
:1029F000801740F45E0189910E94FD0DF5018081F0
:102A0000180FF4CF812F81950E94FD0D80E00E9468
:102A1000FD0D61E0F7018481DF91CF911F910F914E
:102A2000FF90EF90DF90CF90BF90AF909F908F90EE
:102A30000C94C420BF92CF92DF92EF92FF920F933B
:102A40001F93CF93DF93CDB7DEB72C970FB6F894D3
:102A5000DEBF0FBECDBF6C0186E0EBE1F2E0DE0130
:102A6000179601900D928A95E1F760E0F601848156
:102A70000E94C42061E070E080E090E00E94891F25
:102A800083E00E94FD0D8E010F5F1F4F780186E0ED
:102A9000B82EB00E0E940214F70181937F01BE127E
:102AA000F9CF61E0F60184810E94C42046E050E045
:102AB000BE01695F7F4FC8010E9446212C960FB668
:102AC000F894DEBF0FBECDBFDF91CF911F910F9164
:102AD000FF90EF90DF90CF90BF9008950F931F93DA
:102AE000CF93DF93EC01FB0180818D83CE010E94A7
:102AF000AD141AE0CE010E940F1481110AC061E0EA
:102B000070E080E090E00E94891F115099F78EEFED
:102B100009C0CE010E941A1591E0811101C090E018
:102B2000892F8195DF91CF911F910F91089561E0D9
:102B300085E30E94C42061E085E30E9488208CB573
:102B400080618CBD8CB580648CBD61E084E30E94A3
:102B5000882061E083E30C948820811103C08CB548
:102B6000806202C08CB58F7D8CBD08959CB5937F2B
:102B7000892B8CBD08959CB5282F23709C7F922BA8
:102B80009CBD2DB582FB992790F9822F8E7F892BD2
:102B90008DBD089520E001972FEF8F3F9207D9F761
:102BA0000895EF92FF920F931F93CF93DF93EC0161
:102BB0008B8DEE85FF859D8581FF04C080819823E4
:102BC00029F446C08081982309F042C08B899C89F2
:102BD0000E94CA1588E0E82EF12C10E001E08D89F2
:102BE0009E890E94CA15EE85FF8590818D85892377
:102BF00011F0102B03C0802F80951823000F81E067
:102C0000E81AF10861F78F89988D0E94CA158B8D9B
:102C100081FD1095809164032091630390E00196FB
:102C20008F73992730E08217930779F0E09164035E
:102C3000F0E0EB59FC4F10838091640390E0019623
:102C40008F7399278093640303C08B8D81608B8F72
:102C5000DF91CF911F910F91FF90EF900895809198
:102C6000A5039091A603009711F00C94D115089537
:102C70001F920F920FB60F9211240BB60F922F9343
:102C80003F934F935F936F937F938F939F93AF93F4
:102C9000BF93EF93FF930E942F16FF91EF91BF9187
:102CA000AF919F918F917F916F915F914F913F91E4
:102CB0002F910F900BBE0F900FBE0F901F90189585
:102CC0001F920F920FB60F9211240BB60F922F93F3
:102CD0003F934F935F936F937F938F939F93AF93A4
:102CE000BF93EF93FF930E942F16FF91EF91BF9137
:102CF000AF919F918F917F916F915F914F913F9194
:102D00002F910F900BBE0F900FBE0F901F90189534
:102D10001F920F920FB60F9211240BB60F922F93A2
:102D20003F934F935F936F937F938F939F93AF9353
:102D3000BF93EF93FF930E942F16FF91EF91BF91E6
:102D4000AF919F918F917F916F915F914F913F9143
:102D50002F910F900BBE0F900FBE0F901F901895E4
:102D600061E08AE00E94C42080E00C94AD150F93CE
:102D70001F93CF93DF937695679557954795F90104
:102D8000DC01119600E010E09801041715072607F2
:102D90003707D9F1ED0121979881C0EDC90FCA30ED
:102DA00018F4808190E10FC08FE9890F863010F40C
:102DB000975507C08FEB890F863010F081E026C051
:102DC00097538081C0E19C9F800D112480839C914A
:102DD00080ED890F8A3018F4808180530DC08FE90F
:102DE000890F863018F48081875506C08FEB890FD4
:102DF000863020F780818753980F90830F5F1F4F95
:102E00002F4F3F4F31961296C0CF80E0DF91CF9188
:102E10001F910F910895893011F40C94B0168A30E7
:102E200039F461E089E00E94C42081E00C94AD1582
:102E300008950E94581FDC01CB01805F984DAF4F71
:102E4000BF4F8093861490938714A0938814B093F7
:102E500089140895CF93DF93CDB7DEB72D970FB6C2
:102E6000F894DEBF0FBECDBF67E974E1CE010196D5
:102E70000E949D098B819C8190938D1480938C146A
:102E80008D819E81AF81B88580938E1490938F142D
:102E9000A0939014B093911489859A85AB85BC85D5
:102EA0008093921490939314A0939414B0939514D8
:102EB0008D858093961462E070E080E090E00E943F
:102EC000891F8AE894E10E949906882369F261E0EB
:102ED00087E20E94C4200E9419172D960FB6F8941D
:102EE000DEBF0FBECDBFDF91CF910895CF92DF92AD
:102EF000EF92FF92C0908614D0908714E0908814CF
:102F0000F09089140E94581F21E0C616D706E806E3
:102F1000F90608F020E0822FFF90EF90DF90CF902D
:102F2000089580E40E94112021E0843F91400CF03C
:102F300020E0822F0895CF93DF93C0E0D0E081E4BA
:102F40000E941120FE01EE0FFF1FEA57FB4F9183F5
:102F500080832196C11568E0D60789F720E030E02C
:102F60004FEF53E080E090E0F901EE0FFF1FDF012B
:102F7000AA57BB4F6D917C9111978617970710F454
:102F80008D919C91EA57FB4F6081718164177507A1
:102F900010F4408151812F5F3F4F211568E03607C3
:102FA00019F79C01241B350B81E04091840450915A
:102FB00085044217530708F080E0DF91CF91089510
:102FC000CF93DF93C0E0D0E081E40E941120FE01A6
:102FD000EE0FFF1FEA57FB4F918380832196C115A7
:102FE00068E0D60789F720E030E04FEF53E080E05B
:102FF00090E0F901EE0FFF1FDF01AA57BB4F6D9163
:103000007C9111978617970710F48D919C91EA5740
:10301000FB4F608171816417750710F44081518105
:103020002F5F3F4F211568E0360719F7841B950B7A
:103030009C01220F331F820F931F9093850480936E
:103040008404DF91CF91089540FF0C94B71681E07E
:1030500008950F9300E020E040E060E089EA94E109
:103060000E94C01D00E128E048EA60EC83EA94E198
:103070000E94C01D65E87AE187E994E10E94DB08BF
:103080008AE894E10E94740749E062E673E08EE703
:1030900094E00E9405146EE774E087EA93E00E94D2
:1030A0006310109279041092780410927A0481E0EF
:1030B00080937B0410927D0410927C040F910895FC
:1030C000CF93DF9300D000D0CDB7DEB761E087E2C9
:1030D0000E94882061E089E00E94882061E08AE007
:1030E0000E94882060E080E40E94882061E089E0FE
:1030F0000E94C42061E08AE00E94C42060E087E270
:103100000E94C4200E94B01687EA93E00E94EA1150
:10311000EDE9F4E18EED80838DEA81838EEB82838D
:103120008FEE83838EEF84838DEE85838AE00E9409
:103130000B178AE193E09A8389838091A51490917B
:10314000A614A091A714B091A8148B839C83AD837F
:10315000BE83AE014F5F5F4F6DE974E188E293E09B
:103160000E94000687E994E10E9497080E94E017F8
:1031700026960FB6F894DEBF0FBECDBFDF91CF917C
:103180000895CF93DF931F92CDB7DEB78AE894E11D
:103190000E94CA06892B71F0198241E050E0BE01FD
:1031A0006F5F7F4F8AE894E10E94E81E892B11F03F
:1031B000898101C08FEF0F90DF91CF9108958AE848
:1031C00094E10E94D506019639F062E070E080E05B
:1031D00090E00E94891FF3CF8AE894E10E941008D2
:1031E00060E087E20C94C420BF92CF92DF92EF920E
:1031F000FF920F931F93CF93DF93CDB7DEB72A973C
:103200000FB6F894DEBF0FBECDBFEDB6FEB66BE7CE
:1032100072E08AE894E10E943C1E1A861F8218869A
:10322000198641E050E0BE01665F7F4F8AE894E175
:103230000E94EF06019709F0ABC046E050E0BE01E6
:103240006F5F7F4F8AE894E10E94E81E8C019E0127
:10325000295F3F4F46E050E060E070E0CE0101960C
:103260000E94B7160630110509F092C0811190C076
:103270002DB73EB7205831090FB6F8943EBF0FBEA8
:103280002DBF0DB71EB70F5F1F4F40E850E0B801CC
:103290008AE894E10E94E81E8138910514F080E8E4
:1032A00090E0AC0141505109662757FD6095762F9B
:1032B00028EF33E0C8010E942418811169C081E021
:1032C0009A85903309F080E080937B04BE01695FAA
:1032D0007F4F87EA93E00E94F4110E94B01668E8DD
:1032E00073E187EA93E00E94241281110CC068EE1A
:1032F00073E080E090E00E94891F8AE00E940B1733
:1033000061E972E041C068EE73E080E090E00E9405
:10331000891F8AE00E940B1780917A04882391F11B
:103320000091F80310E0102F00278091F903080F97
:10333000111D68EA72E08AE894E10E943C1EB12CFB
:103340008B2D90E080179107B8F4FC01E650FC4FFC
:103350006F018081803130F467EB72E08AE894E19C
:103360000E941F1E40E150E0F60160818AE894E16E
:103370000E94B11EB394E4CF69EB72E08AE894E155
:103380000E941F1E6BEB72E08AE894E10E943C1ED3
:103390000FB6F894FEBE0FBEEDBE0FB6F894FEBE9B
:1033A0000FBEEDBE2A960FB6F894DEBF0FBECDBF9E
:1033B000DF91CF911F910F91FF90EF90DF90CF9011
:1033C000BF900895813359F018F4803331F0089597
:1033D000823391F08333D1F008950C94F4180E9455
:1033E0009B17882319F062ED72E002C061EE72E073
:1033F0008AE894E10C943C1E0E949117882319F0EE
:1034000060EF72E0F5CF6BEF72E0F2CF0C94E01753
:103410000E942A178AE894E10E945208882319F032
:103420000E94761781110C94DF180E94C1188F3FFB
:10343000D1F30E94E219EECF0E94AF1F0E946018E4
:103440000E94081AFDCFFC0124853585F901E05C56
:10345000FF4F80819181329620813181805C9F4F26
:10346000821B930B60E470E00E94F4200895DC015D
:103470001C96ED91FC911D97DF01A05CBF4F2D9133
:103480003C91119712968D919C91119728173907AD
:1034900039F08D919C91E80FF91F808190E008959B
:1034A0008FEF9FEF0895FC01A485B585FD01E05CD9
:1034B000FF4F208131813296808191812817390711
:1034C00079F080819181A80FB91F8C912081318181
:1034D0002F5F3F4F2F7333273183208390E0089570
:1034E0008FEF9FEF0895FC0181A1882329F0A48923
:1034F000B5898C9186FFFBCF11A208950F931F937E
:10350000CF93DF93FC01A685B7858D01005C1F4F2B
:10351000E8018881998101968F739927AD014E5BEF
:103520005F4FEA012881398182179307D1F3E801BF
:1035300028813981A20FB31F6C93A685B785A05C43
:10354000BF4F11969C938E93A689B7892C9181E0E9
:1035500090E0078C02C0880F991F0A94E2F7822B33
:103560008C9381E081A30488F589E02D80818064BB
:10357000808381E090E0DF91CF911F910F910895BA
:10358000FB01E05CFF4F208131812F5F3F4F2F73A4
:103590003327DB01AE5BBF4F4D915C91241735079C
:1035A00041F040815181DB01A40FB51F8C93318321
:1035B000208308951F920F920FB60F9211240BB61D
:1035C0000F922F933F934F935F936F937F938F93BC
:1035D0009F93AF93BF93EF93FF938091C00082FDC1
:1035E00007C08091C60063E177E10E94C01A02C063
:1035F0008091C600FF91EF91BF91AF919F918F9104
:103600007F916F915F914F913F912F910F900BBEE2
:103610000F900FBE0F901F9018951F920F920FB62C
:103620000F9211240BB60F922F933F934F935F93FA
:103630006F937F938F939F93AF93BF93EF93FF937A
:103640008091C80082FD07C08091CE006BE876E1D2
:103650000E94C01A02C08091CE00FF91EF91BF91ED
:10366000AF919F918F917F916F915F914F913F911A
:103670002F910F900BBE0F900FBE0F901F901895BB
:103680001F920F920FB60F9211240BB60F922F9329
:103690003F934F935F936F937F938F939F93AF93DA
:1036A000BF93EF93FF938091D00082FD07C080917C
:1036B000D60063E076E10E94C01A02C08091D60075
:1036C000FF91EF91BF91AF919F918F917F916F91FA
:1036D0005F914F913F912F910F900BBE0F900FBEB6
:1036E0000F901F9018951F920F920FB60F921124F2
:1036F0000BB60F922F933F934F935F936F937F93EC
:103700008F939F93AF93BF93EF93FF93809130017B
:1037100082FD07C0809136016BE775E10E94C01AF7
:1037200002C080913601FF91EF91BF91AF919F91BF
:103730008F917F916F915F914F913F912F910F905A
:103740000BBE0F900FBE0F901F9018951F920F92F7
:103750000FB60F9211240BB60F922F933F938F93B6
:103760009F93EF93FF9320910F1730911017809143
:103770001117909112172817390731F48091C10061
:103780008F7D8093C10014C0E0911117F091121742
:10379000E153F94E208180911117909112170196F3
:1037A0008F73992790931217809311172093C60057
:1037B000FF91EF919F918F913F912F910F900BBEB1
:1037C0000F900FBE0F901F9018951F920F920FB67B
:1037D0000F9211240BB60F922F933F938F939F93C9
:1037E000EF93FF9320918716309188168091891668
:1037F00090918A162817390731F48091C9008F7D7E
:103800008093C90014C0E0918916F0918A16E95B93
:10381000F94E20818091891690918A1601968F73B6
:10382000992790938A16809389162093CE00FF9152
:10383000EF919F918F913F912F910F900BBE0F9021
:103840000FBE0F901F9018951F920F920FB60F92F8
:1038500011240BB60F922F933F938F939F93EF9367
:10386000FF932091FF1530910016809101169091E1
:1038700002162817390731F48091D1008F7D80938B
:10388000D10014C0E0910116F0910216E154FA4EF5
:103890002081809101169091021601968F739927CD
:1038A00090930216809301162093D600FF91EF911A
:1038B0009F918F913F912F910F900BBE0F900FBE54
:1038C0000F901F9018951F920F920FB60F92112410
:1038D0000BB60F922F933F938F939F93EF93FF938A
:1038E00020917715309178158091791590917A15FE
:1038F0002817390731F4809131018F7D8093310190
:1039000014C0E0917915F0917A15E95CFA4E2081A6
:103910008091791590917A1501968F7399279093DC
:103920007A158093791520933601FF91EF919F913D
:103930008F913F912F910F900BBE0F900FBE0F9064
:103940001F901895CF92DF92EF92FF92E5E1F5E19B
:103950001382128288EEC82E83E0D82EE12CF12C3F
:10396000C482D582E682F7826AE073E07183608365
:1039700083E197E1958784878FEC96E19787868727
:1039800085EC90E0918B808B84EC90E0938B828B24
:1039900080EC90E0958B848B81EC90E0978B868B0C
:1039A00082EC90E0918F808F86EC90E0938F828FF5
:1039B00044E0448F33E0358F27E0268F95E0978FE2
:1039C00081E080A3E3EFF4E113821282C482D58206
:1039D000E682F78271836083ABE8B6E1B587A4879E
:1039E000A7E4B6E1B787A687ADECB0E0B18BA08BBA
:1039F000ACECB0E0B38BA28BA8ECB0E0B58BA48BA1
:103A0000A9ECB0E0B78BA68BAAECB0E0B18FA08F89
:103A1000AEECB0E0B38FA28F448F358F268F978F97
:103A200080A3E1EDF4E113821282C482D582E682A2
:103A3000F78271836083A3E0B6E1B587A487AFEB1B
:103A4000B5E1B787A687A5EDB0E0B18BA08BA4ED5B
:103A5000B0E0B38BA28BA0EDB0E0B58BA48BA1ED51
:103A6000B0E0B78BA68BA2EDB0E0B18FA08FA6ED32
:103A7000B0E0B38FA28F448F358F268F978F80A3AE
:103A8000EFEAF4E113821282C482D582E682F782E1
:103A9000718360836BE775E17587648767E375E120
:103AA0007787668765E371E0718B608B64E371E013
:103AB000738B628B60E371E0758B648B61E371E003
:103AC000778B668B62E371E0718F608F66E371E0E4
:103AD000738F628F448F358F268F978F80A3FF90CF
:103AE000EF90DF90CF9008958F929F92AF92BF9208
:103AF000CF92DF92EF92FF920F931F93CF93DF93BA
:103B00007C018B016C0182E0C80ED11C4701E5E00D
:103B10008E0E911CC0E0D0E0F60161916F014AE089
:103B200050E0C8010E94B11E5C016EE2C8010E9413
:103B3000211E8A0D9B1DC80FD91FC814D90461F717
:103B40004AE050E0F7016581C8010E94B11E8C0F68
:103B50009D1FDF91CF911F910F91FF90EF90DF900C
:103B6000CF90BF90AF909F908F9008952AE133E05F
:103B7000FC013183208312821382148215820895FE
:103B80000F93FC018AE193E09183808362834383F6
:103B9000248305830F910895FB0140815181628147
:103BA0007381FC0142835383648375830895E7E541
:103BB000F7E18AE193E09183808312821382148279
:103BC00015820895CF92DF92EF92FF920F931F9389
:103BD000CF93DF936C01EB017B01E40EF51E00E057
:103BE00010E0CE15DF0561F06991D601ED91FC91F1
:103BF0000190F081E02DC6011995080F191FF1CF32
:103C0000C801DF91CF911F910F91FF90EF90DF904E
:103C1000CF9008956115710579F0FB0101900020A6
:103C2000E9F73197AF01461B570BDC01ED91FC9191
:103C30000280F381E02D199480E090E008950C94C7
:103C40000A1EDC01ED91FC910190F081E02D1994A8
:103C50000F931F93CF93DF93EC016DE00E94211E21
:103C60008C016AE0CE010E94211E800F911FDF911E
:103C7000CF911F910F9108950F931F93CF93DF93CF
:103C8000EC010E940A1E8C01CE010E94281E800FAA
:103C9000911FDF91CF911F910F9108958F929F9265
:103CA000AF92BF92CF92DF92EF92FF920F931F934A
:103CB000CF93DF93CDB7DEB7A1970FB6F894DEBFF1
:103CC0000FBECDBF6C01142FE52FCB01022F19A21F
:103CD000223008F40AE07E0121E2E20EF11C802E7F
:103CE000912CA12CB12C612F7E2FA50194010E9453
:103CF0000821029F1019112481E0E81AF1081A30F6
:103D000014F4105D01C0195CF7011083122FE32F2A
:103D1000CA01232B242B252B31F7B701C6010E94A2
:103D20000A1EA1960FB6F894DEBF0FBECDBFDF917D
:103D3000CF911F910F91FF90EF90DF90CF90BF90A8
:103D4000AF909F908F9008952115310541F4DC01CB
:103D5000ED91FC910190F081E02D642F19940C9469
:103D60004E1E9A01462F50E060E070E00C94A41EB5
:103D70000F931F93CF93DF93EC010E94581F688726
:103D800079878A879B87E881F9810680F781E02D12
:103D9000CE01199597FF17C00E94581F08851985F5
:103DA0002A853B85DC01CB01801B910BA20BB30B59
:103DB0000C811D812E813F8180179107A207B307D7
:103DC00010F38FEF9FEFDF91CF911F910F91089527
:103DD000CF92DF92EF92FF920F931F93CF93DF93D7
:103DE0006C017A018B01C0E0D0E0CE15DF0561F0F7
:103DF000C6010E94B81E97FF02C07E0105C0F801EF
:103E000081938F012196F1CFC701DF91CF911F914F
:103E10000F91FF90EF90DF90CF9008951F920F9237
:103E20000FB60F9211242F933F938F939F93AF93CD
:103E3000BF9380915E1790915F17A0916017B0912A
:103E4000611730915D1723E0230F2D3720F4019681
:103E5000A11DB11D05C026E8230F0296A11DB11DAD
:103E600020935D1780935E1790935F17A093601760
:103E7000B09361178091621790916317A0916417B6
:103E8000B09165170196A11DB11D809362179093A3
:103E90006317A0936417B0936517BF91AF919F917B
:103EA0008F913F912F910F900FBE0F901F901895FB
:103EB0002FB7F89460915E1770915F17809160172B
:103EC000909161172FBF08953FB7F89480916217C2
:103ED00090916317A0916417B091651726B5A89BC0
:103EE00005C02F3F19F00196A11DB11D3FBFBA2F8C
:103EF000A92F982F8827820F911DA11DB11DBC01EC
:103F0000CD0142E0660F771F881F991F4A95D1F7B0
:103F10000895CF92DF92EF92FF92CF93DF936B01E0
:103F20007C010E94641FEB01C114D104E104F1047F
:103F300079F00E94641F6C1B7D0B683E7340A0F3F8
:103F400081E0C81AD108E108F108C851DC4FECCF74
:103F5000DF91CF91FF90EF90DF90CF90089578940C
:103F600084B5826084BD84B5816084BD85B582607E
:103F700085BD85B5816085BDEEE6F0E0808181601C
:103F80008083E1E8F0E0108280818260808380811C
:103F900081608083E0E8F0E0808181608083E1EBF4
:103FA000F0E0808184608083E0EBF0E080818160DC
:103FB0008083E1E9F0E0808182608083808181609C
:103FC0008083E0E9F0E0808181608083E1EAF0E0D5
:103FD000808182608083808181608083E0EAF0E07C
:103FE000808181608083E1E2F1E080818260808372
:103FF000808181608083E0E2F1E080818160808364
:10400000EAE7F0E080818460808380818260808341
:104010008081816080838081806880831092C1006C
:104020000895863308F0865390917B00282F2870DE
:10403000977F922B90937B0087702091020290E4EF
:10404000299F90011124822B80937C0080917A001B
:10405000806480937A0080917A0086FDFCCF809105
:1040600078002091790090E0922B089590E0FC0177
:104070003197E131F10508F04AC08827EE58FF4F2B
:104080008F4F0C942A21809180008F7703C08091FC
:1040900080008F7D80938000089584B58F7702C063
:1040A00084B58F7D84BD08958091B0008F7703C063
:1040B0008091B0008F7D8093B00008958091900032
:1040C0008F7707C0809190008F7D03C08091900012
:1040D000877F8093900008958091A0008F7707C01C
:1040E0008091A0008F7D03C08091A000877F809386
:1040F000A0000895809120018F7707C08091200152
:104100008F7D03C080912001877F809320010895D7
:10411000CF93DF9390E0FC01E05AFD4F2491FC0126
:10412000EA55FD4F8491882361F190E0880F991F33
:10413000FC01EA5FFC4FC591D491FC01E451FD4FB5
:10414000A591B491611109C09FB7F8948881209519
:1041500082238883EC912E230BC0623061F49FB7D9
:10416000F8943881822F809583238883EC912E2BBD
:104170002C939FBF06C08FB7F894E8812E2B28831D
:104180008FBFDF91CF9108951F93CF93DF93282F97
:1041900030E0F901E65EFD4F8491F901E05AFD4FF0
:1041A000D491F901EA55FD4FC491CC23C9F0162FE3
:1041B00081110E943620EC2FF0E0EE0FFF1FE4513A
:1041C000FD4FA591B4918FB7F894111105C09C9142
:1041D000ED2FE095E92302C0EC91ED2BEC938FBF1E
:1041E000DF91CF911F91089597FB072E16F400944D
:1041F00007D077FD09D00E94322107FC05D03EF49C
:10420000909581959F4F0895709561957F4F089582
:10421000A1E21A2EAA1BBB1BFD010DC0AA1FBB1FCA
:10422000EE1FFF1FA217B307E407F50720F0A21B3C
:10423000B30BE40BF50B661F771F881F991F1A94A9
:1042400069F760957095809590959B01AC01BD01D3
:10425000CF010895EE0FFF1F881F8BBF0790F691C7
:10426000E02D1994AA1BBB1B51E107C0AA1FBB1F5D
:10427000A617B70710F0A61BB70B881F991F5A95F2
:10428000A9F780959095BC01CD010895FB01DC0153
:1042900004C08D910190801921F441505040C8F71D
:1042A000881B990B0895FB01DC0102C001900D925F
:0C42B00041505040D8F70895F894FFCF1B
:1042BC00000401000F20005400FF0406E1040080FC
:1042CC0000000007D27600008501010000FF00FF0E
:1042DC0000000000006C06AC06CA06D506F3068288
:1042EC0006A4071607EF06100852089906A10662E5
:1042FC0006000000008108460997080000000038FD
:10430C000A810A340A950ADD0A4E0A490B600A75BD
:10431C000A9B0B7D0AF60ABE0A190A200A300A000B
:10432C00000000DF13EF136E152714535441525441
:10433C0045445F4E46435F454D554C4154494F4EA5
:10434C000054494D45444F55545F4E46435F454DCF
:10435C00554C4154494F4E004E4445465F4D4F44D9
:10436C0049464945443A0030000A0046494E4953F3
:10437C004845445F4E46435F454D554C4154494F6B
:10438C004E0031564942524154494F4E5F454E44BE
:10439C000030564942524154494F4E5F454E4400FD
:1043AC00314C494748545F454E4400304C494748CE
:1043BC00545F454E4400000000007E1AE21D231A93
:0C43CC00531A371A731A00000000741D09
:00000001FF
