:100000000C9499010C94CA010C94CA010C94CA0175
:100010000C94CA010C94CA010C94CA010C94CA0134
:100020000C94CA010C944A160C9472160C949A16ED
:100030000C94CA010C94CA010C94CA010C94CA0114
:100040000C94CA010C94CA010C94CA010C94CA0104
:100050000C94CA010C94CA010C94CA010C94082295
:100060000C94CA010C94851C0C94511D0C94CA016B
:100070000C94CA010C94CA010C94CA010C94CA01D4
:100080000C94CA010C94CA010C94CA010C94CA01C4
:100090000C94B81C0C94901D0C94CA010C94CA01C9
:1000A0000C94CA010C94CA010C94CA010C94CA01A4
:1000B0000C94CA010C94CA010C94CA010C94CA0194
:1000C0000C94CA010C94CA010C94CA010C94EB1C48
:1000D0000C94CF1D0C94CA010C941E1D0C940E1E82
:1000E0000C94CA0147234A233D23412381234E23F5
:1000F000522358235C23602366236A236E238123C3
:10010000742378237C230C9447230C9458230C9459
:1001100064080C94D00A0C94EF0A0C94460A0C94D0
:100120000B0C0C94D71E0C94AB060C9460230C940F
:10013000FE1B0C9417200C94B3060C94CC010C9469
:1001400066060C94BE060C942B0A0C94320A0C948E
:100150006A230C9493080C94A91F0C947E060C94AB
:1001600094060C9401070C94200A0C9426020C941B
:10017000DC060C94930A0C9466230C94CE1B0C940E
:10018000F1130C946E230C94720A0C94B6070C9421
:100190001E1C0C945B0B0C944A0A0C9474060C9471
:1001A00022080C94600A0C9428070C947C230C946D
:1001B00081230C940C200C94AD0B0C9441230C94D3
:1001C00088080C94870A0C948F0A0C94A70A0C9444
:1001D00052230C94080B0C94A9080C9458090C9405
:1001E000291C0C944A230C9439140C9474230C94F9
:1001F00001140C945C230C94E7060C9405070C94F2
:10020000E21B0C944E230C9400190C94420A0C949B
:100210003D230C9480150C9478230000090A0208F1
:100220000B0C0D0706030401000000000000000095
:1002300000000000000000000000000000000000BE
:1002400000000000000011100F000000000000007E
:10025000000000000000000000000000000000009E
:1002600001021020200808102040102040800201C8
:1002700002010804020101020408102040808040AD
:1002800020100804020180040201804020100804AC
:10029000020108040201010204081020408001024A
:1002A0000408102040800505050507050808080812
:1002B000020202020A0A08080404040401010101FE
:1002C00001010101030303030303030304070707F9
:1002D0000C0C0C0C0C0C0C0C02020202060606069E
:1002E000060606060B0B0B0B0B0B0B0B000022007C
:1002F000250028002B002E003100340002010000F0
:10030000050108010B0100002100240027002A003C
:100310002D003000330001010000040107010A0133
:10032000CC01260266068808200A0B0C0019D71E8D
:100330000C2011241FBECFEFD1E2DEBFCDBF00E005
:100340000CBF15E0A0E0B2E0E0EBF8E400E00BBF8A
:1003500002C007900D92AC3EB107D9F71AE1ACEE9E
:10036000B5E001C01D92A633B107E1F711E0C9E97C
:10037000D1E000E006C021970109802FFE010E9414
:100380002424C039D10780E00807A9F70E94C71BC1
:100390000C9456240C9400000F9300E020E040E001
:1003A00060E08CEE95E00E94F51F0F910895FB012F
:1003B0004281538164817581FC014283538364834C
:1003C0007583178216820895CF93DF93DA01FB01BC
:1003D000EB0189918111FDCF20E030E080E090E0D9
:1003E0004AE051915523F9F08430910554F55E327D
:1003F00061F42F3F310509F024F5ED01C80FD91F35
:100400002A83019620E030E0ECCF429FB001439F69
:10041000700D1124252F332727FD309520533109E6
:10042000260F371FDECF2F3F310509F054F48430FB
:1004300091053CF4FD01E80FF91F228381E090E073
:1004400002C080E090E0DF91CF9108950F9300E02B
:1004500020E040E060E082EF95E00E94F51F0F9100
:1004600008958F929F92AF92BF92CF92DF92EF92B8
:10047000FF920F931F93CF93DF9300D0CDB7DEB7DA
:100480007C016B010E945222F7017783668387010A
:10049000085F1F4FB7016A5F7F4F42E050E0C8011D
:1004A0000E94930A81E090E09A83898342E050E0C1
:1004B000BE016F5F7F4FC8010E94930A80E091E008
:1004C0009A83898342E050E0BE016F5F7F4FC8018D
:1004D0000E94930A1A82198242E050E0BE016F5FC7
:1004E0007F4FC8010E94930A42E050E0BE016F5F57
:1004F0007F4FC8010E94930A42E050E0BE016F5F47
:100500007F4FC8010E94930A5601F501808188231C
:1005100029F1C6017C01FC0120810196211116C040
:10052000570147018C189D081814190494F48B8204
:1005300041E050E0BE016D5F7F4FC8010E94930A09
:10054000A401B601C8010E94930A03C02E3211F71C
:10055000E7CF6701FFEFCF1ADF0AD7CF1B8241E059
:1005600050E0BE016D5F7F4FC8010E94930AE12CED
:10057000FF24F394FA82E98242E050E0BE016F5F0B
:100580007F4FC8010E94930AFA82E98242E050E05C
:10059000BE016F5F7F4FC8010E94930A81E090E027
:1005A0000F900F900F90DF91CF911F910F91FF90BF
:1005B000EF90DF90CF90BF90AF909F908F90089575
:1005C0004F925F926F927F928F929F92AF92BF9263
:1005D000CF92DF92EF92FF920F931F93CF93DF930F
:1005E000CDB7DEB765970FB6F894DEBF0FBECDBFAF
:1005F0006C015B017A010E9452222B013C018601B1
:10060000085F1F4F4501A12CB12CC8010E94080BA7
:1006100018161906A4F00E945222DC01CB0184199D
:100620009509A609B70988169906AA06BB06D0F04F
:1006300062E370E080E090E00E948322E6CFF60162
:100640004281538164817581818D928DA38DB48D9A
:10065000481759076A077B0741F4858D968DC59722
:1006600021F406C02FEF3FEFFCC02EEF3FEFF9C0A3
:10067000C8010E94460A0C970CF4F1C04CE050E00F
:10068000BE016F5F7F4FC8010E94D00A2B813C8161
:100690003227232732273A8B298BF601468157814F
:1006A00089819A814817590711F437FD06C0C8019E
:1006B0000E94600A2CEF3FEFD4C02F703270232BC2
:1006C00031F0C8010E94600A2BEF3FEFCAC0CF8013
:1006D000D884DC24CD24DC24C114D10431F4C80135
:1006E0000E94600A2AEF3FEFBCC0A12CB12C8D8183
:1006F0009E81982789279827A816B90640F541E0DA
:1007000050E0BE01635F7F4FC8010E94D00A8D8513
:10071000811113C08D858111F2CFC8010E94A70AF3
:10072000C8010E94A70AC8010E94A70AC8010E9426
:10073000A70AFFEFAF1ABF0ADACF8D859FEF980F98
:100740009D87882339F3C8010E94A70AF6CFA12C00
:10075000B12C41E050E0BE016D5E7F4FC8010E94A8
:10076000D00A8B89982F907C61F4882371F08B8953
:100770009FEF980F9B8B882341F0C8010E94A70A26
:10078000F6CFC8010E94A70A1B8A8B898111E1CF8D
:1007900042E050E0BE01615F7F4FC8010E94D00A75
:1007A00042E050E0BE01635F7F4FC8010E94D00A63
:1007B000C8010E94A70AC8010E94A70AC8010E9496
:1007C000A70AC8010E94A70A42E050E0BE016F5E7E
:1007D0007F4FC8010E94D00A8F859889811591406A
:1007E00001F52D853E85322723273227213031051B
:1007F000C1F489899A898115944031F0C8010E9419
:10080000600A27EF3FEF2DC0B7016E5F7F4F44E0D6
:1008100050E0C8012C8B3D8B0E94D00A2C893D8969
:1008200020C0812C912C89899A899827892798271B
:100830008816990638F4C8010E94A70A8FEF881A13
:10084000980AF1CFEFEFAE1ABE0AAC14BD0409F05E
:1008500080CFC8010E94600A26EF3FEF02C02DEF53
:100860003FEFC90165960FB6F894DEBF0FBECDBF4E
:10087000DF91CF911F910F91FF90EF90DF90CF907C
:10088000BF90AF909F908F907F906F905F904F90B0
:1008900008958F929F92AF92BF92CF92DF92EF9284
:1008A000FF920F931F93CF93DF9300D000D0CDB76B
:1008B000DEB77C014B015A010E94E4018C010097D4
:1008C00009F05DC0F7014281538164817581809197
:1008D000F4059091F505A091F605B091F70548173C
:1008E00059076A077B0709F44DC00E94522267012D
:1008F000F8E0CF0ED11C6F7077277C5FC6010E9495
:100900005B0B813009F040C08AEE95E09A838983C1
:10091000F70182819381A481B5818B839C83AD8310
:10092000BE8345E350E0BE016F5F7F4FC6010E946A
:10093000870A892B19F400E010E01DC0B401C7013B
:100940000E943102892BB9F3C6010E948F0A892BBC
:1009500091F383E0882E912CA50168E873E1C7012B
:100960000E94E0028C01F1E08F1A910821F08F3F84
:100970002FEF920789F3C6010E94720A05C001E0B9
:1009800010E002C00EEF1FEFC80126960FB6F894D4
:10099000DEBF0FBECDBFDF91CF911F910F91FF90B2
:1009A000EF90DF90CF90BF90AF909F908F90089581
:1009B00044E050E0BC0181E090E00C947A0E44E009
:1009C00050E0BC0185E090E00C947A0E44E050E0E9
:1009D000BC018FE090E00C947A0E8F929F92AF92C0
:1009E000BF92CF92DF92EF92FF920F931F93CF931C
:1009F000DF931F921F92CDB7DEB74C015A016901F8
:100A000082E296E069837A830E943C0E46E050E0E1
:100A100069817A8189E090E00E947A0EC501029690
:100A20000E94E604C80102960E94D804C7010296FB
:100A30000E94DF04F60182819381A481B581F401D3
:100A400082839383A483B5830F900F90DF91CF911E
:100A50001F910F91FF90EF90DF90CF90BF90AF90DC
:100A60009F908F9008956F927F928F929F92AF92F6
:100A7000BF92CF92DF92EF92FF920F931F93CF938B
:100A8000DF93CDB7DEB76E970FB6F894DEBF0FBE1B
:100A9000CDBF6C015B017A014901380100E02FEF05
:100AA0004FEF6FEFCE0149960E94F51FEAEEF5E099
:100AB000FA83E9838B8D9C8DAD8DBE8D8B839C835A
:100AC000AD83BE83F887EF83D30112964D915D917C
:100AD0006D917C91159749875A876B877C87FE8734
:100AE000ED87D40112964D915D916D917C91159792
:100AF0004F87588B698B7A8BFC8BEB8BF70182814C
:100B00009381A481B5818D8B9E8BAF8BB88FCE01E5
:100B100001967C018E01095F1F4F9E01235F3F4FAD
:100B2000AE014D5E5F4FB501C6010E94ED046E96A9
:100B30000FB6F894DEBF0FBECDBFDF91CF911F91EE
:100B40000F91FF90EF90DF90CF90BF90AF909F906C
:100B50008F907F906F900895CF92DF92EF92FF92E7
:100B60000F931F93CF93DF93CDB7DEB768970FB680
:100B7000F894DEBF0FBECDBFF901DA0112960D91D8
:100B80001D912D913C9115970D8B1E8B2F8B388FBE
:100B90004AEE55E05A834983A1E0A88FCD88DE88CC
:100BA000EF88F88CCB82DC82ED82FE8258874F83FF
:100BB000C280D380E480F580C986DA86EB86FC8625
:100BC0005E874D870F87188B298B3A8B8E010F5FBD
:100BD0001F4F9E01295F3F4FAE01435F5F4F0E9451
:100BE000330568960FB6F894DEBF0FBECDBFDF9118
:100BF000CF911F910F91FF90EF90DF90CF900895CC
:100C0000CF92DF92EF92FF92CF93DF93CDB7DEB713
:100C100062970FB6F894DEBF0FBECDBFFB01DA01BD
:100C200012964D915D916D917C9115974F87588BE0
:100C3000698B7A8B2AEE35E03A832983A1E0AA8B6F
:100C4000CF84D888E988FA88CB82DC82ED82FE8264
:100C500038872F8349875A876B877C879E012F5F50
:100C60003F4FAE01495F5F4FBF010E94AC056296E6
:100C70000FB6F894DEBF0FBECDBFDF91CF91FF90CE
:100C8000EF90DF90CF900895CF93DF93EC010E9417
:100C9000EB1FBE016E5F7F4F44E050E08FE090E0BD
:100CA0000E94AC0FCE01DF91CF9108952AEE35E07E
:100CB000FC0131832083FB01428153816481758172
:100CC000FC01428353836483758308950F9300E08E
:100CD00020E040E060E088E096E00E94F51F88EFA9
:100CE00095E00F910C94EB1FDC01ED91FC91008CD1
:100CF000F18DE02D199591E089270895CF93DF9329
:100D00001F92CDB7DEB76983DC01ED91FC910280C3
:100D1000F381E02D41E050E0BE016F5F7F4F1995F8
:100D20000F90DF91CF910895CF93DF93EC01E8818D
:100D3000F9810480F581E02DCE011995892B41F0D0
:100D4000E881F9810680F781E02DCE011995EFCF7A
:100D5000DF91CF91089521E0FC018485843009F46E
:100D600020E0822F0895FC019485FB01848598136F
:100D700003C081E0943009F480E008950F931F933D
:100D8000CF93DF938C01D42FC52FFC018485843051
:100D900041F481E090E0F8019383828380E090E069
:100DA00006C00E94F40C892BA1F38D2F9C2FDF919C
:100DB000CF911F910F910895FC016485643021F05B
:100DC00082E296E00C94150F80E090E00895CF93B6
:100DD000DF931F92CDB7DEB741E050E0BE016F5FF9
:100DE0007F4FFC0184850E94460D181619061CF4DD
:100DF000898190E002C08FEF9FEF0F90DF91CF913C
:100E00000895FC0184850C94460D0F931F93CF9396
:100E1000DF931F92CDB7DEB78C01DC01ED91FC9121
:100E20000480F581E02D1995892B51F0BE016F5F8B
:100E30007F4FF80184850E948C0D898190E002C06B
:100E40008FEF9FEF0F90DF91CF911F910F9108953A
:100E5000CF92DF92EF92FF920F931F93CF93DF9386
:100E6000CDB7DEB7AF970FB6F894DEBF0FBECDBFDC
:100E70008C016B017A01CE0101960E94EB1FCE011D
:100E800009960E94980BCE018A960E94EB1F68EF8C
:100E900075E0CE0184960E945606BE016C5D7F4FC0
:100EA000CE0101960E94D701AE01465D5F4FB601AB
:100EB000CE0101960E94490481309105C1F4D80108
:100EC000ED91FC910484F585E02D8AEE95E09DA3DB
:100ED0008CA38CA59DA5AEA5BFA58EA39FA3A8A7F7
:100EE000B9A7A701BE016C5D7F4FC8011995AF96E8
:100EF0000FB6F894DEBF0FBECDBFDF91CF911F912B
:100F00000F91FF90EF90DF90CF900895FC01138236
:100F1000128288EE93E0A0E0B0E084839583A683FC
:100F2000B78385E292E09183808384E0848708958B
:100F3000FC011382128288EE93E0A0E0B0E084838B
:100F40009583A683B78385E292E09183808364874B
:100F50000895FC018485843039F090E0982F88272B
:100F60008D5F9B4F0C94A90E80E00895AF92BF92C5
:100F7000CF92DF92EF92FF920F931F93CF93DF9365
:100F8000FC012485243009F03EC06A018B01EC018C
:100F900083E0A82E84E0B82EE12CF12CC5010E943C
:100FA000A90E811102C0EC860BC08B7F8831D9F36A
:100FB000FFEFEF1AFF0AB394E4E0EE16F10471F7C5
:100FC0008C85843001F120910002309101022F5F65
:100FD0003F4F11F420E034E03093010220930002EF
:100FE000409100025091010220E061E00E946A0CF1
:100FF000B8016E5F7F4FA6018C850E94B60C8111EF
:1010000005C084E08C8780E090E011C0CE010E9492
:10101000A907873151F061E070E080E090E00E9424
:101020008322CE010E94A907EACF81E090E0DF9100
:10103000CF911F910F91FF90EF90DF90CF90BF90D5
:10104000AF900895CF92DF92EF92FF92CF93DF930C
:10105000EC018C85843089F10E94ED0C0E945222B3
:101060006B017C01CE010E94A9078823A1F00E9498
:101070005222DC01CB018C199D09AE09BF09883EC3
:101080009340A105B10538F461E070E080E090E0A4
:101090000E948322E7CFCE010E94A907882319F07E
:1010A0008C850E945C0CEC85F0E0EE0FFF1FE05099
:1010B000FA4F1182108284E08C87DF91CF91FF90EC
:1010C000EF90DF90CF900895CF93DF93FC012485BC
:1010D0002430D1F0EC010E94A907843181F08823EB
:1010E00071F0883161F08C3161F4E881F98104801C
:1010F000F581E02DCE01199521E0892B19F420E02E
:1011000001C021E0822F01C080E0DF91CF910895DE
:101110000F9300E020E040E060E08EE096E00E9467
:10112000F51F0F910895CF93DF931F92CDB7DEB7D0
:101130006983DC01ED91FC910280F381E02D41E0B7
:1011400050E0BE016F5F7F4F19950F90DF91CF91F7
:101150000895EF92FF920F931F93CF93DF93CDB734
:10116000DEB72D970FB6F894DEBF0FBECDBF7C0162
:1011700000E010E0602FCE0101960E949807CE019A
:1011800001960E94A907811116C0F701448155817B
:1011900020E061E0802F0E946A0C802F0E94A20C48
:1011A000F70184819581000F111FF801E050FA4F7B
:1011B0009183808305C00F5F1F4F04301105D1F666
:1011C0002D960FB6F894DEBF0FBECDBFDF91CF9145
:1011D0001F910F91FF90EF900895FC0113821282EE
:1011E00085E492E091838083758364830895AF9250
:1011F000BF92CF92DF92EF92FF921F93CF93DF9334
:10120000CDB7DEB72D970FB6F894DEBF0FBECDBFBA
:101210007C0190E0A92E96E0B92E10E0C12CD12CD3
:10122000612FCE0101960E949807D5012D913D9125
:101230005D01F7018481958128173907B1F4CE014A
:1012400001960E94A907843169F0CE0101960E949F
:10125000A9078C3151F4CE0101960E94DC06892B3E
:1012600091F003C0CC24C394D12C1F5F1430C1F67D
:10127000CD2871F4D701ED91FC910480F581E02D2A
:10128000C701199505C0CE0101960E942208EDCF35
:101290002D960FB6F894DEBF0FBECDBFDF91CF9174
:1012A0001F91FF90EF90DF90CF90BF90AF90089587
:1012B0006F927F928F929F92AF92BF92CF92DF9266
:1012C000EF92FF921F93CF93DF93CDB7DEB72D97A9
:1012D0000FB6F894DEBF0FBECDBF5C014B013A01E3
:1012E0000E94F70880E0C82E86E0D82E10E0E12C9E
:1012F000F12C612FCE0101960E949807F6012191F1
:1013000031916F01F501848195812817390731F4F6
:10131000CE0101960E94A9078731C1F01F5F1430EA
:1013200041F7C7012D960FB6F894DEBF0FBECDBFB3
:10133000DF91CF911F91FF90EF90DF90CF90BF9002
:10134000AF909F908F907F906F900895A301B4010C
:10135000CE0101960E94BE06E80EF91EDFCFAF92C5
:10136000BF92CF92DF92FF920F931F93CF93DF93A1
:10137000CDB7DEB72D970FB6F894DEBF0FBECDBF49
:101380008C015B01CB010E94F70880E0C82E86E04B
:10139000D82EF12C6F2DCE0101960E949807F601F0
:1013A000219131916F01F5018481958128173907C9
:1013B00061F4CE0101960E94A907873179F0CE0130
:1013C00001960E94A9078C3149F0F394F4E0FF12D2
:1013D000E1CF64E0C8010E94980721C0CE010196C8
:1013E0000E94DC06892B89F38B819C81F801938311
:1013F00082838D819E81AF81B88584839583A68306
:10140000B78389859A85AB85BC8580879187A287BC
:10141000B38785E292E0918380838D858487C801BC
:101420002D960FB6F894DEBF0FBECDBFDF91CF91E2
:101430001F910F91FF90DF90CF90BF90AF900895D4
:101440000F9300E020E040E060E084E196E00E943D
:10145000F51F0F910895DC01ED91FC91008CF18D49
:10146000E02D19942AEE35E0FC0131832083FB0145
:101470004189528963897489FC014283538364835F
:1014800075830895FC01858996890895FC01818DF5
:10149000928D0895CF93DF931F92CDB7DEB7698306
:1014A000DC01ED91FC910280F381E02D41E050E000
:1014B000BE016F5F7F4F19950F90DF91CF91089517
:1014C000CF93DF93EC01898D9A8D892B41F0E881D0
:1014D000F9810680F781E02DCE011995F4CFDF91D7
:1014E000CF910895CF93DF93EC018C85843061F028
:1014F0000E945C0CEC85F0E0EE0FFF1FE050FA4F0D
:101500001182108284E08C87DF91CF910895FC01D5
:10151000108E178A6E5F7F4F84850C94C80DFC0176
:1015200084850C94ED0DCF93DF93EC019A018F89A4
:10153000988DAB01BC018C850E949A0D2F89388D46
:10154000280F391F388F2F8BDF91CF9108950F937C
:101550001F93CF93DF931F92CDB7DEB7FC01218D90
:10156000328D232B61F08C0141E050E0BE016F5FB2
:101570007F4F84850E94460D181619061CF08FEFC8
:101580009FEF08C0F801818D928D0197928F818F16
:10159000898190E00F90DF91CF911F910F91089575
:1015A000CF93DF93FC01218D328D2115310519F484
:1015B0008FEF9FEF11C0EC014217530708F0A9010C
:1015C0008C850E94460D1816190694F7298D3A8DC0
:1015D000281B390B3A8F298FDF91CF910895CF9334
:1015E000DF931F92CDB7DEB7FC01218D328D232B07
:1015F00049F0BE016F5F7F4F84850E948C0D898109
:1016000090E002C08FEF9FEF0F90DF91CF91089590
:101610000F931F93CF93DF93CDB7DEB728970FB605
:10162000F894DEBF0FBECDBF8C01DC01ED91FC91C3
:101630000284F385E02D1995F801648582E296E035
:101640000E94150F892B51F148E050E0BE016F5FF9
:101650007F4FD8011C968C910E94460D9C01181654
:101660001906D4F4BE016F5F7F4FC8010F960E9428
:1016700001208D8190E0982F88272E81820F911D67
:10168000F801968B858B2F8130E0322F22278885B9
:10169000280F311D328F218FC90102C080E090E0F8
:1016A00028960FB6F894DEBF0FBECDBFDF91CF9165
:1016B0001F910F910895CF92DF92EF92FF920F93B7
:1016C0001F93CF93DF93FC012485243011F080E039
:1016D00026C08B01EC0183E0C82E84E0D82EE12CDB
:1016E000F12CC6010E94A90E811102C0EC860AC02D
:1016F0008831E1F3FFEFEF1AFF0AD394E4E0EE162E
:10170000F10479F78C85843011F31E870D871A8ECA
:10171000198E20E0A80162E00E946A0C81E0DF914E
:10172000CF911F910F91FF90EF90DF90CF90089590
:10173000FC011382128288EE93E0A0E0B0E0848383
:101740009583A683B7838FE492E09183808384E0BE
:101750008487CF010F960C94EB1FCF92DF92EF920C
:10176000FF920F931F93CF93DF93CDB7DEB7AF9761
:101770000FB6F894DEBF0FBECDBF8C016B017A01AE
:10178000CE0101960E94EB1FCE0109960E94980B94
:10179000CE018A960E94EB1F68EF75E0CE01849619
:1017A0000E945606BE016C5D7F4FCE0101960E94DD
:1017B000D701AE01465D5F4FB601CE0101960E9492
:1017C000490481309105C1F4D801ED91FC91008864
:1017D000F189E02D8AEE95E09DA38CA38CA59DA5B3
:1017E000AEA5BFA58EA39FA3A8A7B9A7A701BE01B9
:1017F0006C5D7F4FC8011995AF960FB6F894DEBFA8
:101800000FBECDBFDF91CF911F910F91FF90EF9051
:10181000DF90CF9008950F9300E020E040E060E07B
:101820008AE196E00E94F51F0F91089590E0982FAD
:10183000882744E050E0845F9B4F0C947A0E90E040
:101840000496982F8827860F971F0C94A90E62E0A4
:1018500070E00C941F0C9B0190E00496982F882751
:10186000642F820F931F0C94190ECF93DF93C82F10
:10187000D62F472F64E070E00E942B0C4D2F65E0BF
:1018800070E08C2FDF91CF910C942B0C462F62E0EF
:1018900070E00C942B0CCF93DF93C82FD62F472FDB
:1018A00060E170E00E942B0C4D2F61E170E08C2F05
:1018B000DF91CF910C942B0CCF93C82F40E150E0D7
:1018C000682F82E296E00E9465106FEF8C2FCF9117
:1018D0000C94460CFF920F931F93CF93DF939FEFCF
:1018E000960F953040F5D22F8A01F62EC82F0E9410
:1018F0005C0C4F2D4D2B60E070E08C2F0E942B0C68
:101900000115110511F0B8010AC06091200670910F
:1019100021066F5F7F4F70932106609320068C2F06
:101920000E94350C41E050E06C2F82E296E00E946C
:10193000651081E001C080E0DF91CF911F910F9190
:10194000FF900895CF93C82F63E070E00E941F0CB2
:10195000833149F442E050E06C2F82E296E00E942D
:10196000651081E001C080E0CF9108950F931F932F
:10197000CF93FB0190819F3F51F491819F3F91F460
:1019800092819F3F79F493819F3F61F420C0911130
:1019900009C09181911106C09281911103C0938178
:1019A0009923B1F04115510591F08A01BF01C82F6B
:1019B0000E94160CB8018C2F0E944B0C44E050E0A2
:1019C0006C2F82E296E00E94651091E001C090E0E9
:1019D000892FCF911F910F91089548E050E0682F13
:1019E00082E296E00C946510CF92DF92EF92FF9224
:1019F0000F931F93CF93C82F7B018A01413088E05A
:101A0000580710F000E018E06C2F82E296E00E9488
:101A1000E10E6C0163E070E08C2F0E941F0C873197
:101A200011F08C3121F4C016D10670F302C000E031
:101A300010E09801A7016C2F82E296E00E94A10FAE
:101A400040E250E06C2F82E296E00E9465108C2FFD
:101A50000E94270C84FD0DC063E070E08C2F0E9473
:101A60001F0C8111F4CF8C2F0E945C0C80E090E061
:101A700005C060E18C2F0E94460CC801CF911F91D8
:101A80000F91FF90EF90DF90CF900895CF92DF926B
:101A9000EF92FF920F931F93CF93DF93182F6B0159
:101AA0007A01682F82E296E00E94150FEC01009700
:101AB00099F463E070E0812F0E941F0C843111F1D2
:101AC000882301F1C1E0D0E08C3111F4C0E0D0E016
:101AD000D195C195D10916C0E816F9060CF4E701B5
:101AE0001C161D067CF400E09E01A601612F82E217
:101AF00096E00E94151040E450E0612F82E296E0EB
:101B00000E946510CE01DF91CF911F910F91FF9040
:101B1000EF90DF90CF9008950F93AB0101E021E0AB
:101B200030E0682F82E296E00E94151081E090E09C
:101B30000F910895AF92BF92CF92DF92FF920F93D1
:101B40001F93CF93DF93F82E6B015A01E901682FA1
:101B500082E296E00E94E10E8C179D0730F46F2D13
:101B600082E296E00E94E10EEC018E019501A60151
:101B70006F2D82E296E00E94310FCE01DF91CF916E
:101B80001F910F91FF90DF90CF90BF90AF9008957D
:101B90000F931F93CF93FB019081911109C0918105
:101BA000911106C09281911103C09381992379F01C
:101BB0004115510561F08A01BF01C82F0E94160C22
:101BC000B8018C2F0E944B0C81E090E002C080E0B5
:101BD00090E0CF911F910F910895CF93C82F40E2CD
:101BE00050E0682F82E296E00E9465108C2F0E94E0
:101BF000270C84FD0CC08C2F0E94270C83FFF6CF8E
:101C000068E18C2F0E94460C80E090E006C060E105
:101C10008C2F0E94460C81E090E0CF9108958EBDFC
:101C20000DB407FEFDCF8EB508952C9808952C9A1B
:101C300008951F93CF93DF931F921F92CDB7DEB706
:101C4000182F6A8399830E94150E80EF0E940F0E51
:101C50009981892F0E940F0E812F0E940F0E6A8199
:101C6000862F0E940F0E0E94170E81E00F900F909A
:101C7000DF91CF911F910895CF93DF93EC016CE238
:101C800071E080E090E00E9483220E94A915249ACE
:101C900060E880E090E00E94190E65E58BE190E03D
:101CA0000E94190E65E58AE190E00E94190E80E01D
:101CB00090E49983888380E090E69987888780E024
:101CC00098E49B838A8380E098E69B878A8780E0FC
:101CD00090E59D838C8380E090E79D878C8780E0F2
:101CE00098E59F838E8380E098E79F878E87DF91BA
:101CF000CF910895CF92DF92EF92FF920F931F93AF
:101D0000CF93DF93EC017A018B016C01C40ED51ED9
:101D1000CC15DD05A1F00E94150E80EF0E940F0E7C
:101D20008D2F0E940F0E8C2F0E940F0E2196F8010E
:101D300081918F010E940F0E0E94170EE9CFC701FB
:101D4000DF91CF911F910F91FF90EF90DF90CF9097
:101D500008951F93CF93DF931F92CDB7DEB7182F4F
:101D600099830E94150E8FE00E940F0E9981892F92
:101D70000E940F0E812F0E940F0E80E00E940F0E16
:101D800089830E94170E89810F90DF91CF911F9157
:101D900008951F93CF93DF93182F60E270E00E94A5
:101DA0001F0CC82FD0E061E270E0812F0E941F0C51
:101DB000DC2FCC279E01282BC901DF91CF911F91E9
:101DC0000895FF920F931F93CF93DF93F62EC0E0F9
:101DD000D0E08F2D0E94C90E8C01009721F08F2D2D
:101DE0000E94C90EEC01C017D10799F7CE01DF910F
:101DF000CF911F910F91FF9008951F93CF93DF9381
:101E0000182F66E270E00E941F0CC82FD0E067E236
:101E100070E0812F0E941F0CDC2FCC279E01282B05
:101E2000C901DF91CF911F910895FF920F931F93E6
:101E3000CF93DF93F62EC0E0D0E08F2D0E94FD0EF1
:101E40008C01009721F08F2D0E94FD0EEC01C01730
:101E5000D10799F7CE01DF91CF911F910F91FF909C
:101E600008956F927F928F929F92AF92BF92CF927E
:101E7000DF92EF92FF920F931F93CF93DF931F9206
:101E8000CDB7DEB7882E962E6A01590164E270E064
:101E9000892D99830E941F0CE82EF12C65E270E0D9
:101EA000892D0E941F0CFE2CEE24E82A37016C0CB1
:101EB0007D1CA3015770E82C9981F92EE90CF11CC7
:101EC000E90CF11CF70180819181840F951F9A0123
:101ED000200F311F2130384098F060E078E06B012E
:101EE000C41AD50AA601B5010E947A0EA8014C19A0
:101EF0005D09B5016C0D7D1DF7018081918102C0E6
:101F0000A801B5010E947A0E060D171D412F64E24B
:101F100070E0892D0E942B0C402F65E270E0892D26
:101F20000F90DF91CF911F910F91FF90EF90DF9075
:101F3000CF90BF90AF909F908F907F906F900C94B8
:101F40002B0C0F931F9389019A0140E050E00E94EF
:101F5000310F1F910F910895CF92DF92EF92FF9270
:101F60000F931F93CF93DF93EC017A018B016C01E8
:101F7000C40ED51ECC15DD05A9F00E94150E8FE00C
:101F80000E940F0E8D2F0E940F0E8C2F0E940F0E9D
:101F9000219680E00E940F0EF80181938F010E942C
:101FA000170EE8CFC701DF91CF911F910F91FF90DE
:101FB000EF90DF90CF900895CF92DF92EF92FF9253
:101FC0000F931F93CF93DF93690157707C01E60E47
:101FD000F11CE60EF11CF70180859185840F951F99
:101FE0009A01200F311F2130384098F0E0E0F8E0EE
:101FF000EF01C41BD50BAE01B6010E94AC0FA801C6
:102000004C1B5D0BB6016C0F7D1FF7018085918520
:1020100002C0A801B601DF91CF911F910F91FF90EF
:10202000EF90DF90CF900C94AC0F8F929F92AF9275
:10203000BF92CF92DF92EF92FF920F931F93CF93B5
:10204000DF936C01962E5A017901802E68E270E0D0
:10205000892D0E941F0CC82FD0E069E270E0892D05
:102060000E941F0CDC2FCC27C82B87019501AE01E5
:10207000692DC6010E94DC0F81101AC0CE0DDF1D34
:102080004D2F68E270E0892D0E942B0C4C2F69E2E5
:1020900070E0892DDF91CF911F910F91FF90EF900C
:1020A000DF90CF90BF90AF909F908F900C942B0CAF
:1020B000DF91CF911F910F91FF90EF90DF90CF9024
:1020C000BF90AF909F908F900895CF93C62F61E0FF
:1020D00070E08C2F0E942B0C61E070E08C2F0E942E
:1020E0001F0C8111F9CFCF910895FC01E15BFF4FE7
:1020F000718360830895CF93DF93EC01C15BDF4F61
:1021000088819981DC01ED91FC910190F081E02DB5
:10211000199588819981DC01ED91FC910280F38110
:10212000E02DDF91CF911994EF92FF920F93CF930F
:10213000DF93FC0194E1978781E0808B918B828B08
:102140007F018FE4E80EF11CD7018D919C91EF0186
:102150002F96DC01ED91FC910480F581E02D00E0EB
:1021600020E030E044E0BE011995811112C0F70172
:1021700080819181DC01ED91FC910680F781E02D59
:1021800028EE33E040E4BE01199521E01816190647
:102190000CF020E0822FDF91CF910F91FF90EF9014
:1021A0000895CF92DF92EF92FF920F93CF93DF9338
:1021B000EC0169017C018FE4E80EF11CD7018D91DF
:1021C0009C91DC01ED91FC910480F581E02D00E013
:1021D00020E030E0199587FD15C0F70180819181DD
:1021E000DC01ED91FC91BE01615F7F4F0680F781BC
:1021F000E02D960140E41995181634F08E3F31F029
:102200008EEF05C08FEF03C081E001C080E0DF9159
:10221000CF910F91FF90EF90DF90CF900895EF92C4
:10222000FF920F931F93CF93DF93EB01142F26E8B8
:102230002883815B9F4F7C01DC018D919C91DC01A7
:10224000ED91FC910480F581E02D00E020E030E08C
:1022500041E01995811122C0F70180819181DC0153
:10226000ED91FC910680F781E02D28EB3BE0412FBA
:10227000BE01199518161906B4F401972881211189
:1022800010C040E0242F30E02817390760F4FE0129
:10229000E20FF31F218120834F5FF4CF8FEF9FEF79
:1022A00002C08BEF9FEFDF91CF911F910F91FF90B5
:1022B000EF900895EF92FF920F93CF93DF93EC018D
:1022C0004034E0F0232B09F055C0DC011F966A175B
:1022D0007B0709F44FC08EE88F87FE01E15BFF4F5B
:1022E00080819181FC0120813181F901E480F580B8
:1022F000042F9B0141E0BD01F70122C08FEF840F45
:102300008F3F69F0E82FFF27E7FDF095DB01AE0F67
:10231000BF1F9C91EC0FFD1F908B8150F1CF8EE879
:102320008F87FE01E15BFF4F80819181DC01ED91A0
:10233000FC914F5F0480F581E02DBE01615F7F4F0E
:102340001995811117C0FE01E15BFF4F80819181DA
:10235000DC01ED91FC910680F781E02D28EB3BE05C
:1023600040E4BE01615F7F4F199597FD03C081E096
:102370009F85911180E0DF91CF910F91FF90EF90B9
:102380000895EF92FF920F93CF93DF93FC0182E5C4
:102390008787608B7F018FE4E80EF11CD7018D9158
:1023A0009C91EF012F96DC01ED91FC910480F58169
:1023B000E02D00E020E030E042E0BE0119958111FF
:1023C00013C0F70180819181DC01ED91FC910680C1
:1023D000F781E02D28EE33E040E4BE01DF91CF919C
:1023E0000F91FF90EF90199480E090E0DF91CF91F2
:1023F0000F91FF90EF900895CF93DF93EC010E942F
:102400007B10CE01DF91CF910C949410FC01EF5220
:10241000FF4F7183608308950F93FA01D9016230F1
:102420007105B9F044F46115710569F06130710509
:10243000D9F48AE614C06330710569F0643071051F
:1024400099F482E60CC080E9808311820E5F0C93C0
:102450000BC08AE601C085E6808381E802C08083E4
:1024600082E8818382E08C930F9108952F923F92AE
:102470004F925F926F927F928F929F92AF92BF9294
:10248000CF92DF92EF92FF920F931F93CF93DF9340
:10249000CDB7DEB7C35CD1090FB6F894DEBF0FBE6F
:1024A000CDBF7C019B01FE01EF57FF4F86E2DF01AC
:1024B0001D928A95E9F78CE8808385E0818384E02A
:1024C000828380E28783D701AF52BF4F0D90BC91CA
:1024D000A02D109731F08D919D91AC9184839583BF
:1024E000A68346E2BF01C7010E94D110813009F0E6
:1024F0005DC18FE0E3E0F2E0DE01A955BF4F01903E
:102500000D928A95E1F75701B4EDAB0EB11CF501C0
:102510008081811106C08FEFCB54DF4F8883C55B6C
:10252000D0404701F3ED8F0E911CD4011C92C12CB9
:10253000D12CF701EF5AFF4FC054DF4FF983E883E6
:10254000C05CD040C7018E5A9F4FCE53DF4F998356
:102550008883C25CD040270195ED490E511C37019C
:10256000A3E56A0E711C19E040E8BE016F5F7F4F62
:10257000C7010E940F1197FF06C060E0C7010E94CB
:10258000C11181E014C18B812C810D81682F70E015
:10259000762F6627620F711D9A81903B09F45AC00D
:1025A000963D09F49DC0943A09F0E5C0882319F0DE
:1025B000843069F1ECC02C3041F000E09E012154E0
:1025C0003F4FAE014F5F5F4F88C0023009F04EC0F1
:1025D0008E81813E09F04AC08F818350823008F09D
:1025E00045C000E09E0121543F4FAE014F5F5F4F59
:1025F00060E070E0C7010E940C128F81833031F1DE
:10260000843009F0C4C022E0C22ED12CC0C0E2E167
:10261000F2E0DE01AA54BF4F812F01900D928A95FE
:10262000E1F749E050E0BE016C5F7F4FCE018A5474
:102630009F4F0E94402400E09E0121543F4FAE0175
:102640004F5F5F4F892B09F09DC047C0CC24C394D6
:10265000D12C9DC0B1E0CB16D10491F0E2E0CE16B2
:10266000D104D1F0C114D10409F091C000E09E0161
:1026700021543F4FAE014F5F5F4F61E070E084C077
:102680006138710560F4202E312C87EA90E08C0FC0
:102690009D1F680F791F13C06138710550F000E06D
:1026A0009E0121543F4FAE014F5F5F4F64E070E0E9
:1026B0006BC0202E312C6F5A7F4F6E0D7F1DA101F4
:1026C000CE0101960E944D2441E050E04C0F5D1F69
:1026D000420D531D9E0121543F4F60E070E054C0F5
:1026E000D5018C91882309F446C06138710550F0FA
:1026F00000E09E0121543F4FAE014F5F5F4F63E00A
:1027000070E042C0CB018F5A9F4F402F50E0BE0176
:102710006A5F7F4F8E0D9F1D0E944D2400E09E0139
:1027200021543F4FAE014F5F5F4F60E070E0C70143
:102730000E940C1281E0F4018083C054DF4FA88115
:10274000B981C05CD0406C9170E0762F6627CE5383
:10275000DF4FE881F981C25CD0408081680F711D34
:1027600061157105A1F0D201ED91FC91309779F0DE
:10277000C30119950CC000E09E0121543F4FAE01EA
:102780004F5F5F4F62E070E0C7010E940C1200E0F3
:1027900020E030E0C154DF4F4881CF5BD040BE0124
:1027A0006F5F7F4FC7010E945A11DECE80E0CD538C
:1027B000DF4F0FB6F894DEBF0FBECDBFDF91CF91D4
:1027C0001F910F91FF90EF90DF90CF90BF90AF904F
:1027D0009F908F907F906F905F904F903F902F9041
:1027E000089561E0FC0184810E9482230E94A91562
:1027F00080E00E94C81580E00E94BF1585E00C941F
:10280000CD15CF93DF93EC0160E08C810E94BE2355
:1028100062E070E080E090E00E94832261E08C81C1
:10282000DF91CF910C94BE2380E00C940F0EFC013D
:1028300083E792E09183808315827383628344836C
:1028400008951F93CF93DF93EC0160E08C810E9489
:10285000BE2382E00E940F0E0E941414182F61E024
:102860008C810E94BE23812F8170DF91CF911F91B7
:102870000895BF92CF92DF92EF92FF920F931F9332
:10288000CF93DF937C01D62EB72EC42E8901C0E0F2
:10289000D0E0C7010E942114811110C061E070E0F6
:1028A00080E090E00E94832221960115110589F3B2
:1028B0000C171D0770F78EEF9FEF57C060E0F70110
:1028C00084810E94BE2361E070E080E090E00E947D
:1028D000832283E00E940F0E0E941414811115C000
:1028E0000E941414811111C00E9414148F3F69F4C6
:1028F0000E941414C82F0E9414148C0F31F4F70195
:10290000D5810E941414853D49F0CDEFDFEF61E0E1
:10291000F70184810E94BE23CE0127C00E941414B7
:1029200091E09D0F9813F1CFC250CC1638F40E945D
:1029300014140E941414CCEFDFEFE9CFDA52CD2C3F
:102940000D2D1B2D802F8C198C1738F40E94141418
:10295000F80181938F01D80FF5CF0E9414148D0FC9
:10296000A1F60E941414D0E0D2CFDF91CF911F9135
:102970000F91FF90EF90DF90CF90BF9008958F92CE
:102980009F92AF92BF92CF92DF92EF92FF920F93FE
:102990001F93CF93DF937C01162FB72EC42ED22E18
:1029A000932E60E0FC0184810E94BE2362E070E00F
:1029B00080E090E00E94832281E00E940F0E80E080
:1029C0000E940F0E80E00E940F0E8FEF0E940F0EEC
:1029D000C1E0C00FCC0D8C2F0E940F0E8C2F819563
:1029E0000E940F0E84ED0E940F0E812EC12FDB2D51
:1029F00014ED8C2F88198C1540F45E0189910E948A
:102A00000F0EF5018081180FF4CFCD2CCD2DD92DCF
:102A10008C2F8C19801740F45E0189910E940F0E53
:102A2000F5018081180FF4CF812F81950E940F0E40
:102A300080E00E940F0E61E0F7018481DF91CF9169
:102A40001F910F91FF90EF90DF90CF90BF90AF90CC
:102A50009F908F900C94BE23BF92CF92DF92EF9203
:102A6000FF920F931F93CF93DF93CDB7DEB72C97D1
:102A70000FB6F894DEBF0FBECDBF6C0186E0EBE170
:102A8000F2E0DE01179601900D928A95E1F760E081
:102A9000F60184810E94BE2361E070E080E090E056
:102AA0000E94832283E00E940F0E8E010F5F1F4F52
:102AB000780186E0B82EB00E0E941414F7018193BD
:102AC0007F01BE12F9CF61E0F60184810E94BE232E
:102AD00046E050E0BE01695F7F4FC8010E9440247C
:102AE0002C960FB6F894DEBF0FBECDBFDF91CF910D
:102AF0001F910F91FF90EF90DF90CF90BF900895BE
:102B00000F931F93CF93DF93EC01FB0180818D83A3
:102B1000CE010E94BF141AE0CE010E94211481113F
:102B20000AC061E070E080E090E00E9483221150D2
:102B300099F78EEF09C0CE010E942C1591E081110A
:102B400001C090E0892F8195DF91CF911F910F9166
:102B5000089561E085E30E94BE2361E085E30E9461
:102B600082238CB580618CBD8CB580648CBD61E0A6
:102B700084E30E94822361E083E30C948223811129
:102B800003C08CB5806202C08CB58F7D8CBD08956A
:102B90009CB5937F892B8CBD08959CB5282F2370FD
:102BA0009C7F922B9CBD2DB582FB992790F9822F9B
:102BB0008E7F892B8DBD089520E001972FEF8F3FE9
:102BC0009207D9F70895EF92FF920F931F93CF9337
:102BD000DF93EC018B8DEE85FF859D8581FF04C021
:102BE0008081982329F446C08081982309F042C04F
:102BF0008B899C890E94DC1588E0E82EF12C10E07E
:102C000001E08D899E890E94DC15EE85FF8590810B
:102C10008D85892311F0102B03C0802F80951823F8
:102C2000000F81E0E81AF10861F78F89988D0E9402
:102C3000DC158B8D81FD1095809134062091330633
:102C400090E001968F73992730E08217930779F00F
:102C5000E0913406F0E0EB5CF94F1083809134068C
:102C600090E001968F7399278093340603C08B8D73
:102C700081608B8FDF91CF911F910F91FF90EF902B
:102C800008958091750690917606009711F00C9446
:102C9000E31508951F920F920FB60F9211240BB6F1
:102CA0000F922F933F934F935F936F937F938F93E5
:102CB0009F93AF93BF93EF93FF930E944116FF91B1
:102CC000EF91BF91AF919F918F917F916F915F91A4
:102CD0004F913F912F910F900BBE0F900FBE0F9011
:102CE0001F9018951F920F920FB60F9211240BB6DA
:102CF0000F922F933F934F935F936F937F938F9395
:102D00009F93AF93BF93EF93FF930E944116FF9160
:102D1000EF91BF91AF919F918F917F916F915F9153
:102D20004F913F912F910F900BBE0F900FBE0F90C0
:102D30001F9018951F920F920FB60F9211240BB689
:102D40000F922F933F934F935F936F937F938F9344
:102D50009F93AF93BF93EF93FF930E944116FF9110
:102D6000EF91BF91AF919F918F917F916F915F9103
:102D70004F913F912F910F900BBE0F900FBE0F9070
:102D80001F90189561E08AE00E94BE2380E00C94B9
:102D9000BF15893011F40C94C2168A3039F461E001
:102DA00089E00E94BE2381E00C94BF1508950E9423
:102DB0005222DC01CB01805F984DAF4FBF4F809313
:102DC000561790935717A0935817B0935917089513
:102DD000CF93DF93CDB7DEB72D970FB6F894DEBF54
:102DE0000FBECDBF67E677E1CE0101960E94AF0925
:102DF0008B819C8190935D1780935C178D819E8160
:102E0000AF81B88580935E1790935F17A09360178A
:102E1000B093611789859A85AB85BC8580936217CD
:102E200090936317A0936417B09365178D85809373
:102E3000661762E070E080E090E00E9483228AE5FD
:102E400097E10E94AB06882369F26BE772E085EE9A
:102E500097E10E947B2061E087E20E94BE230E94EE
:102E6000D7162D960FB6F894DEBF0FBECDBFDF91FB
:102E7000CF910895CF92DF92EF92FF92C0905617B4
:102E8000D0905717E0905817F09059170E9452228F
:102E900021E0C616D706E806F90608F020E0822FE2
:102EA000FF90EF90DF90CF900895CF93DF9380E471
:102EB0000E940B23EC0164E972E085EE97E10E9429
:102EC00054204AE050E0BE0185EE97E10E94472180
:102ED00081E0C43FD1400CF080E0DF91CF910895B4
:102EE000CF92DF92EF92FF920F931F93CF93DF93D6
:102EF0006BEA72E085EE97E10E9454200E94522214
:102F00006B017C012AE030E0AB01BC0185EE97E16A
:102F10000E94A021C0E0D0E081E40E940B23FE01CA
:102F2000EE0FFF1FEA5AF84F918380832196C11557
:102F300028E0D20789F780E090E00FEF13E0C0E0CF
:102F4000D0E0FC01EE0FFF1FDF01AA5AB84F2D9110
:102F50003C911197C217D30710F4CD91DC91EA5A36
:102F6000F84F208131812017310710F40081118141
:102F70000196811528E0920721F76CEC72E085EE4E
:102F800097E10E9454200E945222AB01BC014C19CF
:102F90005D096E097F092AE030E085EE97E10E9425
:102FA000A0216EEE72E085EE97E10E9454204AE087
:102FB00050E0B80185EE97E10E948A216BEF72E044
:102FC00085EE97E10E9454204AE050E0BE0185EE74
:102FD00097E10E948A2168E073E085EE97E10E9404
:102FE0005420C01BD10B4AE050E0BE0185EE97E1B2
:102FF0000E948A216BE173E085EE97E10E947B20BD
:1030000081E020915407309155072C173D0708F0B7
:1030100080E0DF91CF911F910F91FF90EF90DF90B3
:10302000CF9008950F931F93CF93DF93C0E0D0E02C
:1030300081E40E940B23FE01EE0FFF1FEA5AF84FB6
:10304000918380832196C11528E0D20789F780E01B
:1030500090E0CFEFD3E000E010E0FC01EE0FFF1FA7
:10306000DF01AA5AB84F2D913C911197021713070F
:1030700010F40D911C91EA5AF84F208131812C17E0
:103080003D0710F4C081D1810196811528E0920797
:1030900021F7C8018C1B9D0B9C01220F331F820F4F
:1030A000931F90935507809354076FE273E085EE6A
:1030B00097E10E9454204AE050E0B80185EE97E184
:1030C0000E948A2163E473E085EE97E10E94542018
:1030D0004AE050E0BE0185EE97E10E948A2167E553
:1030E00073E085EE97E10E9454206091540770913F
:1030F00055074AE050E085EE97E1DF91CF911F91AF
:103100000F910C948A21CF92DF92EF92FF920F934E
:103110001F93CF93DF936A017B0140FD0BC076952F
:10312000679557954795F901DC01119600E010E08D
:10313000980133C06FE673E085EE97E10E9454205A
:103140002AE030E0B701A60185EE97E10E94A021B8
:1031500006C069E973E085EE97E10E94542081E0A2
:1031600046C0ED0121979881C0EDC90FCA30D8F44F
:10317000808190E19C9F800D112480839C9180ED43
:10318000890F8A30F0F480818053980F90830F5F0D
:103190001F4F2F4F3F4F31961296041715072607E2
:1031A0003707F9F623C08FE9890F863010F4975559
:1031B00005C08FEB890F863060F697538081C0E1A0
:1031C000D9CF8FE9890F863018F480818755DDCFFC
:1031D0008FEB890F863018F480818753D6CF69E949
:1031E00073E085EE97E10E947B20B9CF80E0DF910C
:1031F000CF911F910F91FF90EF90DF90CF900895A6
:103200000F9300E020E040E060E089E797E10E9452
:10321000F51F00E128E048EA60EC83E797E10E94AF
:10322000F51F65E87AE187E697E10E94ED088AE5F7
:1032300097E10E94860749E062E376E08EE497E03A
:103240000E9417146EE477E087E796E00E947510FD
:10325000109249071092480710924A0781E0809324
:103260004B0710924D0710924C070F910895CF9382
:10327000DF9300D000D0CDB7DEB761E087E20E94D7
:10328000822361E089E00E94822361E08AE00E945B
:10329000822360E080E40E94822361E089E00E9452
:1032A000BE2361E08AE00E94BE2360E087E20E94C4
:1032B000BE230E94C21687E796E00E94FC11EDE64D
:1032C000F7E18EED80838DEA81838EEB82838FEE32
:1032D00083838EEF84838DEE85838AE00E94C916F6
:1032E0008AEE95E09A83898380917517909176177D
:1032F000A0917717B09178178B839C83AD83BE83A1
:10330000AE014F5F5F4F6DE677E188EF95E00E9479
:10331000000687E697E10E94A9080E94121840E87B
:1033200055E260E070E085EE97E10E944D1E63EB90
:1033300073E085EE97E10E94542068EF75E0CE01BE
:1033400001960E944406BE016F5F7F4F85EE97E1B4
:103350000E948D206FEC73E085EE97E10E9454206F
:103360004AE050E06AE070E085EE97E10E943F217C
:1033700065EF73E085EE97E10E947B2026960FB6FD
:10338000F894DEBF0FBECDBFDF91CF910895CF93EC
:10339000DF931F92CDB7DEB78AE597E10E94DC0686
:1033A000892B71F0198241E050E0BE016F5F7F4FC1
:1033B0008AE597E10E94E221892B11F0898101C001
:1033C0008FEF0F90DF91CF9108958AE597E10E94EA
:1033D000E706019639F062E070E080E090E00E943C
:1033E0008322F3CF8AE597E10E9422086FEF73E012
:1033F00085EE97E10E947B2060E087E20C94BE237B
:10340000BF92CF92DF92EF92FF920F931F93CF93D1
:10341000DF93CDB7DEB72A970FB6F894DEBF0FBEA5
:10342000CDBFEDB6FEB66AE174E08AE597E10E9491
:103430007B201A861F821886198641E050E0BE0163
:10344000665F7F4F8AE597E10E9401078C0181301A
:103450009105C1F446E050E0BE016F5F7F4F8AE501
:1034600097E10E94E2218C019E01295F3F4F46E0D7
:1034700050E060E070E0CE0101960E9483180630B3
:10348000110581F060E374E085EE97E10E9454201D
:103490004AE050E0B80185EE97E10E943F2160E5E7
:1034A00074E09CC08111EEC067E574E085EE97E1A1
:1034B0000E9454206A8570E0605371094AE050E030
:1034C00085EE97E10E9447216FE674E085EE97E173
:1034D0000E94542040E150E06F8185EE97E10E9408
:1034E0006C2161EB74E085EE97E10E94542040E18D
:1034F00050E0688585EE97E10E946C2161EB74E0F5
:1035000085EE97E10E94542040E150E0698585EE08
:1035100097E10E9473216DE774E085EE97E10E94C8
:1035200054204AE050E060E885EE97E10E94732164
:103530002DB73EB7205831090FB6F8943EBF0FBEE5
:103540002DBF0DB71EB70F5F1F4F40E850E0B80109
:103550008AE597E10E94E2218138910514F080E824
:1035600090E0AC0141505109662757FD6095762FD8
:1035700028EC36E0C8010E948318811183C081E0E5
:103580009A85903309F080E080934B07BE01695F14
:103590007F4F87E796E00E9406120E94C21668E8F5
:1035A00073E187E796E00E94361281111AC068EE37
:1035B00073E080E090E00E9483228AE00E94C916B6
:1035C00064E974E08AE597E10E947B206BEA74E08D
:1035D00085EE97E10E94542064E974E085EE97E15E
:1035E0004FC068EE73E080E090E00E9483228AE0A2
:1035F0000E94C91680914A078823F1F10091C806FC
:1036000010E0102F00278091C906080F111D63EBF1
:1036100074E08AE597E10E947B206BEA74E085EE16
:1036200097E10E94542063EB74E085EE97E10E94DD
:103630007B20B12C8B2D90E080179107B8F4FC0112
:10364000E653F94F6F018081803130F462EC74E011
:103650008AE597E10E94542040E150E0F601608144
:103660008AE597E10E946C21B394E4CF64EC74E0A6
:103670008AE597E10E94542066EC74E08AE597E1C0
:103680000E947B200FB6F894FEBE0FBEEDBE0FB6B3
:10369000F894FEBE0FBEEDBE2A960FB6F894DEBFBC
:1036A0000FBECDBFDF91CF911F910F91FF90EF9093
:1036B000DF90CF90BF9008958133B9F050F48033FC
:1036C000B1F56DED74E085EE97E10E947B200C94DE
:1036D000001A8233E1F0833351F56EE575E085EE33
:1036E00097E10E947B200C94121864EF74E085EE41
:1036F00097E10E947B200E947017882319F061E1F6
:1037000075E002C060E275E08AE597E114C06FE2FF
:1037100075E085EE97E10E947B200E945517882373
:1037200019F068E475E0F0CF63E575E0EDCF60E88F
:1037300075E085EE97E10C947B200E94E8168AE5FF
:1037400097E10E946408882301F10E943A178823B8
:1037500039F069E975E085EE97E10E947B2015C09C
:103760000E94C7198F3F71F464EB75E085EE97E115
:103770000E9454204AE050E06FEF85EE97E10E94EE
:10378000732103C00E945C1BDACF0C94E5190E94E0
:10379000A9220E9437190E949D1BFDCFFC012485A0
:1037A0003585F901E05CFF4F80819181329620815F
:1037B0003181805C9F4F821B930B60E470E00E941C
:1037C000EE230895DC011C96ED91FC911D97DF011D
:1037D000A05CBF4F2D913C91119712968D919C91B9
:1037E00011972817390739F08D919C91E80FF91F2F
:1037F000808190E008958FEF9FEF0895FC01A485EC
:10380000B585FD01E05CFF4F2081318132968081DA
:1038100091812817390779F080819181A80FB91F0C
:103820008C91208131812F5F3F4F2F73332731835C
:10383000208390E008958FEF9FEF0895FC0181A110
:10384000882329F0A489B5898C9186FFFBCF11A22A
:1038500008950F931F93CF93DF93FC01A685B7853F
:103860008D01005C1F4FE8018881998101968F735B
:103870009927AD014E5B5F4FEA012881398182179C
:103880009307D1F3E80128813981A20FB31F6C930C
:10389000A685B785A05CBF4F11969C938E93A68991
:1038A000B7892C9181E090E0078C02C0880F991FA6
:1038B0000A94E2F7822B8C9381E081A30488F58936
:1038C000E02D80818064808381E090E0DF91CF9162
:1038D0001F910F910895FB01E05CFF4F2081318122
:1038E0002F5F3F4F2F733327DB01AE5BBF4F4D91EF
:1038F0005C912417350741F040815181DB01A40F11
:10390000B51F8C933183208308951F920F920FB6B9
:103910000F9211240BB60F922F933F934F935F9307
:103920006F937F938F939F93AF93BF93EF93FF9387
:103930008091C00082FD07C08091C60063EE79E1EE
:103940000E946B1C02C08091C600FF91EF91BF9155
:10395000AF919F918F917F916F915F914F913F9127
:103960002F910F900BBE0F900FBE0F901F901895C8
:103970001F920F920FB60F9211240BB60F922F9336
:103980003F934F935F936F937F938F939F93AF93E7
:10399000BF93EF93FF938091C80082FD07C0809191
:1039A000CE006BE579E10E946B1C02C08091CE00D5
:1039B000FF91EF91BF91AF919F918F917F916F9107
:1039C0005F914F913F912F910F900BBE0F900FBEC3
:1039D0000F901F9018951F920F920FB60F921124FF
:1039E0000BB60F922F933F934F935F936F937F93F9
:1039F0008F939F93AF93BF93EF93FF938091D000EA
:103A000082FD07C08091D60063ED78E10E946B1CB7
:103A100002C08091D600FF91EF91BF91AF919F912D
:103A20008F917F916F915F914F913F912F910F9067
:103A30000BBE0F900FBE0F901F9018951F920F9204
:103A40000FB60F9211240BB60F922F933F934F9303
:103A50005F936F937F938F939F93AF93BF93EF93F6
:103A6000FF938091300182FD07C0809136016BE4A5
:103A700078E10E946B1C02C080913601FF91EF91AA
:103A8000BF91AF919F918F917F916F915F914F9176
:103A90003F912F910F900BBE0F900FBE0F901F9074
:103AA00018951F920F920FB60F9211240BB60F921A
:103AB0002F933F938F939F93EF93FF932091DF1961
:103AC0003091E0198091E1199091E2192817390796
:103AD00031F48091C1008F7D8093C10014C0E091CA
:103AE000E119F091E219E156F64E20818091E11939
:103AF0009091E21901968F7399279093E219809320
:103B0000E1192093C600FF91EF919F918F913F9112
:103B10002F910F900BBE0F900FBE0F901F90189516
:103B20001F920F920FB60F9211240BB60F922F9384
:103B30003F938F939F93EF93FF9320915719309169
:103B400058198091591990915A192817390731F449
:103B50008091C9008F7D8093C90014C0E0915919EC
:103B6000F0915A19E95EF64E208180915919909191
:103B70005A1901968F73992790935A19809359195E
:103B80002093CE00FF91EF919F918F913F912F91C4
:103B90000F900BBE0F900FBE0F901F9018951F92A5
:103BA0000F920FB60F9211240BB60F922F933F93E3
:103BB0008F939F93EF93FF932091CF183091D0185C
:103BC0008091D1189091D2182817390731F480913B
:103BD000D1008F7D8093D10014C0E091D118F09175
:103BE000D218E157F74E20818091D1189091D218C8
:103BF00001968F7399279093D2188093D1182093B0
:103C0000D600FF91EF919F918F913F912F910F904F
:103C10000BBE0F900FBE0F901F9018951F920F9222
:103C20000FB60F9211240BB60F922F933F938F93E1
:103C30009F93EF93FF9320914718309148188091FC
:103C4000491890914A182817390731F480913101A9
:103C50008F7D8093310114C0E0914918F0914A188A
:103C6000E95FF74E20818091491890914A1801969A
:103C70008F73992790934A1880934918209336019F
:103C8000FF91EF919F918F913F912F910F900BBEDC
:103C90000F900FBE0F901F901895CF92DF92EF926A
:103CA000FF920F931F93CF93DF93EC016A017B0187
:103CB000411581EE58076105710511F1EC89FD8907
:103CC00081E090E008A002C0880F991F0A94E2F7F3
:103CD000808360E079E08DE390E0A70196010E9487
:103CE000022489019A0101501109210931093695EF
:103CF0002795179507959801011580E11807A8F0F9
:103D0000EC89FD89108260E874E88EE190E0A701FB
:103D100096010E940224DA01C9010197A109B109A3
:103D2000B695A795979587959C01E889F989308381
:103D3000EA89FB89208319A2EE89FF89408181E00D
:103D400090E09C010C8C02C0220F331F0A94E2F712
:103D5000242B2083EE89FF8940819C010D8C02C0B9
:103D6000220F331F0A94E2F7242B2083EE89FF8968
:103D700040819C010E8C02C0220F331F0A94E2F78F
:103D8000242B2083EE89FF8920810F8C02C0880FAD
:103D9000991F0A94E2F7809582238083DF91CF9167
:103DA0001F910F91FF90EF90DF90CF900895CF92E9
:103DB000DF92EF92FF92E5EEF7E11382128288EE36
:103DC000C82E83E0D82EE12CF12CC482D582E68265
:103DD000F7826AED75E07183608383EE99E19587E0
:103DE00084878FE999E19787868785EC90E0918BAE
:103DF000808B84EC90E0938B828B80EC90E0958BB1
:103E0000848B81EC90E0978B868B82EC90E0918F95
:103E1000808F86EC90E0938F828F44E0448F33E074
:103E2000358F27E0268F95E0978F81E080A3E3EC24
:103E3000F7E113821282C482D582E682F78271830F
:103E40006083ABE5B9E1B587A487A7E1B9E1B7879E
:103E5000A687ADECB0E0B18BA08BACECB0E0B38B3F
:103E6000A28BA8ECB0E0B58BA48BA9ECB0E0B78B2B
:103E7000A68BAAECB0E0B18FA08FAEECB0E0B38F10
:103E8000A28F448F358F268F978F80A3E1EAF7E1C9
:103E900013821282C482D582E682F78271836083A4
:103EA000A3EDB8E1B587A487AFE8B8E1B787A687E7
:103EB000A5EDB0E0B18BA08BA4EDB0E0B38BA28BED
:103EC000A0EDB0E0B58BA48BA1EDB0E0B78BA68BD5
:103ED000A2EDB0E0B18FA08FA6EDB0E0B38FA28FBE
:103EE000448F358F268F978F80A3EFE7F7E11382FA
:103EF0001282C482D582E682F782718360836BE48A
:103F000078E17587648767E078E17787668765E39E
:103F100071E0718B608B64E371E0738B628B60E3A3
:103F200071E0758B648B61E371E0778B668B62E384
:103F300071E0718F608F66E371E0738F628F448FE1
:103F4000358F268F978F80A3FF90EF90DF90CF90D3
:103F500008958F929F92AF92BF92CF92DF92EF928D
:103F6000FF920F931F93CF93DF937C018B016C0122
:103F700082E0C80ED11C4701E5E08E0E911CC0E026
:103F8000D0E0F60161916F014AE050E0C8010E9463
:103F90006C215C016EE2C8010E9456208A0D9B1DB7
:103FA000C80FD91FC814D90461F74AE050E0F701DF
:103FB0006581C8010E946C218C0F9D1FDF91CF91FC
:103FC0001F910F91FF90EF90DF90CF90BF90AF9037
:103FD0009F908F9008952AEE35E0FC013183208375
:103FE000128213821482158208950F93FC018AEEC7
:103FF00095E09183808362834383248305830F91BB
:104000000895FB014081518162817381FC014283EB
:104010005383648375830895E7E2FAE18AEE95E0BD
:104020009183808312821382148215820895CF9225
:10403000DF92EF92FF920F931F93CF93DF936C0168
:10404000EB017B01E40EF51E00E010E0CE15DF056C
:1040500061F06991D601ED91FC910190F081E02D24
:10406000C6011995080F191FF1CFC801DF91CF9133
:104070001F910F91FF90EF90DF90CF900895611501
:10408000710579F0FB0101900020E9F73197AF014C
:10409000461B570BDC01ED91FC910280F381E02D72
:1040A000199480E090E008950C943F20DC01ED919C
:1040B000FC910190F081E02D1994DB01ED91FC91D0
:1040C00011970190F081E02DBC01CD0119940F935F
:1040D0001F93CF93DF93EC016DE00E9456208C017B
:1040E0006AE0CE010E945620800F911FDF91CF9190
:1040F0001F910F9108950F931F93CF93DF93EC01BE
:104100000E943F208C01CE010E946720800F911FEA
:10411000DF91CF911F910F9108950F931F93CF932C
:10412000DF93EC010E945D208C01CE010E9467208C
:10413000800F911FDF91CF911F910F9108958F9262
:104140009F92AF92BF92CF92DF92EF92FF920F9326
:104150001F93CF93DF93CDB7DEB7A1970FB6F89437
:10416000DEBF0FBECDBF6C01142FE52FCB01022F98
:1041700019A2223008F40AE07E0121E2E20EF11CCD
:10418000802E912CA12CB12C612F7E2FA5019401A2
:104190000E940224029F1019112481E0E81AF108FC
:1041A0001A3014F4105D01C0195CF7011083122F4E
:1041B000E32FCA01232B242B252B31F7B701C6018E
:1041C0000E943F20A1960FB6F894DEBF0FBECDBF70
:1041D000DF91CF911F910F91FF90EF90DF90CF90E3
:1041E000BF90AF909F908F900895CF92DF92EF9203
:1041F000FF920F931F93CF93DF93EC016A017B0132
:104200002115310579F4E881F9810190F081E02DE3
:10421000642FDF91CF911F910F91FF90EF90DF906E
:10422000CF9019942A303105E9F477FF1AC06DE276
:104230000E9456208C0144275527BA014C195D096C
:104240006E097F092AE0CE010E949F20800F911FF6
:10425000DF91CF911F910F91FF90EF90DF90CF9062
:1042600008952AE0B701A601CE01DF91CF911F91F9
:104270000F91FF90EF90DF90CF900C949F209A01C8
:10428000AB01662757FD6095762F0C94F5200F93B0
:104290001F93CF93DF93EC019A01AB01662757FD83
:1042A0006095762F0E94F5208C01CE010E94672038
:1042B000800F911FDF91CF911F910F9108952115CC
:1042C000310541F4DC01ED91FC910190F081E02D8C
:1042D000642F19940C949F209A01462F50E060E0BF
:1042E00070E00C945F210F931F93CF93DF93EC0149
:1042F0009A01462F50E060E070E00E945F218C013F
:10430000CE010E946720800F911FDF91CF911F91F6
:104310000F9108950F931F93CF93DF93EC019A01B0
:10432000AB0160E070E00E945F218C01CE010E9431
:104330006720800F911FDF91CF911F910F910895FA
:104340000F931F93CF93DF93EC010E945F218C01A9
:10435000CE010E946720800F911FDF91CF911F91A6
:104360000F9108950F931F93CF93DF93EC010E9459
:104370005222688779878A879B87E881F98106803E
:10438000F781E02DCE01199597FF17C00E945222A8
:10439000088519852A853B85DC01CB01801B910BA3
:1043A000A20BB30B0C811D812E813F8180179107D9
:1043B000A207B30710F38FEF9FEFDF91CF911F910B
:1043C0000F910895CF92DF92EF92FF920F931F9378
:1043D000CF93DF936C017A018B01C0E0D0E0CE1562
:1043E000DF0561F0C6010E94B22197FF02C07E0185
:1043F00005C0F80181938F012196F1CFC701DF91AC
:10440000CF911F910F91FF90EF90DF90CF90089583
:104410001F920F920FB60F9211242F933F938F93F9
:104420009F93AF93BF9380912E1A90912F1AA091D2
:10443000301AB091311A30912D1A23E0230F2D3705
:1044400020F40196A11DB11D05C026E8230F029698
:10445000A11DB11D20932D1A80932E1A90932F1A0F
:10446000A093301AB093311A8091321A9091331A76
:10447000A091341AB091351A0196A11DB11D8093F7
:10448000321A9093331AA093341AB093351ABF910D
:10449000AF919F918F913F912F910F900FBE0F90F1
:1044A0001F9018952FB7F89460912E1A70912F1ABB
:1044B0008091301A9091311A2FBF08953FB7F89428
:1044C0008091321A9091331AA091341AB091351A12
:1044D00026B5A89B05C02F3F19F00196A11DB11D5F
:1044E0003FBFBA2FA92F982F8827820F911DA11D9A
:1044F000B11DBC01CD0142E0660F771F881F991FD7
:104500004A95D1F70895CF92DF92EF92FF92CF9321
:10451000DF936B017C010E945E22EB01C114D10488
:10452000E104F10479F00E945E226C1B7D0B683E71
:104530007340A0F381E0C81AD108E108F108C8511E
:10454000DC4FECCFDF91CF91FF90EF90DF90CF90D9
:104550000895789484B5826084BD84B5816084BDFB
:1045600085B5826085BD85B5816085BDEEE6F0E0EC
:10457000808181608083E1E8F0E010828081826048
:104580008083808181608083E0E8F0E080818160C9
:104590008083E1EBF0E0808184608083E0EBF0E0F9
:1045A000808181608083E1E9F0E0808182608083A6
:1045B000808181608083E0E9F0E080818160808398
:1045C000E1EAF0E080818260808380818160808385
:1045D000E0EAF0E0808181608083E1E2F1E08081C7
:1045E00082608083808181608083E0E2F1E080816D
:1045F00081608083EAE7F0E080818460808380814D
:1046000082608083808181608083808180688083F4
:104610001092C1000895863308F0865390917B0074
:10462000282F2870977F922B90937B008770209182
:10463000020290E4299F90011124822B80937C0038
:1046400080917A00806480937A0080917A0086FD60
:10465000FCCF809178002091790090E0922B089512
:1046600090E0FC013197E131F10508F04AC088275C
:10467000EE58FF4F8F4F0C942424809180008F7749
:1046800003C0809180008F7D80938000089584B561
:104690008F7702C084B58F7D84BD08958091B0006E
:1046A0008F7703C08091B0008F7D8093B000089514
:1046B000809190008F7707C0809190008F7D03C01C
:1046C00080919000877F8093900008958091A00052
:1046D0008F7707C08091A0008F7D03C08091A000DC
:1046E000877F8093A0000895809120018F7707C075
:1046F000809120018F7D03C080912001877F80936E
:1047000020010895CF93DF9390E0FC01E05AFD4F24
:104710002491FC01EA55FD4F8491882361F190E0DA
:10472000880F991FFC01EA5FFC4FC591D491FC01F1
:10473000E451FD4FA591B491611109C09FB7F89460
:104740008881209582238883EC912E230BC06230D0
:1047500061F49FB7F8943881822F809583238883F2
:10476000EC912E2B2C939FBF06C08FB7F894E88155
:104770002E2B28838FBFDF91CF9108951F93CF9366
:10478000DF93282F30E0F901E65EFD4F8491F901B7
:10479000E05AFD4FD491F901EA55FD4FC491CC2365
:1047A000C9F0162F81110E943023EC2FF0E0EE0F9C
:1047B000FF1FE451FD4FA591B4918FB7F8941111EB
:1047C00005C09C91ED2FE095E92302C0EC91ED2B03
:1047D000EC938FBFDF91CF911F91089597FB072E28
:1047E00016F4009407D077FD09D00E942C2407FC12
:1047F00005D03EF4909581959F4F089570956195F1
:104800007F4F0895A1E21A2EAA1BBB1BFD010DC00C
:10481000AA1FBB1FEE1FFF1FA217B307E407F50770
:1048200020F0A21BB30BE40BF50B661F771F881F4C
:10483000991F1A9469F760957095809590959B01E2
:10484000AC01BD01CF010895EE0FFF1F881F8BBF84
:104850000790F691E02D1994AA1BBB1B51E107C0EC
:10486000AA1FBB1FA617B70710F0A61BB70B881F00
:10487000991F5A95A9F780959095BC01CD0108958F
:10488000FB01DC0104C08D910190801921F441509D
:104890005040C8F7881B990B0895FB01DC0102C04A
:1048A00001900D9241505040D8F70895F894FFCFF1
:1048B000000401000F20005400FF0406E104008002
:1048C00000000007D27600008501010000FF00FF14
:1048D00000000000007E06BE06DC06E70605079421
:1048E00006B6072807010722086408AB06B306745A
:1048F000060000000093085809A908000000004ABB
:104900000A930A460AA70AEF0A600A5B0B720A8733
:104910000AAD0B8F0A080BD00A2B0A320A420A0092
:10492000000000F113011480153914444542554725
:104930003A20636C69656E7420636F6E6E65637494
:104940006564210044454255473A206C69676874A4
:104950002073656E736F72203D20004445425547B9
:104960003A20737461727420766962206D65617398
:104970007572656D656E7420617420004445425502
:10498000473A20656E6420766962206D65617375B3
:1049900072656D656E742061667465722000494EA3
:1049A000464F3A206D696E203D2000494E464F3AF1
:1049B000206D6178203D2000494E464F3A206D61C0
:1049C00078202D206D696E203D20004445425547DA
:1049D0003A20646F6E652073656E64696E6700448B
:1049E000454255473A206D61785F76616C75652068
:1049F0003D200044454255473A206D696E5F76611F
:104A00006C7565203D200044454255473A206E654F
:104A100077207468726573686F6C64203D20004570
:104A200052524F523A20696E76616C6964207374F9
:104A300072696E67206C656E67746820746F20639E
:104A40006F6E766572743A20004552524F523A208A
:104A5000696E76616C696420686578207374726928
:104A60006E6700494E464F3A207365727665722034
:104A7000737461727465642E204950203D20004992
:104A80004E464F3A20636F6E6E656374696F6E2099
:104A900077696C6C2074696D65206F757420616630
:104AA0007465722000207365636F6E647321004427
:104AB000454255473A20636C69656E74206469739A
:104AC000636F6E6E65637465640053544152544560
:104AD000445F4E46435F454D554C4154494F4E004F
:104AE0004552524F523A20656D756C6174654E6641
:104AF000635461673A207265636569766564200076
:104B00002062797465730044454255473A207461C8
:104B10006720777269746561626C65203D2000448E
:104B2000454255473A20756964203D20004445427E
:104B300055473A206D6178206E646566206C656E1D
:104B4000203D200054494D45444F55545F4E464347
:104B50005F454D554C4154494F4E004552524F52BE
:104B60003A20004E4445465F4D4F4449464945442E
:104B70003A0030000A0046494E49534845445F4ECA
:104B800046435F454D554C4154494F4E00444542C4
:104B900055473A206E66632074616720656D756CB9
:104BA0006174650044454255473A207669627261F6
:104BB00074696F6E206D6561737572656D656E7475
:104BC0000031564942524154494F4E5F454E4400D0
:104BD00030564942524154494F4E5F454E4400447D
:104BE000454255473A206C69676874206D6561736A
:104BF0007572656D656E7400314C494748545F4568
:104C00004E4400304C494748545F454E44004445AB
:104C10004255473A2063616C69627261746520761F
:104C20006962726174696F6E2073656E736F720072
:104C30005741524E494E473A20756E6B6E6F776EF4
:104C400020636F6D6D616E64004552524F523A2081
:104C5000636F6E6E656374696F6E2074696D656FE6
:104C6000757421004552524F523A20696E76616C3C
:104C7000696420636F6D6D616E6420726563656940
:104C80007665643A200000000000291C1720CE1B26
:0C4C9000FE1BE21B1E1C00000000A91F00
:00000001FF
