:100000002AC1000059C1000057C1000055C10000BD
:1000100053C1000051C100004FC100004DC100009C
:100020004BC1000049C1000047C1000045C10000AC
:1000300043C1000041C100003FC100003DC10000BC
:100040003BC1000039C1000037C1000035C10000CC
:1000500033C1000031C100002FC100000C94941F77
:100060002BC100000C94FB220C94312325C100000D
:1000700023C1000021C100001FC100001DC10000FC
:100080001BC1000019C1000017C1000015C100000C
:1000900013C1000011C100000FC100000DC100001C
:1000A0000BC1000009C1000007C1000005C100002C
:1000B00003C1000001C10000FFC00000FDC000003E
:1000C000FBC00000F9C00000F7C00000F5C0000050
:1000D000F3C00000F1C00000EFC00000EDC0000060
:1000E000EBC00000E320E620D520D920DF201D2131
:1000F000EA20EE20F420F820FC20022106210A212B
:100100001D211021142118215741524E494E473AC2
:1001100020546F6F206D616E79207265636F726419
:10012000732E20496E637265617365204D41585F7F
:100130004E4445465F5245434F5244532E00000003
:100140000A0B02090C0D0E08070304010000000051
:10015000000000000000000000000000000000009F
:10016000000000000000000000001211100000005C
:10017000000000000000000000000000000000007F
:10018000000000000102102020080810204010206C
:10019000408002010201080402010102040810204B
:1001A0004080804020100804020180040201804049
:1001B00020100804020108040201010204081020B2
:1001C0004080010204081020408005050505070550
:1001D00008080808020202020A0A080804040404C3
:1001E00001010101010101010303030303030303EF
:1001F000040707070C0C0C0C0C0C0C0C020202027E
:1002000006060606060606060B0B0B0B0B0B0B0B66
:1002100000002200250028002B002E0031003400B1
:1002200002010000050108010B010000210024006B
:1002300027002A002D0030003300010100000401D6
:1002400007010A012004FF064A07830B630DE70E2E
:1002500032116323FE2311241FBECFEFD1E2DEBF94
:10026000CDBF00E00CBF16E0A0E0B2E0E4E5F3E5AE
:1002700000E00BBF02C007900D92A63CB107D9F772
:1002800027E1A6ECB6E001C01D92A23FB207E1F75C
:1002900012E0C6E5D2E000E006C022970109FE01A7
:1002A0000BBF0E945927C434D10780E00807A9F783
:1002B0000E9410270C94A829A3CE61E08AE00E9436
:1002C00057218CB580628CBD0895893009F4F5CF33
:1002D0008A3039F461E089E00E9457218CB58F7D26
:1002E0008CBD08950E94DE1F605F784D8F4F9F4F39
:1002F0006093CE167093CF168093D0169093D1163C
:100300000895CF93DF93CDB7DEB72D970FB6F8944E
:10031000DEBF0FBECDBF6FED76E1CE0101960E942C
:100320007F0E8B819C819093D5168093D4168D81FE
:100330009E81AF81B8858093D6169093D716A093EF
:10034000D816B093D91689859A85AB85BC858093DC
:10035000DA169093DB16A093DC16B093DD168D852C
:100360008093DE1662E070E080E090E00E940D2055
:1003700082ED96E10E94B60B882369F267E572E090
:100380008BE497E10E94932461E087E20E94572169
:10039000A9DF2D960FB6F894DEBF0FBECDBFDF915B
:1003A000CF910895CF92DF92EF92FF92C090CE1638
:1003B000D090CF16E090D016F090D1160E94DE1F9C
:1003C00021E0C616D706E806F90608F020E0822FDD
:1003D000FF90EF90DF90CF900895CF93DF9380E46C
:1003E0000E94A620EC0160E772E08BE497E10E9496
:1003F0006E244AE050E0BE018BE497E10E945E2546
:1004000081E0C43FD1400CF080E0DF91CF910895AE
:10041000CF92DF92EF92FF920F931F93CF93DF93D0
:1004200067E872E08BE497E10E946E240E94DE1F71
:100430006B017C012AE030E0AB01BC018BE497E169
:100440000E94AF25C0E0D0E081E40E94A620FE011A
:10045000EE0FFF1FE253F94F918380832196C11560
:1004600028E0D20789F780E090E0CFEFD3E000E00A
:1004700010E0FC01EE0FFF1FDF01A253B94F2D91D9
:100480003C9111970217130710F40D911C91E25340
:10049000F94F208131812C173D0710F4C081D181A3
:1004A0000196811528E0920721F768EA72E08BE453
:1004B00097E10E946E240E94DE1FAB01BC014C1923
:1004C0005D096E097F092AE030E08BE497E10E9424
:1004D000AF256AEC72E08BE497E10E946E244AE05B
:1004E00050E0BE018BE497E10E949B2567ED72E02E
:1004F0008BE497E10E946E244AE050E0B8018BE45F
:1005000097E10E949B2564EE72E08BE497E10E94E4
:100510006E240C1B1D0B4AE050E0B8018BE497E100
:100520000E949B2567EF72E08BE497E10E94932481
:1005300081E02091CC063091CD062017310708F0DC
:1005400080E0DF91CF911F910F91FF90EF90DF90AE
:10055000CF9008950F931F93CF93DF93C0E0D0E027
:1005600081E40E94A620FE01EE0FFF1FE253F94F27
:10057000918380832196C11528E0D20789F780E016
:1005800090E0CFEFD3E000E010E0FC01EE0FFF1FA2
:10059000DF01A253B94F2D913C9111970217130718
:1005A00010F40D911C91E253F94F208131812C17E9
:1005B0003D0710F4C081D1810196811528E0920792
:1005C00021F798012C1B3D0BC901880F991F820F41
:1005D000931F9093CD068093CC066BE073E08BE481
:1005E00097E10E946E244AE050E0B8018BE497E165
:1005F0000E949B256FE173E08BE497E10E946E24DB
:100600004AE050E0BE018BE497E10E949B2563E342
:1006100073E08BE497E10E946E246091CC067091A8
:10062000CD064AE050E08BE497E1DF91CF911F9136
:100630000F910C949B25AF92BF92CF92DF92EF92D5
:10064000FF920F931F93CF93DF93CDB7DEB7A89799
:100650000FB6F894DEBF0FBECDBF6BE473E08BE442
:1006600097E10E946E245E0189E2A80EB11C8E0102
:100670000F5F1F4FE12CF12C86E30E94A6206C0136
:10068000F801819391938F0164E670E080E090E03F
:100690000E940D20EC0CFD1C4AE050E0B6018BE4FA
:1006A00097E10E9457256DE976E08BE497E10E947F
:1006B0006E240A151B0501F7C70164E170E00E9472
:1006C0001E27FE01319680E090E021913191261B9A
:1006D000370B229FA001239F500D500D1124840F32
:1006E000951FEA15FB0589F764E170E00E941E275B
:1006F0008B016DE976E08BE497E10E94932467E635
:1007000073E08BE497E10E946E244AE050E0B80168
:100710008BE497E10E945E2581E0033011050CF423
:1007200080E0A8960FB6F894DEBF0FBECDBFDF9174
:10073000CF911F910F91FF90EF90DF90CF90BF90DE
:10074000AF900895CF92DF92EF92FF92CF93DF9315
:100750006A017B0140FD0AC0F694E794D794C794E0
:10076000F901EC0180E090E0DC0135C069E773E05D
:100770008BE497E10E946E242AE030E0B701A601E5
:100780008BE497E10E94AF250BC063EA73E08BE432
:1007900097E10E946E2468818BE497E10E94A32474
:1007A00081E047C0288130ED320F3A30D0F420810B
:1007B00040E1349F200D11242083298130ED320F38
:1007C0003A3008F530813053320F30830196A11D45
:1007D000B11D319622968C159D05AE05BF0511F70A
:1007E00027C03FE9320F363010F4275505C03FEBE4
:1007F000320F363050F62753308140E1249F300DC0
:1008000011243083DACF3FE9320F363018F43081CB
:100810003755DACF3FEB320F363018F4308137538B
:10082000D3CF60EC73E08BE497E10E949324B8CFC0
:1008300080E0DF91CF91FF90EF90DF90CF9008950F
:100840000F9300E020E040E060E081EF96E10E943D
:10085000E72309E028E048EA60EC8BEE96E10E948D
:10086000E72365E87AE18FED96E10E94C40D82ED01
:1008700096E10E94860C49E06BEF76E186EC96E00B
:100880000F910C949F17CF93DF9300D000D0CDB77A
:10089000DEB761E087E20E941E2161E08AE00E94EB
:1008A0001E2160E080E40E941E2161E08AE00E9437
:1008B000572160E087E20E945721FFDC8EED809394
:1008C000E5168DEA8093E6168EEB8093E7168FEEA1
:1008D0008093E8168EEF8093E9168DEE8093EA16EA
:1008E0008AE0F3DC83EB96E09A8389838091ED16AE
:1008F0009091EE16A091EF16B091F0168B839C8329
:10090000AD83BE83AE014F5F5F4F65EE76E188E059
:1009100097E196D68FED96E10E94840D1BDE26E0CE
:1009200040E855E260E070E08BE497E10E949B2292
:100930006BED73E08BE497E10E946E2468E077E151
:10094000CE010196BAD6BE016F5F7F4F8BE497E16F
:100950000E94B32467EF73E08BE497E10E946E245A
:100960004AE050E06AE070E08BE497E10E9457258E
:100970006DE174E08BE497E10E94932426960FB614
:10098000F894DEBF0FBECDBFDF91CF910895CF9316
:10099000DF931F92CDB7DEB782ED96E113D7892B97
:1009A00011F48FEF0DC0198241E050E0BE016F5F7E
:1009B0007F4F82ED96E10E94EB25892B91F389818F
:1009C0000F90DF91CF91089582ED96E103D70196C4
:1009D00039F062E070E080E090E00E940D20F4CFFA
:1009E00082ED96E10E94090D67E274E08BE497E1E5
:1009F0000E94932460E087E20C945721CF92DF920B
:100A0000EF92FF920F931F93CF93DF93CDB7DEB793
:100A1000C55CD1400FB6F894DEBF0FBECDBFCDB6DA
:100A2000DEB666EC76E0CE0101960E941419CE5235
:100A3000DF4F19821882C25DD040CC52DF4F18823E
:100A4000C45DD04081E0CB52DF4F8883C55DD0408C
:100A5000CA52DF4F19821882C65DD040CE0101967E
:100A60000E94A01A8E0108521F4F88E7F8011192C8
:100A70008A95E9F7CE018A579E4F0E94A71CCB5357
:100A8000DE4F1882C55CD140CE53DE4F18821982EA
:100A90001A82C25CD14041E050E0BE016B537E4FF0
:100AA00082ED96E1B0D67C0181309105C9F062E417
:100AB00074E08BE497E10E946E244AE050E0B701B5
:100AC0008BE497E10E94572562E674E08BE497E19E
:100AD0000E949324CE018A579E4F0E94C31CD0C00F
:100AE00046E050E0BE0164547E4F82ED96E10E94E4
:100AF000EB259E012E533E4F46E050E060E070E053
:100B0000CE0184549E4F1EDE69E674E08BE497E1CB
:100B10000E946E244AE050E060E48BE497E10E947A
:100B200086258DB79EB7805491090FB6F8949EBF65
:100B30000FBE8DBFEDB7FEB731967F0140E450E0A8
:100B4000BF0182ED96E10E94EB256DE774E08BE436
:100B500097E10E946E24B7018BE497E10E949324F1
:100B600081E0CB53DE4F9881C55CD140903309F0D2
:100B700080E0CB52DF4F8883C55DD0406CE874E0E5
:100B800082ED96E10E94932462EA74E08BE497E19F
:100B90000E949324CE01805B9E4F0E94A71CBE0141
:100BA000605B7E4FCE018A579E4F0E94D81CCE01BB
:100BB000805B9E4F0E94C31CB701CE01805B9E4F9D
:100BC0000E947926BE01605B7E4FCE018A579E4F00
:100BD0000E94B41DCE01805B9E4F0E941226CE0162
:100BE0008A579E4F0E943A1D7C018937910530F04B
:100BF0006FEB74E08BE497E10E94932464ED74E062
:100C00008BE497E10E946E244AE050E0B7018BE448
:100C100097E10E945E25B801CE018A579E4F0E943F
:100C2000621DA701B801CE0101960E94A81ABE015B
:100C30006E537E4FCE0101960E94B61ACE010196E8
:100C40000E94A01A68E873E1CE0101960E94E61A9C
:100C500068E873E1CE0101960E94E61A811106C090
:100C600060EF74E08BE497E10E949324CE018A57F1
:100C70009E4F0E94C31C0FB6F894DEBE0FBECDBEC1
:100C80000FB6F894DEBE0FBECDBECB53DE4F0FB60F
:100C9000F894DEBF0FBECDBFDF91CF911F910F91B2
:100CA000FF90EF90DF90CF900895823309F128F400
:100CB000803341F0813369F042C0833341F18433A2
:100CC00069F13DC06AEF74E08BE497E10E949324E0
:100CD00095CE61E175E08BE497E10E94932498DB67
:100CE000882319F06EE275E027C06DE375E024C03B
:100CF0006CE475E08BE497E10E9493246EDB88231B
:100D000019F065E675E018C060E775E015C06BE79F
:100D100075E08BE497E10E9493241CCC6DE975E0AB
:100D20008BE497E10E94932486DC882319F06CEB16
:100D300075E002C067EC75E082ED96E104C062EDFB
:100D400075E08BE497E10C949324DBDA82ED96E175
:100D500097D68823E9F026DB882339F06BEE75E01F
:100D60008BE497E10E94932413C011DE8F3F71F44E
:100D700066E076E08BE497E10E946E244AE050E062
:100D80006FEF8BE497E10E94862502C08EDFDECFF5
:100D90001BCECF93CFB7F8948091FA16811127C05C
:100DA000EFEFF1E08491E9EBF1E09491E82FF0E0CE
:100DB000EE0FFF1FE65DFD4FA591B4918C91892345
:100DC00021F461E085E30E94572161E085E30E9400
:100DD0001E218CB580618CBD8CB580648CBD61E0BA
:100DE00084E30E941E2161E083E30E941E21809122
:100DF000FA168F5F8093FA16CFBFCF9108950F93A5
:100E000000E020E040E060E08CEF96E10E94E72304
:100E10000F910895FB014281538164817581FC012A
:100E20004283538364837583178216820895FB017E
:100E300020E080E090E06AE03191332309F170ED29
:100E4000730F7A3080F4DC016A9FC0016B9F900DB4
:100E50001124C097830F911D37FD9A958F3F9105FF
:100E600059F350F314C03E3291F4233081F0DA018B
:100E7000A20FB11D12968C932F5F80E090E0DCCF23
:100E8000233029F4FA01858381E090E0089580E021
:100E900090E008950F9300E020E040E060E082E001
:100EA00097E10E94E7230F910895AF92BF92CF92EE
:100EB000DF92EF92FF920F931F93CF93DF9300D0B7
:100EC0001F921F92CDB7DEB78C017B010E94DE1FFF
:100ED000F801778366837627672776277A83698385
:100EE000085F1F4F42E050E0BE016F5F7F4FC801B7
:100EF000CDD781E090E09C838B8342E050E0BE013F
:100F00006D5F7F4FC801C2D780E091E09C838B83E7
:100F100042E050E0BE016D5F7F4FC801B7D71C8231
:100F20001B8242E050E0BE016D5F7F4FC801AED72B
:100F300042E050E0BE016D5F7F4FC801A7D742E09D
:100F400050E0BE016D5F7F4FC801A0D76701F60179
:100F50008081882301F1F7016F018191811113C014
:100F60005601AE18BF081A141B0484F4AD8241E088
:100F700050E0BE016B5F7F4FC80188D7A501B70164
:100F8000C80184D703C08E3239F7EACF7601FFEF6C
:100F9000EF1AFF0ADCCF1D8241E050E0BE016B5F1B
:100FA0007F4FC80173D7E12CFF24F394FC82EB82BE
:100FB00042E050E0BE016D5F7F4FC80167D7FC8201
:100FC000EB8242E050E0BE016D5F7F4FC8015ED70B
:100FD00081E090E00F900F900F900F900F90DF91B5
:100FE000CF911F910F91FF90EF90DF90CF90BF9026
:100FF000AF9008954F925F926F927F928F929F92DF
:10100000AF92BF92CF92DF92EF92FF920F931F9316
:10101000CF93DF93CDB7DEB763970FB6F894DEBFFB
:101020000FBECDBF7C015B016A010E94DE1F2B0158
:101030003C018701085F1F4F4501A12CB12CC8015D
:10104000BFD71816190694F00E94DE1F641975099F
:101050008609970986169706A806B906D0F062E3B6
:1010600070E080E090E00E940D20E9CFF70142811E
:10107000538164817581808D918DA28DB38D4817C8
:1010800059076A077B0741F4848D958DC59721F434
:1010900006C08FEF9FEFE1C08EEF9FEFDEC0C8016B
:1010A000BCD60C97E4F04CE050E0BE016F5F7F4F80
:1010B000C80127D76C818B810E940D269A8B898B62
:1010C000F701E680F7806A8189810E940D26E81683
:1010D000F90641F489899A8997FF04C008C08DEF09
:1010E0009FEFBBC0C801B3D68CEF9FEFB6C08F7027
:1010F0009270892B29F0C801AAD68BEF9FEFADC063
:1011000068858F810E940D265C01009719F0E12C03
:10111000F12C1DC0C8019BD68AEF9FEF9EC041E015
:1011200050E0BE01635F7F4FC801EBD68D85811112
:1011300016C08D858111F3CFC801BBD6C801B9D6C1
:10114000C801B7D6C801B5D6FFEFEF1AFF0A6E8106
:101150008D810E940D26E816F90608F309C08D85D9
:101160009FEF980F9D87882321F3C801A2D6F7CF60
:10117000E12CF12C41E050E0BE016D5E7F4FC801D3
:10118000C0D68B89982F907C59F4882361F08B8985
:101190009FEF980F9B8B882331F0C8018AD6F7CF39
:1011A000C80187D61B8A8B898111E4CF42E050E0C9
:1011B000BE01615F7F4FC801A4D642E050E0BE018E
:1011C000635F7F4FC8019DD6C80173D6C80171D631
:1011D000C8016FD6C8016DD642E050E0BE016F5E17
:1011E0007F4FC8018ED68F8598898115914029F44B
:1011F0008D859E858115914019F0812C912C14C00C
:1012000089899A898115944029F0C80120D687EFF1
:101210009FEF23C0B6016E5F7F4F44E050E0C801EE
:1012200070D681E090E019C089899A89982789272A
:1012300098278816990630F4C8013BD62FEF821AFA
:10124000920AF2CF8FEFE81AF80AEA14FB0409F0C9
:1012500091CFC801FCD586EF9FEF63960FB6F89447
:10126000DEBF0FBECDBFDF91CF911F910F91FF90D9
:10127000EF90DF90CF90BF90AF909F908F907F9036
:101280006F905F904F9008958F929F92AF92BF9210
:10129000CF92DF92EF92FF920F931F93CF93DF9342
:1012A00000D000D0CDB7DEB78C015B016A01BFDD95
:1012B0004C01009709F057C0F801428153816481C5
:1012C00075818091041790910517A0910617B09130
:1012D0000717481759076A077B0709F448C00E9497
:1012E000DE1F7801F8E0EF0EF11C6F7077277C5F4E
:1012F000C7013BD6813009F03EC083EB96E09A836C
:101300008983F80182819381A481B5818B839C8339
:10131000AD83BE8345E350E0BE016F5F7F4FC701E1
:10132000ABD5892B19F4812C912C1AC0B501C801B9
:10133000BCDD892BC1F3C701A6D5892BA1F333E00E
:10134000A32EB12CA60168E873E1C80153DE4C015D
:10135000F1E0AF1AB10821F08F3F2FEF920791F320
:10136000C70176D508C088248394912C04C09EEFD1
:10137000892E99249A94C40126960FB6F894DEBF5C
:101380000FBECDBFDF91CF911F910F91FF90EF90D6
:10139000DF90CF90BF90AF909F908F900895209155
:1013A000F916222399F03FB7F8942091F9162130CD
:1013B00059F42DB32093F7164DB32091F8162095CC
:1013C00024232DBB3FBF02C03093F7168CBD9DBDBB
:1013D00008958091F916882361F09FB7F8942091C1
:1013E000F9168091F716213019F48DBB9FBF08952F
:1013F0008FBF089544E050E0BC0181E090E00C9480
:10140000951544E050E0BC0185E090E00C94951502
:1014100044E050E0BC018FE090E00C9495158F9271
:101420009F92AF92BF92CF92DF92EF92FF920F9373
:101430001F93CF93DF931F921F92CDB7DEB74C015E
:101440006A01590182E397E169837A830E9430152A
:1014500080E590E0A4DF46E050E069817A8189E090
:1014600090E00E949515C6010296D2DFC80102964F
:10147000C1DFC7010296C5DFACDFF50142815381B0
:1014800064817581F40142835383648375830F9073
:101490000F90DF91CF911F910F91FF90EF90DF9010
:1014A000CF90BF90AF909F908F9008956F927F9252
:1014B0008F929F92AF92BF92CF92DF92EF92FF9264
:1014C0000F931F93CF93DF93CDB7DEB76E970FB611
:1014D000F894DEBF0FBECDBF6C015B017A014901FC
:1014E000380100E02FEF4FEF6FEFCE0149960E94D9
:1014F000E72323EB36E03A8329838B8D9C8DAD8DDA
:10150000BE8D8B839C83AD83BE8338872F83F3018D
:1015100082819381A481B58189879A87AB87BC87B3
:101520003E872D87F40182819381A481B5818F87C5
:10153000988BA98BBA8B3C8B2B8BF7014281538103
:10154000648175814D8B5E8B6F8B788FCE01019698
:101550007C018E01095F1F4F9E01235F3F4FAE014B
:101560004D5E5F4FB501C6015ADF6E960FB6F89417
:10157000DEBF0FBECDBFDF91CF911F910F91FF90C6
:10158000EF90DF90CF90BF90AF909F908F907F9023
:101590006F900895CF92DF92EF92FF920F931F9377
:1015A000CF93DF93CDB7DEB768970FB6F894DEBF61
:1015B0000FBECDBF6B017901DA0112964D915D919D
:1015C0006D917C9115974D8B5E8B6F8B788FA3EB14
:1015D000B6E0BA83A98321E0288F0D891E892F895F
:1015E000388D0B831C832D833E83B887AF83F7012F
:1015F000028113812481358109871A872B873C87D3
:10160000BE87AD874F87588B698B7A8B8E010F5FB2
:101610001F4F9E01295F3F4FAE01435F5F4FB601F1
:1016200045DF68960FB6F894DEBF0FBECDBFDF91E1
:10163000CF911F910F91FF90EF90DF90CF90089581
:101640000F931F93CF93DF93CDB7DEB762970FB69B
:10165000F894DEBF0FBECDBFDB01FA01428153819A
:10166000648175814F87588B698B7A8BE3EBF6E049
:10167000FA83E98321E02A8B0F85188929893A8921
:101680000B831C832D833E83F887EF8349875A871A
:101690006B877C879E012F5F3F4FAE01495F5F4F95
:1016A000BD0178DF62960FB6F894DEBF0FBECDBFE6
:1016B000DF91CF911F910F910895CF93DF93EC01AC
:1016C0000E94DD2380E590E06ADEBE016E5F7F4F01
:1016D00044E050E08FE090E00E94AB167ADECE014D
:1016E000DF91CF91089523EB36E0FC013183208315
:1016F000FB014281538164817581FC0142835383E4
:101700006483758308950F9300E020E040E060E07B
:1017100088E197E10E94E72388E097E10F910C941C
:10172000DD2381E086270895862F0895DC01ED9161
:10173000FC91048CF58DE02D199591E08927089591
:10174000CF93DF931F92CDB7DEB76983DC01ED91B4
:10175000FC910280F381E02D41E050E0BE016F5F1B
:101760007F4F19950F90DF91CF91089521E0FC01F3
:101770008485843009F420E0822F0895FC0194854B
:10178000FB018485981303C081E0943009F480E064
:1017900008950F931F93CF93DF93EC018A018C85FB
:1017A000843019F022D7892B39F481E090E09B83B3
:1017B0008A8380E090E001C0C801DF91CF911F9142
:1017C0000F910895FC018485843009F0F5C780E00D
:1017D00090E00895CF93DF931F92CDB7DEB741E03D
:1017E00050E0BE016F5F7F4FFC01848589D71816DA
:1017F00019061CF4898190E002C08FEF9FEF0F90D3
:10180000DF91CF910895FC0184857AC70F931F93D0
:10181000CF93DF931F92CDB7DEB78C01DC01ED9142
:10182000FC910480F581E02D1995892B49F0BE01CA
:101830006F5F7F4FF8018485E8D7898190E002C00F
:101840008FEF9FEF0F90DF91CF911F910F91089530
:10185000FC0184850C943314CF92DF92EF92FF92B7
:101860000F931F93CF93DF93CDB7DEB7AF970FB62C
:10187000F894DEBF0FBECDBF7C018B016A01CE01A3
:1018800001960E94DD23CE01099677D4CE018A9677
:101890000E94DD2368E077E1CE01849624DFBE015B
:1018A0006C5D7F4FCE010196B5DAAE01465D5F4FAC
:1018B000B801CE010196E8DC81309105C1F4D70171
:1018C000ED91FC910484F585E02D83EB96E09DA3DA
:1018D0008CA30CA51DA52EA53FA50EA31FA328A76D
:1018E00039A7A601BE016C5D7F4FC7011995AF9660
:1018F0000FB6F894DEBF0FBECDBFDF91CF911F9121
:101900000F91FF90EF90DF90CF900895FC0113822C
:10191000128248EE53E060E070E0448355836683B2
:1019200077838CE296E09183808384E084870895B6
:10193000FC01262F1382128248EE53E060E070E033
:1019400044835583668377838CE296E0918380831A
:1019500024870895FC018485843009F001C580E066
:101960000895DF92EF92FF920F931F93CF93DF932F
:10197000EC017B018A018C85843009F040C0D12CB8
:101980008D2DEED4811102C0DC8607C08B7F88319B
:10199000D9F3D39484E0D812F3CF8C85843079F1D5
:1019A00020910A0230910B022F5F3F4F11F420E08B
:1019B00030EC30930B0220930A0240910A025091BE
:1019C0000B0220E061E017D5B7016E5F7F4FA801E1
:1019D0008C8591D5811103C084E08C8710C0CE0125
:1019E000B9DF873149F061E070E080E090E00E946B
:1019F0000D20CE01AFDFEECF81E090E002C080E0AD
:101A000090E0DF91CF911F910F91FF90EF90DF90C9
:101A10000895CF92DF92EF92FF92CF93DF93EC0184
:101A20008C85843031F1BCD50E94DE1F6B017C01B6
:101A3000CE0190DF882399F061E070E080E090E0D3
:101A40000E940D200E94DE1F6C197D098E099F09DE
:101A5000683E73408105910558F38C85A4D4EC85CC
:101A6000F0E0EE0FFF1FE05FF84E1182108284E07D
:101A70008C87DF91CF91FF90EF90DF90CF9008950A
:101A8000CF93DF93EC018C858430C9F0CE0162DF07
:101A90008431A9F0882399F0883189F08C3169F478
:101AA000E881F9810480F581E02DCE01199521E0CE
:101AB000892B09F420E0822F03C081E001C080E07F
:101AC000DF91CF9108950F9300E020E040E060E0C7
:101AD0008EE197E10E94E7230F910895CF93DF9362
:101AE0001F92CDB7DEB76983DC01ED91FC910280D6
:101AF000F381E02D41E050E0BE016F5F7F4F19950B
:101B00000F90DF91CF910895EF92FF920F931F9363
:101B1000CF93DF93CDB7DEB72D970FB6F894DEBF26
:101B20000FBECDBF7C0100E010E0602FCE0101961A
:101B3000FFDECE0101960EDF811114C0F701448152
:101B4000558120E061E0802F56D4802FA4D4F70186
:101B500084819581F801EE0FFF1FE05FF84E9183BD
:101B6000808305C00F5F1F4F04301105F1F62D96DD
:101B70000FB6F894DEBF0FBECDBFDF91CF911F919E
:101B80000F91FF90EF900895FC011382128280E57F
:101B900096E091838083758364830895BF92CF928A
:101BA000DF92EF92FF920F931F93CF93DF93CDB706
:101BB000DEB72D970FB6F894DEBF0FBECDBF8C01F8
:101BC00040E1C42E47E1D42EB12CE12CF12C6B2D39
:101BD000CE010196ADDED6012D913D916D01F8014A
:101BE000848195812817390799F4CE010196B2DED8
:101BF000843159F0CE010196ADDE8C3149F4CE012D
:101C00000196E0DD892B99F003C0EE24E394F12CDA
:101C1000B394F4E0BF12DBCFEF2869F4D801ED9163
:101C2000FC910480F581E02DC801199504C0CE0116
:101C30000196EFDEEDCF2D960FB6F894DEBF0FBE06
:101C4000CDBFDF91CF911F910F91FF90EF90DF906B
:101C5000CF90BF9008957F928F929F92AF92BF9244
:101C6000CF92DF92EF92FF920F931F93CF93DF9368
:101C7000CDB7DEB72D970FB6F894DEBF0FBECDBF40
:101C80006C015B014A018ADF50E1E52E57E1F52E38
:101C9000712C00E010E0672DCE01019649DEF701BE
:101CA000219131917F01F6018481958128173907AF
:101CB00029F4CE0101964EDE8731C9F07394F4E029
:101CC0007F12E9CFC8012D960FB6F894DEBF0FBE84
:101CD000CDBFDF91CF911F910F91FF90EF90DF90DB
:101CE000CF90BF90AF909F908F907F900895A40168
:101CF000B501CE0101964DDD080F191FDFCFBF9250
:101D0000CF92DF92EF92FF920F931F93CF93DF93C7
:101D1000CDB7DEB72D970FB6F894DEBF0FBECDBF9F
:101D20008C016B01CB013ADF60E1E62E67E1F62E14
:101D3000B12C6B2DCE010196FBDDF7012191319184
:101D40007F01F601848195812817390741F5CE017D
:101D5000019600DE873111F08C3109F5CE01019634
:101D600031DD892BE1F08B819C81F80193838283A3
:101D70008D819E81AF81B88584839583A683B78347
:101D800049855A856B857C85408751876287738733
:101D90008CE296E0918380838D85848707C0B3941D
:101DA000F4E0BF12C6CF64E0C801C2DDC8012D96C1
:101DB0000FB6F894DEBF0FBECDBFDF91CF911F915C
:101DC0000F91FF90EF90DF90CF90BF9008950F9309
:101DD00000E020E040E060E084E297E10E94E72339
:101DE0000F910895DC01ED91FC91008CF18DE02DB7
:101DF000199423EB36E0FC0131832083FB014089F9
:101E0000518962897389FC0142835383648375839A
:101E10000895FC01848995890895FC01818D928D36
:101E20000895CF93DF931F92CDB7DEB76983DC01AE
:101E3000ED91FC910280F381E02D41E050E0BE0184
:101E40006F5F7F4F19950F90DF91CF91089508959F
:101E5000CF93DF93EC01888D843059F0A4D2E88DC4
:101E6000F0E0EE0FFF1FE05FF84E1182108284E079
:101E7000888FDF91CF910895FC01178A168A6E5FD3
:101E80007F4F808D35C5FC01808D76C5CF93DF9364
:101E9000EC019A018E899F89AB01BC01888DE4D445
:101EA0002E893F89280F391F3F8B2E8BDF91CF91D1
:101EB00008950F931F93CF93DF931F92CDB7DEB793
:101EC0008C01FC01818D928D892B51F041E050E015
:101ED000BE016F5F7F4F808D13D4181619061CF05A
:101EE0008FEF9FEF08C0F801818D928D0197928F3F
:101EF000818F898190E00F90DF91CF911F910F9199
:101F00000895CF93DF93EC01898D9A8D009719F492
:101F10008FEF9FEF0FC04817590708F0AC01888D6D
:101F2000EFD318161906A4F7298D3A8D281B390B03
:101F30003A8F298FDF91CF910895CF93DF931F922E
:101F4000CDB7DEB7FC01218D328D232B41F0BE01D0
:101F50006F5F7F4F808D59D4898190E002C08FEFF1
:101F60009FEF0F90DF91CF910895FF920F931F93F2
:101F7000CF93DF93EC018B01888D8430D1F4F12C69
:101F80008F2DEED1811102C0F88E06C08831E1F3A9
:101F9000F39484E0F812F4CF888D843051F01D87DB
:101FA0000C871A8E198E20E0A80162E024D281E00D
:101FB00001C080E0DF91CF911F910F91FF900895B4
:101FC0000F931F93CF93DF93CDB7DEB728970FB64C
:101FD000F894DEBF0FBECDBF8C01F801818D928DCC
:101FE000892B49F0D801ED91FC910680F781E02D15
:101FF000C8011995F2CF808DDFD3181619063CF56C
:1020000048E050E0BE016F5F7F4FD80158968C9139
:1020100077D318161906ECF4BE016F5F7F4FC80125
:102020000E960E94F3238D8190E0982F88272E81B1
:10203000820F911DF801958B848B8F8190E0982FF2
:1020400088272885820F911D928F818F02C080E0A2
:1020500090E028960FB6F894DEBF0FBECDBFDF919B
:10206000CF911F910F9108958F929F92AF92BF923F
:10207000CF92DF92EF92FF920F931F93CF93DF9354
:1020800000D000D0CDB7DEB78C017B014A01FC0146
:10209000808D843009F05DC073E0A72E74E0B72E08
:1020A000C12CD12CC5016AD5811103C0F801C08EA5
:1020B0000AC08831D9F3FFEFCF1ADF0AB394E4E006
:1020C000CE16D10479F7F801808D843009F441C02F
:1020D00096E0EDE0F2E0DE01119601900D929A9506
:1020E000E1F7F70193819F779C8394819D8395818C
:1020F0009E83B7016E5F7F4F90E0982F882744E062
:1021000050E0845F9B4F11D5F801808D90E00496DC
:10211000F82EEE24692DC701409685D4682DC7019D
:10212000419681D4F801808D90E0982F882746E071
:1021300050E0BE016F5F7F4F8A5F9B4FF6D4F8017E
:10214000128E118E20E8A40162E0808D54D181E0CE
:1021500001C080E026960FB6F894DEBF0FBECDBF5B
:10216000DF91CF911F910F91FF90EF90DF90CF9073
:10217000BF90AF909F908F900895CF93DF93EC0125
:102180001B821A8248EE53E060E070E04C835D836E
:102190006E837F838AE596E099838883CE010E96CD
:1021A0000E94DD2384E0888FDF91CF910895CF9244
:1021B000DF92EF92FF920F931F93CF93DF93CDB7F0
:1021C000DEB7AF970FB6F894DEBF0FBECDBF7C0170
:1021D0008B016A01CE0101960E94DD23CE01099692
:1021E000CCDFCE018A960E94DD2368E077E1CE0144
:1021F000849679DABE016C5D7F4FCE0101960E9414
:102200000A07AE01465D5F4FB801CE0101963CD88A
:1022100081309105C1F4D701ED91FC910088F189DD
:10222000E02D83EB96E09DA38CA30CA51DA52EA508
:102230003FA50EA31FA328A739A7A601BE016C5D69
:102240007F4FC7011995AF960FB6F894DEBF0FBE4A
:10225000CDBFDF91CF911F910F91FF90EF90DF9055
:10226000CF9008950F9300E020E040E060E08AE224
:1022700097E10E94E7230F910895CF92DF92EF92AA
:10228000FF920F9330E0C12CF2E1DF2EFAE7EF2E40
:10229000F12C4C155D056E057F0540F4F694E7942E
:1022A000D794C7943F5F3630A1F737E041E043272A
:1022B000211102C050E701C050E5242F30E03595D0
:1022C000279523700C70202B252BFC012083417057
:1022D00041830F91FF90EF90DF90CF90089590E0B1
:1022E000982F882744E050E0845F9B4F1EC4282F1E
:1022F00030E02C5F3F4F922F8827860F971F3EC4F8
:1023000062E070E0F4CFFB01282F30E02C5F3F4FFC
:10231000922F8827642F8E0F9F1F85C3CF93DF9343
:10232000C82FD62F472F64E070E0EDDF4D2F65E01A
:1023300070E08C2FDF91CF91E6CF462F62E070E006
:10234000E2CFCF93DF93C82FD62F472F60E170E005
:10235000DADF4D2F61E170E08C2FDF91CF91D3CF89
:102360000F931F93CF93DF9300D0CDB7DEB7182F15
:1023700000E021E040E059E06DE370E0CE0101961D
:102380007CDF89819A810BD863E070E0812FAFDF19
:102390008B831FD88B810F900F900F90DF91CF917F
:1023A0001F910F9108950F931F93CF93DF931F9267
:1023B0001F92CDB7DEB7182F00E021E040E059E0D2
:1023C0006DE370E0CE01019658DF89819A810E9409
:1023D000CF0940E150E0612F82E397E178D56FEFBC
:1023E000812FABDF0E94E9090F900F90DF91CF9111
:1023F0001F910F910895CF92DF92EF92FF920F936A
:102400001F93CF93DF931F921F92CDB7DEB7182F84
:10241000D62E7A01C22E8FEF860F853080F5812F60
:10242000C2DF00E021E040E059E06DE370E0CE0162
:10243000019623DF89819A810E94CF094D2D4C2975
:1024400060E070E0812F5FDFE114F10411F0B7016B
:102450000AC060913017709131176F5F7F4F709392
:10246000311760933017812F59DF41E050E0612F21
:1024700082E397E12CD50E94E90981E001C080E068
:102480000F900F90DF91CF911F910F91FF90EF90E0
:10249000DF90CF9008950F931F93CF93DF931F92F8
:1024A0001F92CDB7DEB7182F00E021E040E059E0E1
:1024B0006DE370E0CE010196E0DE89819A810E9491
:1024C000CF0963E070E0812F12DF833121F00E9499
:1024D000E90980E009C042E050E0612F82E397E122
:1024E000F6D40E94E90981E00F900F90DF91CF911F
:1024F0001F910F910895CF92DF92EF92FF920F9369
:102500001F93CF93DF931F921F92CDB7DEB7182F83
:102510007B016A01FB0180818F3F51F481818F3FF4
:1025200099F482818F3F81F483818F3F69F42CC0BD
:1025300081110AC0FB018181811106C08281811154
:1025400003C08381882301F1C114D104E9F000E0C4
:1025500021E040E059E06DE370E0CE0101968DDEB0
:1025600089819A810E94CF09B701812FB8DEB60117
:10257000812FE7DE44E050E0612F82E397E1A7D4AA
:102580000E94E90981E001C080E00F900F90DF9187
:10259000CF911F910F91FF90EF90DF90CF90089512
:1025A0000F931F93CF93DF931F921F92CDB7DEB788
:1025B000182F00E021E040E059E06DE370E0CE012B
:1025C00001965BDE89819A810E94CF0948E050E044
:1025D000612F82E397E17BD40E94E9090F900F906D
:1025E000DF91CF911F910F910895BF92CF92DF920B
:1025F000EF92FF920F931F93CF93DF9300D0CDB74D
:10260000DEB7B82E6B017A01413088E0580718F028
:10261000E12C98E0F92E00E021E040E059E06DE384
:1026200070E0CE01019629DE89819A810E94CF094E
:102630006B2D82E397E1D2D28C0163E070E08B2DA9
:1026400056DE8B830E94E9098B81873111F08C3132
:1026500031F40E94931F0E151F05E8F202C0E12C11
:10266000F12C00E021E040E059E06DE370E0CE01A4
:10267000019603DE89819A810E94CF099701A60104
:102680006B2D82E397E15DD340E250E06B2D82E356
:1026900097E11DD48B2D34DE84FD1FC063E070E014
:1026A0008B2D25DE811107C00E94E9098B2D7BDE71
:1026B00080E090E018C00E94E9090E94931F00E0AA
:1026C00021E040E059E06DE370E0CE010196D5DDF8
:1026D00089819A810E94CF09DDCF60E18B2D2DDEAB
:1026E0000E94E909C7010F900F900F90DF91CF91E1
:1026F0001F910F91FF90EF90DF90CF90BF900895C2
:10270000AF92BF92CF92DF92EF92FF920F931F93FF
:10271000CF93DF931F921F92CDB7DEB7182F5B01C7
:102720006A0100E021E040E059E06DE370E0CE0195
:102730000196A3DD89819A810E94CF09612F82E3EE
:1027400097E17CD27C01009799F463E070E0812FDF
:10275000CEDD843109F18823F9F021E030E08C31BD
:1027600011F420E030E0EE24FF24E21AF30A14C052
:10277000C816D9060CF476011E141F046CF400E090
:102780009701A501612F82E397E156D340E450E021
:10279000612F82E397E19BD30E94E909C7010F9063
:1027A0000F90DF91CF911F910F91FF90EF90DF90ED
:1027B000CF90BF90AF9008950F931F93CF93DF9367
:1027C00000D01F92CDB7DEB7182F00E021E040E027
:1027D00059E06DE370E0CE0101964FDD89819A8169
:1027E0000E94CF09612F82E397E128D28B839C83DB
:1027F0000E94E9098B819C810F900F900F900F90A0
:10280000DF91CF911F910F910895EF92FF920F9357
:102810001F93CF93DF931F921F92CDB7DEB7182F70
:102820007B0100E021E040E059E06DE370E0CE0183
:10283000019623DD89819A810E94CF0901E021E080
:1028400030E0A701612F82E397E1F6D20E94E90907
:1028500081E090E00F900F90DF91CF911F910F9149
:10286000FF90EF90089508959F92AF92BF92CF92FC
:10287000DF92EF92FF920F931F93CF93DF931F92FC
:102880001F92CDB7DEB7982E6B015A01790100E097
:1028900021E040E059E06DE370E0CE010196EDDC0F
:1028A00089819A810E94CF09692D82E397E196D1AF
:1028B0008E159F0528F4692D82E397E18FD17C0165
:1028C00087019501A601692D82E397E1D1D10E948C
:1028D000E909C7010F900F90DF91CF911F910F91E0
:1028E000FF90EF90DF90CF90BF90AF909F900895B2
:1028F000CF92DF92EF92FF920F931F93CF93DF93CC
:102900001F921F92CDB7DEB7182F7B016A01FB0122
:102910008081811109C08181811106C0828181116C
:1029200003C083818823D9F0C114D104C1F000E031
:1029300021E040E059E06DE370E0CE0101969DDCBE
:1029400089819A810E94CF09B701812FC8DCB60125
:10295000812FF7DC0E94E90981E090E002C080E06D
:1029600090E00F900F90DF91CF911F910F91FF900A
:10297000EF90DF90CF9008950F931F93CF93DF9345
:102980001F921F92CDB7DEB7182F00E021E040E084
:1029900059E06DE370E0CE0101966FDC89819A8188
:1029A0000E94CF0940E250E0612F82E397E18FD28D
:1029B000812FA6DC84FD1EC0812FA2DC83FF08C00E
:1029C00068E1812FBADC0E94E90980E090E019C03B
:1029D0000E94E9090E94931F00E021E040E059E0D5
:1029E0006DE370E0CE01019648DC89819A810E94F6
:1029F000CF09DECF60E1812FA0DC0E94E90981E0F0
:102A000090E00F900F90DF91CF911F910F9108955B
:102A10008EBD00000DB407FEFDCF8EB508952C9835
:102A200008952C9A08951F93CF93DF931F921F92BE
:102A3000CDB7DEB7182F6A839983F1DF80EFE8DF27
:102A40009981892FE5DF812FE3DF6A81862FE0DF1F
:102A5000E8DF81E00F900F90DF91CF911F910895F3
:102A6000CF93DF93EC016CE271E080E090E00E9494
:102A70000D200E94C906249A8091F916882399F0A6
:102A80009FB7F8948091F916813059F48DB38093F3
:102A9000F7162DB38091F816809582238DBB9FBFCA
:102AA00002C09093F71680E58CBD1DBC60E880E005
:102AB00090E0B9DF65E58BE190E0B5DF65E58AE19F
:102AC00090E0B1DF8091F916882361F09FB7F89408
:102AD0002091F9168091F716213019F48DBB9FBF14
:102AE00001C08FBF80E090E49983888380E090E606
:102AF0009987888780E098E49B838A8380E098E6C2
:102B00009B878A8780E090E59D838C8380E090E7B7
:102B10009D878C8780E098E59F838E8380E098E78F
:102B20009F878E87DF91CF910895CF92DF92EF92AA
:102B3000FF920F931F93CF93DF93EC017A018B01E8
:102B40006C01C40ED51ECC15DD0571F068DF80EF79
:102B50005FDF8D2F5DDF8C2F5BDF2196F801819188
:102B60008F0156DF5EDFEFCFC701DF91CF911F915D
:102B70000F91FF90EF90DF90CF9008951F93CF9328
:102B8000DF931F92CDB7DEB7182F998348DF8FE010
:102B90003FDF9981892F3CDF812F3ADF80E038DFEA
:102BA00089833FDF89810F90DF91CF911F91089535
:102BB0001F93CF93DF93182F60E270E098DBC82F4C
:102BC000D0E061E270E0812F92DBDC2FCC279E0108
:102BD000282BC901DF91CF911F910895FF920F9388
:102BE0001F93CF93DF93F62EC0E0D0E08F2DE0DF70
:102BF0008C01009719F08F2DDBDFEC01C017D10796
:102C0000A9F7CE01DF91CF911F910F91FF90089509
:102C10001F93CF93DF93182F66E270E068DBC82F15
:102C2000D0E067E270E0812F62DBDC2FCC279E01D1
:102C3000282BC901DF91CF911F910895FF920F9327
:102C40001F93CF93DF93F62EC0E0D0E08F2DE0DF0F
:102C50008C01009719F08F2DDBDFEC01C017D10735
:102C6000A9F7CE01DF91CF911F910F91FF900895A9
:102C70006F927F929F92AF92BF92CF92DF92EF922C
:102C8000FF920F931F93CF93DF931F92CDB7DEB7C1
:102C9000D82E962E3A01590164E270E0892D99836D
:102CA00026DBE82EF12C65E270E0892D20DBFE2C7E
:102CB000EE24E82AE60CF71C970137706D2C9981F9
:102CC000792E690C711C690C711CD301ED91FC917A
:102CD000E20FF31FC901800F911F8130984098F0D7
:102CE000C12C48E0D42EC21AD30AA601B501CF01E7
:102CF0001CDFA8014C195D09B5016C0D7D1DF301A8
:102D00008081918103C0A801B501CF010EDFE00EE3
:102D1000F11E4F2D64E270E0892DF5DA4E2D65E24B
:102D200070E0892D0F90DF91CF911F910F91FF904F
:102D3000EF90DF90CF90BF90AF909F907F906F907B
:102D4000E2CA0F931F9389019A0140E050E090DF9F
:102D50001F910F910895CF92DF92EF92FF920F9300
:102D60001F93CF93DF93EC017A018B016C01C40EAA
:102D7000D51ECC15DD0579F052DE8FE049DE8D2FB2
:102D800047DE8C2F45DE219680E042DEF8018193FC
:102D90008F0147DEEECFC701DF91CF911F910F91D9
:102DA000FF90EF90DF90CF900895AF92BF92CF92B7
:102DB000DF92EF92FF920F931F93CF93DF931F92B7
:102DC0001F92CDB7DEB75A8349835901E981FA8151
:102DD000F7707C01E60EF11CE60EF11CD701189687
:102DE0008D919C9119978E0F9F1F98012E0F3F1F59
:102DF0002130384090F0C12C68E0D62ECE1ADF0A80
:102E0000A601B501A8DFA8014C195D09B5016C0D3B
:102E10007D1DF7018085918502C0A801B5010F9045
:102E20000F90DF91CF911F910F91FF90EF90DF9066
:102E3000CF90BF90AF908FCF8F929F92AF92BF9263
:102E4000CF92DF92EF92FF920F931F93CF93DF9376
:102E50006C01962E5A017901802E68E270E0892D6E
:102E600046DAC82FD0E069E270E0892D40DADC2F25
:102E7000CC27C82B87019501AE01692DC60195DFCE
:102E8000811018C0CE0DDF1D4D2F68E270E0892D36
:102E90003ADA4C2F69E270E0892DDF91CF911F91D2
:102EA0000F91FF90EF90DF90CF90BF90AF909F90E9
:102EB0008F9029CADF91CF911F910F91FF90EF90D2
:102EC000DF90CF90BF90AF909F908F900895CF9359
:102ED000C62F61E070E08C2F16DA61E070E08C2F75
:102EE00006DA8111FACFCF91089561E0FC01848167
:102EF0000E941E210E94C9068CB5837F8CBD8CB5B3
:102F000080628CBD8CB58C7F81608CBD8DB58160FD
:102F10008DBD0895CF93DF93EC0160E08C810E941A
:102F2000572162E070E080E090E00E940D2061E0B7
:102F30008C81DF91CF910C94572180E069CDFC0109
:102F400080E896E091838083158273836283448353
:102F500008951F93CF93DF93EC0160E08C810E9472
:102F6000572182E055DDE9DF182F61E08C810E9456
:102F70005721812F8170DF91CF911F910895BF92CA
:102F8000CF92DF92EF92FF920F931F93CF93DF9335
:102F90008C01D62EB72EC42E7901C0E0D0E0C80136
:102FA000D8DF811110C061E070E080E090E00E9405
:102FB0000D202196E114F10491F3EC16FD0678F74B
:102FC0008EEF9FEF4CC060E0F80184810E94572192
:102FD00061E070E080E090E00E940D2083E018DD69
:102FE000ACDF811110C0A9DF81110DC0A6DF8F3FBA
:102FF00051F4A3DFF82EA1DF8F0D29F4F801C5816C
:103000009CDF853D49F0CDEFDFEF61E0F801848181
:103010000E945721CE0123C090DF91E09C0F9813AE
:10302000F2CFFA94FA94CF1428F487DF86DFCCEF3E
:10303000DFEFEBCF86EDE82EEC0ECD2CCD2DDB2D8A
:103040008C2F8C198F1520F478DF8993E80EF8CF38
:1030500074DF8E0DC1F671DFCF2DD0E0D6CFDF91BA
:10306000CF911F910F91FF90EF90DF90CF90BF9085
:1030700008958F929F92AF92BF92CF92DF92EF927C
:10308000FF920F931F93CF93DF937C01162FD72EC0
:10309000B42EA22E932E60E0FC0184810E94572161
:1030A00062E070E080E090E0B8D781E0B1DC80E0E1
:1030B000AFDC80E0ADDC8FEFABDCC1E0C00FCB0D4F
:1030C0008C2FA6DC8C2F8195A3DC84EDA1DC812ED6
:1030D000C12FDD2D14ED8C2F88198B1538F46E015E
:1030E000899196DCF6018081180FF5CFBA2CCA2D94
:1030F000D92D8C2F8B19801738F46E01899188DCBB
:10310000F6018081180FF5CF812F819581DC80E059
:103110007FDC61E0F7018481DF91CF911F910F91F6
:10312000FF90EF90DF90CF90BF90AF909F908F90E7
:103130000C945721AF92BF92CF92DF92EF92FF9201
:103140000F931F93CF93DF93CDB7DEB72C970FB6B6
:10315000F894DEBF0FBECDBF7C0186E0E3E1F2E074
:10316000DE01179601900D928A95E1F760E0F70174
:1031700084810E94572161E070E080E090E04DD7AB
:1031800083E046DC8E010F5F1F4F6E01F7E0CF0E2C
:10319000D11CB02EA12ED1DEF80181938F01EC1548
:1031A000FD05C9F761E0F70184810E94572146E0DF
:1031B00050E0B8018B2D9A2D0E947C292C960FB6D9
:1031C000F894DEBF0FBECDBFDF91CF911F910F915D
:1031D000FF90EF90DF90CF90BF90AF9008950F9346
:1031E0001F93CF93DF93EC01FB0180818D83CE0190
:1031F00040DF1AE0CE01ADDE811109C061E070E070
:1032000080E090E00AD71150A9F78EEF08C0CE01F8
:1032100091DF91E0811101C090E0892F8195DF91CC
:10322000CF911F910F910895815B9F4FFC01718396
:1032300060830895CF93DF93EC01C15BDF4F8881FA
:103240009981DC01ED91FC910190F081E02D1995BF
:1032500088819981DC01ED91FC910280F381E02D60
:10326000DF91CF911994EF92FF920F93CF93DF9359
:10327000FC0194E1978781E0808B918B828B7F01A9
:103280008FE4E80EF11CD7018D919C91EF012F96F0
:10329000DC01ED91FC910480F581E02D00E020E05F
:1032A00030E044E0BE011995811112C0F701808120
:1032B0009181DC01ED91FC910680F781E02D28EEF3
:1032C00033E040E4BE01199521E0181619060CF010
:1032D00020E0822FDF91CF910F91FF90EF90089522
:1032E000CF92DF92EF92FF920F93CF93DF93EC0197
:1032F00069017C018FE4E80EF11CD7018D919C914E
:10330000DC01ED91FC910480F581E02D00E020E0EE
:1033100030E0199587FD15C0F70180819181DC01AE
:10332000ED91FC91BE01615F7F4F0680F781E02D3A
:10333000960140E41995181634F08E3F31F480E080
:1033400005C08FEF03C081E001C08EEFDF91CF9108
:103350000F91FF90EF90DF90CF900895EF92FF9242
:103360000F931F93CF93DF93EB01142F26E828834D
:10337000815B9F4F7C01DC018D919C91DC01ED9183
:10338000FC910480F581E02D00E020E030E041E098
:103390001995811126C0F70180819181DC01ED91A1
:1033A000FC910680F781E02D28EB3BE0412FBE0128
:1033B000199518161906CCF49C0121503109888101
:1033C000811111C040E0842F90E08217930738F4F8
:1033D000FE01E80FF91F818180834F5FF4CFC9019F
:1033E00004C08FEF01C08BEF9FEFDF91CF911F9152
:1033F0000F91FF90EF900895EF92FF920F93CF936C
:10340000DF93EC014034E0F0232B09F057C0DC01DE
:103410001F966A177B0709F451C08EE88F87FE015B
:10342000E15BFF4F80819181FC0120813181F901B5
:10343000E480F580042F9B0141E0BD01F70124C029
:103440005FEF540F5F3F79F0852F992787FD9095A7
:10345000FB01E80FF91FE081DE01A80FB91F5096AC
:10346000EC935150EFCF8EE88F87FE01E15BFF4F69
:1034700080819181DC01ED91FC914F5F0480F581A9
:10348000E02DBE01615F7F4F1995811117C0FE01CC
:10349000E15BFF4F80819181DC01ED91FC91068021
:1034A000F781E02D28EB3BE040E4BE01615F7F4FF8
:1034B000199597FD03C081E09F85911180E0DF9110
:1034C000CF910F91FF90EF900895EF92FF920F939D
:1034D000CF93DF93FC0182E58787608B7F018FE4C8
:1034E000E80EF11CD7018D919C91EF012F96DC0124
:1034F000ED91FC910480F581E02D00E020E030E0CA
:1035000042E0BE011995811113C0F70180819181BC
:10351000DC01ED91FC910680F781E02D28EE33E08F
:1035200040E4BE01DF91CF910F91FF90EF9019948D
:1035300080E090E0DF91CF910F91FF90EF900895A0
:10354000CF93DF93EC0176DECE01DF91CF918BCE6E
:103550004F37510554F4FC01EF5AFF4F5083319619
:1035600040838D5A9F4F0C94892908958F529F4F05
:10357000FC017183608308950F93FA01D9016230D1
:103580007105B9F044F46115710569F06130710598
:10359000D9F48AE614C06330710569F064307105AE
:1035A00099F482E60CC080E9808311820E5F0C934F
:1035B0000BC08AE601C085E6808381E802C0808373
:1035C00082E8818382E08C930F9108952F923F923D
:1035D0004F925F926F927F928F929F92AF92BF9223
:1035E000CF92DF92EF92FF920F931F93CF93DF93CF
:1035F000CDB7DEB7C35CD1090FB6F894DEBF0FBEFE
:10360000CDBF7C018B014AE050E08BE497E10E9442
:103610009B2586E2E9E1F2E0DE01AF57BF4F019062
:103620000D928A95E1F7F701EF52FF4F0190F0817B
:10363000E02D309751F080819181A281CB57DF4FEF
:1036400088839983AA83C558D040980146E2BE0179
:103650006F577F4FC70144DE813009F05DC168E8D4
:1036600076E08BE497E10E9493248FE0EFE3F2E0B1
:10367000DE01A955BF4F01900D928A95E1F75701E0
:1036800084EDA80EB11CD5018C91811106C08FEF7D
:10369000CB54DF4F8883C55BD0404701B3ED8B0E21
:1036A000911CF4011082C12CD12CC7018F5A9F4F5D
:1036B000C054DF4F99838883C05CD040D701AE5A95
:1036C000BF4FCE53DF4FB983A883C25CD0402701E0
:1036D000B5ED4B0E511C3701E3E56E0E711C19E080
:1036E00040E8BE016F5F7F4FC70138DE97FF05C01E
:1036F00060E0C701EADE81E010C18B812C810D8181
:10370000682F70E0762F6627620F711D9A81903BBB
:1037100009F459C0963D09F49CC0943A09F0E3C0FD
:10372000882319F0843061F1E9C02C3041F000E0C9
:103730009E0121543F4FAE014F5F5F4F73C0023077
:1037400009F04DC08E81813E09F049C08F818350C0
:10375000823008F044C000E09E0121543F4FAE018A
:103760004F5F5F4F60E070E0C70106DF8F818330FD
:1037700031F1843009F0C2C092E0C92ED12CBEC014
:10378000EEE4F2E0DE01AA54BF4F812F01900D92CA
:103790008A95E1F749E050E0BE016C5F7F4FCE01B2
:1037A0008A549F4F0E947C2900E09E0121543F4F84
:1037B000AE014F5F5F4F892B09F09CC033C0CC2412
:1037C000C394D12C9BC0F1E0CF16D10491F082E0DC
:1037D000C816D10451F1C114D10409F08FC000E022
:1037E0009E0121543F4FAE014F5F5F4F61E070E09B
:1037F00083C061387105E0F4202E312CA7EAB0E0D7
:10380000AC0FBD1F6A0F7B1FA101CE0101960E9464
:10381000892941E050E04C0F5D1F420D531D9E0170
:1038200021543F4F60E070E067C06138710550F08F
:1038300000E09E0121543F4FAE014F5F5F4F64E0B7
:1038400070E05AC0202E312C6F5A7F4F6E0D7F1DB5
:10385000DBCFF5018081882309F445C0613871050B
:1038600050F000E09E0121543F4FAE014F5F5F4F8B
:1038700063E070E041C0CB018F5A9F4F402F50E072
:10388000BE016A5F7F4F8E0D9F1D0E94892900E057
:103890009E0121543F4FAE014F5F5F4F60E070E0EB
:1038A000C7016ADEE1E0D401EC93C054DF4FA88188
:1038B000B981C05CD0406C9170E0762F6627CE5302
:1038C000DF4FE881F981C25CD0408081680F711DB3
:1038D0006115710599F0D201ED91FC91309771F06D
:1038E000C30119950BC000E09E0121543F4FAE016A
:1038F0004F5F5F4F62E070E0C7013EDE00E020E016
:1039000030E0C154DF4F4881CF5BD040BE016F5FD4
:103910007F4FC70171DDE4CE80E0CD53DF4F0FB69E
:10392000F894DEBF0FBECDBFDF91CF911F910F91F5
:10393000FF90EF90DF90CF90BF90AF909F908F90CF
:103940007F906F905F904F903F902F900895EF92EF
:10395000FF920F931F93CF93DF938C01EC017C01B7
:1039600084E3E80EF11CCE017ED12D96CE15DF0545
:10397000D1F7F80115AA14AADF91CF911F910F91E9
:10398000FF90EF9008950F931F93CF93DF938C01D7
:10399000009749F0EC01E496C017D10721F02D976C
:1039A000CE0170D1F9CFDF91CF911F910F91089582
:1039B000AF92BF92CF92DF92EF92FF920F931F933D
:1039C000CF93DF93CDB7DEB72D970FB6F894DEBF58
:1039D0000FBECDBF8C016B0186179707C9F17C0123
:1039E000A12CB12CF80184A995A9A816B90690F4C8
:1039F000CE01019638D1BE016F5F7F4FC70162D102
:103A0000CE0101963FD18FEFA81AB80AEDE0EE0E75
:103A1000F11CE8CFF60184A995A9F80195AB84AB18
:103A2000E12CF12CA12CB12CF80184A995A9A816A0
:103A3000B90670F4B6016E0D7F1DC8018E0D9F1D75
:103A400041D1FFEFAF1ABF0A8DE0E80EF11CECCFB9
:103A5000C8012D960FB6F894DEBF0FBECDBFDF9123
:103A6000CF911F910F91FF90EF90DF90CF90BF907B
:103A7000AF900895CF92DF92EF92FF920F931F9332
:103A8000CF93DF936C017C0100E010E0C0E0D0E058
:103A9000F60184A995A90817190750F4C7017BD12D
:103AA000C80FD91F0F5F1F4F8DE0E80EF11CF0CF3C
:103AB000CE01DF91CF911F910F91FF90EF90DF909A
:103AC000CF900895CF92DF92EF92FF920F931F93C2
:103AD000CF93DF936C017B018C01C0E0D0E0F60155
:103AE00084A995A9C817D907A8F4219621E0C81779
:103AF000D90709F020E041E0C130D10509F040E0EC
:103B0000B701C80179D1C80146D1E80EF91E035F9B
:103B10001F4FE5CFDF91CF911F910F91FF90EF9055
:103B2000DF90CF900895CF93DF93EC012CA93DA9AE
:103B30002430310580F44DE0429FC001439F900D39
:103B400011248C0F9D1FBED08CA99DA901969DAB01
:103B50008CAB81E006C068E071E08BE497E1D3D6DE
:103B600080E0DF91CF910895AF92BF92CF92DF9224
:103B7000EF92FF920F931F93CF93DF93CDB7DEB7F2
:103B80002D970FB6F894DEBF0FBECDBF5C017B0151
:103B9000CDB6DEB68DE090E00E941C278C0163D08C
:103BA00061E0C80178D185E58D8741E050E0BE0134
:103BB000635F7F4FC80172D166E976E0CE0101965E
:103BC0000E947926B701CE0101960E94D526BC013C
:103BD000CE0107960E94A326CE0101960E941226CE
:103BE0004B855C854F5F5F4F8DB79EB7841B950BF0
:103BF0000FB6F8949EBF0FBE8DBFEDB7FEB73196DE
:103C00007F0120E030E0BF01CE0107960E94E6264A
:103C1000F70110824B855C85B701C80162D1B801FC
:103C2000C50181DF0115110529F0C8012BD0C8019C
:103C30000E941D27CE010796F5D70FB6F894DEBE79
:103C40000FBECDBE2D960FB6F894DEBF0FBECDBF12
:103C5000DF91CF911F910F91FF90EF90DF90CF9068
:103C6000BF90AF900895FC011082128211821482DD
:103C70001382168215821086178212861186148688
:103C800013860895CF93DF93EC0189819A81892B64
:103C900021F08F8198850E9409288B819C81892B36
:103CA00021F089859A850E9409288D819E81892B22
:103CB00031F08B859C85DF91CF910C940928DF91A1
:103CC000CF910895EF92FF920F931F93CF93DF93BD
:103CD000EC018B018617970709F455C089819A81F9
:103CE000892B21F08F8198850E9409288B819C81E6
:103CF000892B21F089859A850E9409288D819E81D2
:103D0000892B21F08B859C850E940928F8018081F0
:103D10008883E180F280FA82E982838194819C83A6
:103D20008B83858196819E838D83E114F10459F004
:103D3000C7010E94712798878F83F801678170857A
:103D4000A7010E948929EB80FC80E114F10459F05D
:103D5000C7010E9471279A878987F801618572855A
:103D6000A7010E948929ED80FE80E114F10459F039
:103D7000C7010E9471279C878B87F8016385748532
:103D8000A7010E948929CE01DF91CF911F910F9148
:103D9000FF90EF900895FC01438154814F3F5105FE
:103DA00021F01CF026E030E002C023E030E0658125
:103DB00076816115710511F02F5F3F4F81819281EE
:103DC000860F971F840F951F820F931F0895FC0184
:103DD00020816111206830E0411120648381948149
:103DE0008F3F910509F00CF4206185819681892B24
:103DF00009F02860822F0895EF92FF920F931F938E
:103E0000CF93DF93EC018B01642F422FE0DFF801A9
:103E10008083898181838B819C818F3F910509F00B
:103E200024F482830D5F1F4F09C0F80112821382B0
:103E30008C8184838B8185830A5F1F4F8D819E8156
:103E4000009719F0F80181938F016F81788549817E
:103E50005A81C8010E948929E980FA80E00EF11E8A
:103E60004D815E814115510549F06B857C85C70107
:103E70000E9489298D819E81E80EF91E69857A85C7
:103E80004B815C81C701DF91CF911F910F91FF9012
:103E9000EF900C948929FC0160830895EF92FF92C2
:103EA0000F931F93CF93DF93EC017B018A018981EC
:103EB0009A81892B21F08F8198850E940928C80159
:103EC0000E94712798878F83A801B7010E948929D2
:103ED0001A830983DF91CF911F910F91FF90EF908B
:103EE0000895EF92FF920F931F93CF93DF93EC010E
:103EF0007B018A018B819C81892B21F089859A85A0
:103F00000E940928C801EDD79A878987A801B701BF
:103F10000E9489291C830B83DF91CF911F910F9100
:103F2000FF90EF90089508951F920F920FB60F9291
:103F300011242F933F938F939F93AF93BF938091BF
:103F4000431790914417A0914517B09146173091AF
:103F5000421723E0230F2D3720F40196A11DB11D38
:103F600005C026E8230F0296A11DB11D209342171C
:103F70008093431790934417A0934517B093461727
:103F80008091471790914817A0914917B0914A170F
:103F90000196A11DB11D8093471790934817A093D8
:103FA0004917B0934A17BF91AF919F918F913F915D
:103FB0002F910F900FBE0F901F9018952FB7F89468
:103FC000609143177091441780914517909146175F
:103FD0002FBF08953FB7F8948091471790914817E5
:103FE000A0914917B0914A1726B5A89B05C02F3F4D
:103FF00019F00196A11DB11D3FBF6627782F892FAB
:104000009A2F620F711D811D911D42E0660F771F6F
:10401000881F991F4A95D1F708958F929F92AF926A
:10402000BF92CF92DF92EF92FF926B017C01D2DFC1
:104030004B015C01C114D104E104F104E1F073DF30
:10404000C9DF681979098A099B09683E73408105AF
:10405000910580F321E0C21AD108E108F10888EE49
:10406000880E83E0981EA11CB11CC114D104E10488
:10407000F10431F7DFCFFF90EF90DF90CF90BF904A
:10408000AF909F908F900895789484B5826084BD9E
:1040900084B5816084BD85B5826085BD85B581604C
:1040A00085BDEEE6F0E0808181608083E1E8F0E0AC
:1040B0001082808182608083808181608083E0E8DB
:1040C000F0E0808181608083E1EBF0E080818460BA
:1040D0008083E0EBF0E0808181608083E1E9F0E0C3
:1040E000808182608083808181608083E0E9F0E06C
:1040F000808181608083E1EAF0E08081826080835A
:10410000808181608083E0EAF0E08081816080834B
:10411000E1E2F1E080818260808380818160808340
:10412000E0E2F1E0808181608083EAE7F0E0808175
:1041300084608083808182608083808181608083CD
:104140008081806880831092C1000895863308F0D2
:10415000865320917B00982F9870277F922B909305
:104160007B00877020910C0290E4299F900111241C
:10417000822B80937C0080917A00806480937A0007
:1041800080917A0086FDFCCF8091780020917900A3
:1041900090E0922B089590E0FC013197E231F10517
:1041A00008F04BC0EE58FF4F7EC6809180008F779D
:1041B00003C0809180008F7D80938000089580915E
:1041C0008000877FF9CF84B58F7702C084B58F7D5B
:1041D00084BD08958091B0008F7703C08091B000B6
:1041E0008F7D8093B0000895809190008F7707C0F5
:1041F000809190008F7D03C080919000877F809395
:10420000900008958091A0008F7707C08091A00052
:104210008F7D03C08091A000877F8093A0000895C8
:10422000809120018F7707C0809120018F7D03C08E
:1042300080912001877F809320010895CF93DF93A1
:1042400090E0FC01EC57FE4F2491FC01E653FE4F39
:104250008491882349F190E0880F991FFC01E65D65
:10426000FD4FA591B491805F9D4FFC01C591D49104
:104270009FB7611108C0F8948C91209582238C938C
:10428000888182230AC0623051F4F8948C91322FD5
:10429000309583238C938881822B888304C0F89483
:1042A0008C91822B8C939FBFDF91CF9108950F93B8
:1042B0001F93CF93DF931F92CDB7DEB7282F30E047
:1042C000F901E25CFE4F8491F901EC57FE4F149125
:1042D000F901E653FE4F04910023C1F0882319F041
:1042E000698359DF6981E02FF0E0EE0FFF1FE05F87
:1042F000FD4FA591B4919FB7F8948C91611103C0C3
:104300001095812301C0812B8C939FBF0F90DF916B
:10431000CF911F910F910895FC01818D228D90E026
:10432000805C9F4F821B91098F7399270895FC0130
:10433000918D828D981731F0828DE80FF11D858D5A
:1043400090E008958FEF9FEF0895FC01918D828D8D
:10435000981761F0828DDF01A80FB11D5D968C91D9
:10436000928D9F5F9F73928F90E008958FEF9FEFE4
:1043700008958AE593E2892B39F080E090E0892B5B
:1043800019F098D1811125C080E090E0892B41F08F
:1043900080E090E0892B21F00E94000081111CC078
:1043A00080E090E0892B41F080E090E0892B21F0C3
:1043B0000E940000811113C080E090E0892BA1F0E1
:1043C00080E090E0892B81F00E94000081110AC0FA
:1043D00008950E940000D8CF0E940000E1CF0E9403
:1043E0000000EACF0C9400000895FC01848DDF01E9
:1043F000A80FB11DA35ABF4F2C91848D90E0019658
:104400008F739927848FA689B7892C93A089B18946
:104410008C9180648C93938D848D981306C0028850
:10442000F389E02D80818F7D80830895CF93DF9382
:10443000EC01888D8823C1F0EA89FB89808185FDA4
:1044400005C0A889B9898C9186FD0EC00FB607FCFE
:10445000F5CF808185FFF2CFA889B9898C9185FF3E
:10446000EDCFCE01C2DFE8CFDF91CF910895CF929B
:10447000DF92FF920F931F93CF93DF931F92CDB7DD
:10448000DEB76C0181E0D60158968C9358975B9605
:104490009C915B975C968C915C97981307C05096A3
:1044A000ED91FC915197808185FD2DC0F601038D22
:1044B00010E00F5F1F4F0F731127F02EF601848D50
:1044C000F81210C00FB607FCF9CFD6015096ED9147
:1044D000FC915197808185FFF1CFC601698385DF0B
:1044E0006981ECCF838DE80FF11DE35AFF4F6083A4
:1044F000D6015B960C935B975296ED91FC91539786
:10450000808180620CC0D6015696ED91FC91579740
:1045100060835096ED91FC915197808180648083F7
:1045200081E090E00F90DF91CF911F910F91FF906C
:10453000DF90CF900895BF92CF92DF92EF92FF92DB
:10454000CF93DF93EC016A017B01B22EE889F989F0
:1045500082E08083411581EE58076105710599F06D
:1045600060E079E08DE390E0A70196017AD42150D4
:1045700031094109510956954795379527952115D8
:1045800080E1380790F0E889F989108260E874E8E2
:104590008EE190E0A701960164D4215031094109D0
:1045A00051095695479537952795EC85FD853083BC
:1045B000EE85FF852083188EEC89FD89B082EA891B
:1045C000FB89808180618083EA89FB8980818860A2
:1045D0008083EA89FB89808180688083EA89FB89FE
:1045E00080818F7D8083DF91CF91FF90EF90DF906E
:1045F000CF90BF9008951F920F920FB60F92112483
:104600000BB60F922F938F939F93EF93FF93E091AD
:104610005B17F0915C178081E0916117F091621750
:1046200082FD12C09081809164178F5F8F732091FB
:104630006517821751F0E0916417F0E0E55BF84EE2
:10464000958F8093641701C08081FF91EF919F91B6
:104650008F912F910F900BBE0F900FBE0F901F9058
:1046600018951F920F920FB60F9211240BB60F924E
:104670002F933F934F935F936F937F938F939F936A
:10468000AF93BF93EF93FF938BE497E1AEDEFF917F
:10469000EF91BF91AF919F918F917F916F915F91BA
:1046A0004F913F912F910F900BBE0F900FBE0F9027
:1046B0001F9018958BE497E12FDE21E0892B09F4F8
:1046C00020E0822F089510924E1710924D1788EE19
:1046D00093E0A0E0B0E080934F1790935017A09321
:1046E0005117B093521783EA96E090934C1780933A
:1046F0004B1785EC90E0909358178093571784ECF4
:1047000090E090935A178093591780EC90E0909323
:104710005C1780935B1781EC90E090935E17809319
:104720005D1782EC90E09093601780935F1786ECA2
:1047300090E0909362178093611710926417109223
:10474000651710926617109267170895AF92BF927F
:10475000CF92DF92EF92FF920F931F93CF93DF934D
:104760006C017B01C0E0D0E000E010E0F601EC0F4E
:10477000FD1F4AE050E06281C701C2D15C016EE2D8
:10478000C701ADD08A0D9B1D080F191F2196C3309C
:10479000D10561F74AE050E0F6016581C701B0D16B
:1047A000800F911FDF91CF911F910F91FF90EF909C
:1047B000DF90CF90BF90AF90089523EB36E0FC01DF
:1047C00031832083128213821482158208950F93FD
:1047D000FC0183EB96E0918380836283438324838F
:1047E00005830F910895FB0140815181628173819E
:1047F000FC014283538364837583089583EB96E0C1
:104800009093E9178093E8171092EA171092EB172C
:104810001092EC171092ED170895CF92DF92EF925D
:10482000FF920F931F93CF93DF937C016A01EB01FB
:1048300000E010E00C151D0571F06991D701ED91B4
:10484000FC910190F081E02DC7011995892B19F099
:104850000F5F1F4FEFCFC801DF91CF911F910F91D5
:10486000FF90EF90DF90CF9008956115710581F072
:10487000DB010D900020E9F7AD0141505109461BC5
:10488000570BDC01ED91FC910280F381E02D19942E
:1048900080E090E00895EF92FF920F931F93CF93E3
:1048A000DF938C017B01C0E0D0E0F701EC0FFD1F2E
:1048B0006491662359F0F801A081B181ED91FC91DA
:1048C000C8011995892B11F02196EFCFCE01DF9108
:1048D000CF911F910F91FF90EF900895C6CFDC010B
:1048E000ED91FC910190F081E02D1994DB01ED91A7
:1048F000FC9111970190F081E02DBC01CD0119943C
:1049000065EB76E0B2CF0F931F93CF93DF93EC016B
:10491000C2DF8C01CE01F4DF800F911FDF91CF91B8
:104920001F910F9108950F931F93CF93DF93EC0185
:104930009CDF8C01CE01E4DF800F911FDF91CF91CE
:104940001F910F9108950F931F93CF93DF93EC0165
:10495000C6DF8C01CE01D4DF800F911FDF91CF9194
:104960001F910F9108950F931F93CF93DF93EC0145
:10497000BDDF8C01CE01C4DF800F911FDF91CF918D
:104980001F910F9108958F929F92AF92BF92DF92E5
:10499000EF92FF920F931F93CF93DF93CDB7DEB7C4
:1049A000A1970FB6F894DEBF0FBECDBF7C01F42FE8
:1049B000D52ECB0119A2223008F42AE08E010F5D1A
:1049C0001F4F822E912CA12CB12C6F2F7D2DA50174
:1049D000940147D2F22FD32ECA01015011096A3037
:1049E00014F4E0E301C0E7E3E60FD801EC93232BD6
:1049F000242B252B51F7B801C70137DFA1960FB63D
:104A0000F894DEBF0FBECDBFDF91CF911F910F9104
:104A1000FF90EF90DF90BF90AF909F908F900895A0
:104A2000CF92DF92EF92FF920F931F93CF93DF937A
:104A3000EC016A017B012115310579F4E881F981E6
:104A40000190F081E02D642FDF91CF911F910F91A4
:104A5000FF90EF90DF90CF9019942A303105D9F470
:104A600077FF18C06DE23BDF8C0144275527BA0160
:104A70004C195D096E097F092AE0CE0184DF800FA1
:104A8000911FDF91CF911F910F91FF90EF90DF90D9
:104A9000CF9008952AE0B701A601CE01DF91CF9112
:104AA0001F910F91FF90EF90DF90CF906CCF9A0104
:104AB000AB01662757FD6095762FB2CF0F931F93FA
:104AC000CF93DF93EC019A01AB01662757FD609508
:104AD000762FA6DF8C01CE0113DF800F911FDF91AF
:104AE000CF911F910F9108952115310541F4DC01FB
:104AF000ED91FC910190F081E02D642F199443CF4A
:104B00009A01462F50E060E070E0EECF0F931F93C4
:104B1000CF93DF93EC019A01462F50E060E070E004
:104B2000E3DF8C01CE01ECDE800F911FDF91CF918E
:104B30001F910F9108950F931F93CF93DF93EC0173
:104B40009A01AB0160E070E0CFDF8C01CE01D8DECE
:104B5000800F911FDF91CF911F910F9108950F93B7
:104B60001F93CF93DF93EC01BFDF8C01CE01C8DE32
:104B7000800F911FDF91CF911F910F9108950F9397
:104B80001F93CF93DF93EC0119DA688779878A87BF
:104B90009B87E881F9810680F781E02DCE01199588
:104BA00097FF14C00BDA088519852A853B85601BA1
:104BB000710B820B930B0C811D812E813F8160173D
:104BC00071078207930728F38FEF9FEFDF91CF9153
:104BD0001F910F910895CF92DF92EF92FF920F9362
:104BE0001F93CF93DF937C016A01EB0100E010E09B
:104BF0000C151D0541F0C701C2DF97FD04C0899364
:104C00000F5F1F4FF5CFC801DF91CF911F910F911B
:104C1000FF90EF90DF90CF90089570E09B01382BCC
:104C2000C9010895FC0180819181F3C1CF93DF9385
:104C3000EC0188819981009709F0EBD119821882E3
:104C40001D821C821B821A82DF91CF9108950F93DF
:104C50001F93CF93DF93EC018B016F5F7F4F8881B0
:104C6000998166D2009731F0998388831B830A83E8
:104C700081E001C080E0DF91CF911F910F910895F5
:104C8000CF93DF93EC0188819981892B29F08A8168
:104C90009B818617970758F4CE01D9DF882341F00E
:104CA0008C819D81892B19F4E881F981108281E042
:104CB000DF91CF910895EF92FF920F931F93CF93BF
:104CC000DF93EC017B018A01BA01DADF811103C0B5
:104CD000CE01ACDF06C01D830C83B70188819981AA
:104CE00021D3CE01DF91CF911F910F91FF90EF90D3
:104CF0000895FC011182108213821282158214829F
:104D00006115710551F0FB0101900020E9F7AF0139
:104D100041505109461B570BCECF0895CF93DF93D7
:104D2000EC01FB018617970751F0608171816115D5
:104D3000710521F044815581BEDF01C077DFCE01CE
:104D4000DF91CF910895FC011182108213821282AB
:104D500015821482E3CFEF92FF920F931F93CF93AC
:104D6000DF93EC017B010C811D816115710511F44C
:104D700080E014C04115510581F0040F151FB801E2
:104D80007FDF8823A9F3288139818C819D81B70138
:104D9000820F931FC7D21D830C8381E0DF91CF91D7
:104DA0001F910F91FF90EF900895CF93DF93EC0147
:104DB000FB014481558160817181CDDF811102C089
:104DC000CE0134DFCE01DF91CF9108950F931F9371
:104DD000CF93DF93EB0141155105E1F02097D1F01E
:104DE000FC01648175812617370798F4621B730BE9
:104DF0008A01015011096017710708F48B01FC0149
:104E000060817181620F731FA801CE0192D2C00F21
:104E1000D11F1882DF91CF911F910F9108950895AE
:104E200033D9FDDF0E944304C9EBD1E20E94A506FD
:104E30002097E1F39EDAFACF54C0EBC097FB072E20
:104E400016F4009406D077FD08D037D007FC05D0C3
:104E50003EF4909581959F4F0895709561957F4F91
:104E60000895A1E21A2EAA1BBB1BFD010DC0AA1FAB
:104E7000BB1FEE1FFF1FA217B307E407F50720F0C3
:104E8000A21BB30BE40BF50B661F771F881F991F3E
:104E90001A9469F760957095809590959B01AC0187
:104EA000BD01CF010895EE0FFF1F0590F491E02D95
:104EB00019940790F691E02D1994AA1BBB1B51E1A0
:104EC00007C0AA1FBB1FA617B70710F0A61BB70B7A
:104ED000881F991F5A95A9F780959095BC01CD011F
:104EE0000895CF93DF938230910510F482E090E033
:104EF000E091F017F091F11720E030E0A0E0B0E091
:104F0000309739F14081518148175907B8F0481757
:104F1000590771F482819381109729F013969C931D
:104F20008E9312972CC09093F1178093F01727C09F
:104F30002115310531F04217530718F0A901DB01A3
:104F400001C0EF019A01BD01DF010280F381E02D74
:104F5000D7CF21153105F9F0281B390B2430310545
:104F600080F48A819B816115710521F0FB01938397
:104F7000828304C09093F1178093F017FE0132965C
:104F800044C0FE01E20FF31F819391932250310937
:104F9000398328833AC02091EE173091EF17232BE5
:104FA00041F420910202309103023093EF172093D5
:104FB000EE1720910002309101022115310541F4D4
:104FC0002DB73EB74091040250910502241B350BCA
:104FD000E091EE17F091EF17E217F307A0F42E1B04
:104FE0003F0B2817390778F0AC014E5F5F4F24174D
:104FF000350748F04E0F5F1F5093EF174093EE17A1
:105000008193919302C0E0E0F0E0CF01DF91CF9176
:105010000895CF93DF93009709F487C0FC0132977E
:1050200013821282C091F017D091F117209781F46A
:1050300020813181280F391F8091EE179091EF1751
:105040008217930779F5F093EF17E093EE176DC091
:10505000DE0120E030E0AE17BF0750F412964D910C
:105060005C9113979D014115510509F1DA01F3CFC8
:10507000B383A28340815181840F951F8A179B07B8
:1050800071F48D919C911197840F951F02969183D5
:10509000808312968D919C9113979383828321151F
:1050A000310529F4F093F117E093F0173EC0D901D0
:1050B0001396FC93EE9312974D915D91A40FB51F3B
:1050C000EA17FB0779F480819181840F951F02967E
:1050D000D90111969C938E938281938113969C9310
:1050E0008E931297E0E0F0E08A819B81009719F09F
:1050F000FE01EC01F9CFCE01029628813981820FA1
:10510000931F2091EE173091EF172817390769F494
:10511000309729F41092F1171092F01702C0138201
:105120001282D093EF17C093EE17DF91CF910895BD
:105130006F927F928F929F92AF92BF92CF92DF92A7
:10514000EF92FF920F931F93CF93DF93EC01CB016C
:10515000209779F4DF91CF911F910F91FF90EF90FD
:10516000DF90CF90BF90AF909F908F907F906F9087
:10517000B8CEFE01E60FF71F9E0122503109E2175B
:10518000F30708F4A8C0D9010D911C9111970617D7
:105190001707B0F00530110508F49BC0A801445072
:1051A00051094617570708F494C002501109061B0D
:1051B000170B019311936D937C93CF012ADF89C064
:1051C0005B01A01AB10A4E01800E911EA091F0174A
:1051D000B091F117612C712C60E070E0109709F428
:1051E00049C0A815B905C9F5ED90FC901197670164
:1051F00042E0C40ED11CCA14DB0478F147018A18BE
:105200009B08640142E0C40ED11C1296BC90129718
:105210001396AC91B5E0CB16D10440F0B282A383D3
:1052200091828082D9018D939C9309C00E5F1F4F9C
:105230000E0D1F1DF90111830083EB2DFA2F61154F
:10524000710531F0DB011396FC93EE93129741C088
:10525000F093F117E093F0173CC06D917C9111979A
:105260006616770608F43B01BD0112960D90BC91BD
:10527000A02DB4CF6091EE177091EF1768157905E6
:10528000E9F468167906D0F44091000250910102C9
:105290004115510541F44DB75EB76091040270911C
:1052A0000502461B570BE417F507A8F4F093EF1718
:1052B000E093EE17F901918380830BC012DE7C012D
:1052C000009749F0A801BE0124D0CE01A2DEC7019B
:1052D00004C0CE0102C080E090E0DF91CF911F9129
:1052E0000F91FF90EF90DF90CF90BF90AF909F9085
:1052F0008F907F906F900895FB01DC0104C08D9129
:105300000190801921F441505040C8F7881B990B37
:105310000895FB01DC0102C001900D924150504004
:10532000D8F70895FB01DC0101900D920020E1F710
:105330000895FB01DC014150504048F001900D926E
:105340000020C9F701C01D9241505040E0F7089578
:04535000F894FFCFFF
:105354000000F21780000100000000C00101005E9F
:105364000000000000FF00FF008C050400000000A6
:105374002001FEA2A3A4A5A6A7C0C1C2C3C4C5C6DA
:10538400C7FFFFAA998877665544332211000000AD
:105394000F20005400FF0406E10400800000000711
:1053A400D276000085010144454255473A20636C9A
:1053B40069656E7420636F6E6E6563746564210045
:1053C40044454255473A206C696768742073656E9A
:1053D400736F72203D200044454255473A20737450
:1053E40061727420766962206D6561737572656D92
:1053F400656E74206174200044454255473A206527
:105404006E6420766962206D6561737572656D6581
:105414006E742061667465722000494E464F3A20CE
:105424006D696E203D2000494E464F3A206D6178EB
:10543400203D2000494E464F3A206D6178202D20B2
:105444006D696E203D200044454255473A20646F03
:105454006E652073656E64696E6700444542554706
:105464003A206D61785F76616C7565203D2000445B
:10547400454255473A206D696E5F76616C756520CB
:105484003D200044454255473A206E6577207468B4
:10549400726573686F6C64203D2000444542554733
:1054A4003A20417564696F204D6561737572656D4D
:1054B400656E74733A200044454255473A2056615C
:1054C4007269616E63653A20004552524F523A2028
:1054D400696E76616C696420737472696E67206C9E
:1054E400656E67746820746F20636F6E766572747E
:1054F4003A20004552524F52313A20696E76616C1F
:1055040069642068657820737472696E673A200054
:105514004552524F52323A20696E76616C6964206A
:1055240068657820737472696E6700494E464F3A15
:105534002073657276657220737461727465642E6B
:10554400204950203D2000494E464F3A20636F6E5B
:105554006E656374696F6E2077696C6C2074696D15
:1055640065206F7574206166746572200020736510
:10557400636F6E6473210044454255473A20636C5F
:1055840069656E7420646973636F6E6E65637465B8
:1055940064004552524F523A20656D756C617465D2
:1055A4004E66635461673A20726563656976656423
:1055B4002000206279746573006D61782D206E641B
:1055C4006566206C656E677468203D20004E6465D6
:1055D40066204D6573736167653A200053544152E8
:1055E4005445445F4E46435F454D554C4154494FE5
:1055F4004E002D2D2D2D2D2D2D20456D756C617496
:105604006520546167202D2D2D2D2D2D2D2D006EFF
:1056140064656642756620697320746F6F20736DCC
:10562400616C6C004E64656620656E636F646564CE
:10563400206D6573736167652073697A653A20002C
:1056440074696D6564206F75740044454255473A2A
:10565400206E66632074616720656D756C61746586
:105664000044454255473A20766962726174696F15
:105674006E206D6561737572656D656E740031566B
:105684004942524154494F4E5F454E4400305649B9
:1056940042524154494F4E5F454E440044454255A1
:1056A400473A206C69676874206D6561737572652B
:1056B4006D656E7400314C494748545F454E440053
:1056C400304C494748545F454E4400444542554791
:1056D4003A2063616C6962726174652076696272F2
:1056E4006174696F6E2073656E736F720044454216
:1056F40055473A20617564696F20696E707574202E
:105704006D6561737572656D656E740031415544E4
:10571400494F5F454E440030415544494F5F454E23
:1057240044005741524E494E473A20756E6B6E6F96
:10573400776E20636F6D6D616E64004552524F52F7
:105744003A20636F6E6E656374696F6E2074696D61
:10575400656F757421004552524F523A20696E7636
:10576400616C696420636F6D6D616E642072656342
:1057740065697665643A200000000000A00BC90B3F
:10578400E20BEA0B060C280CB10C2C0C030C090DD3
:10579400400DB60B910B940BBE0B960B0000000052
:1057A4006E0D2B0E840D00000000110F460F0D0F1F
:1057B400590F9D0F270FB50F280F3C0FD710430F1C
:1057C400E00F810FF20EF90E090F341000000000F3
:1057D40075178A17EF18BF17496E20456D756C61F0
:1057E4007465322E35005800656E00732C2000005D
:1057F40000000037220D248C21A5219721162200B8
:10580400000000A6230D0A006E616E00696E66003A
:065814006F7666002E0015
:00000001FF
