:100000002AC1000059C1000057C1000055C10000BD
:1000100053C1000051C100004FC100004DC100009C
:100020004BC1000049C1000047C1000045C10000AC
:1000300043C1000041C100003FC100003DC10000BC
:100040003BC1000039C1000037C1000035C10000CC
:1000500033C1000031C100002FC100000C94D21D3B
:100060002BC100000C94CA1F0C94002025C1000075
:1000700023C1000021C100001FC100001DC10000FC
:100080001BC1000019C1000017C1000015C100000C
:1000900013C1000011C100000FC100000DC100001C
:1000A0000BC1000009C1000007C1000005C100002C
:1000B00003C1000001C10000FFC00000FDC000003E
:1000C000FBC00000F9C00000F7C00000F5C0000050
:1000D000F3C00000F1C00000EFC00000EDC0000060
:1000E000EBC00000211F241F131F171F1D1F5B1FC4
:1000F000281F2C1F321F361F3A1F401F441F481F46
:100100005B1F4E1F521F561F5741524E494E473AD2
:1001100020546F6F206D616E79207265636F726419
:10012000732E20496E637265617365204D41585F7F
:100130004E4445465F5245434F5244532E00000003
:100140000A0B02090C0D0E08070304010000000051
:10015000000000000000000000000000000000009F
:10016000000000000000000000001211100000005C
:10017000000000000000000000000000000000007F
:10018000000000000102102020080810204010206C
:10019000408002010201080402010102040810204B
:1001A0004080804020100804020180040201804049
:1001B00020100804020108040201010204081020B2
:1001C0004080010204081020408005050505070550
:1001D00008080808020202020A0A080804040404C3
:1001E00001010101010101010303030303030303EF
:1001F000040707070C0C0C0C0C0C0C0C020202027E
:1002000006060606060606060B0B0B0B0B0B0B0B66
:1002100000002200250028002B002E0031003400B1
:1002200002010000050108010B010000210024006B
:1002300027002A002D0030003300010100000401D6
:1002400007010A0132036205AD05D009B00B340D78
:100250007F0F3220CD2011241FBECFEFD1E2DEBFB1
:10026000CDBF00E00CBF13E0A0E0B2E0E8EAFDE49F
:1002700000E00BBF02C007900D92A437B107D9F779
:1002800024E1A4E7B3E001C01D92A03AB207E1F770
:1002900012E0C6E5D2E000E006C022970109FE01A7
:1002A0000BBF0E948324C434D10780E00807A9F75C
:1002B0000E942B230C94D226A3CE61E08AE00E94F8
:1002C000951F8CB580628CBD0895893009F4F5CFF7
:1002D0008A3039F461E089E00E94951F8CB58F7DEA
:1002E0008CBD08950E941C1E605F784D8F4F9F4FFC
:1002F00060937C1370937D1380937E1390937F1390
:100300000895CF93DF93CDB7DEB72D970FB6F8944E
:10031000DEBF0FBECDBF6DE873E1CE0101960E9436
:10032000CC0C8B819C8190938313809382138D815D
:100330009E81AF81B8858093841390938513A09399
:100340008613B093871389859A85AB85BC85809386
:10035000881390938913A0938A13B0938B138D8580
:1003600080938C1362E070E080E090E00E944B1E6E
:1003700080E893E10E94030A882369F261E087E242
:100380000E94951FAFDF2D960FB6F894DEBF0FBE0B
:10039000CDBFDF91CF910895CF92DF92EF92FF9280
:1003A000C0907C13D0907D13E0907E13F0907F136B
:1003B0000E941C1E21E0C616D706E806F90608F0C2
:1003C00020E0822FFF90EF90DF90CF90089580E49F
:1003D0000E94E41E21E0843F91400CF020E0822F37
:1003E0000895CF93DF93C0E0D0E081E40E94E41E43
:1003F000FE01EE0FFF1FE458FC4F9183808321968E
:10040000C11568E0D60789F780E090E02FEF33E070
:1004100040E050E0FC01EE0FFF1FDF01A458BC4F8D
:100420006D917C9111974617570710F44D915C918F
:10043000E458FC4F608171816217730710F42081CA
:1004400031810196811568E0960721F7421B530B15
:1004500081E020917A0330917B032417350708F05F
:1004600080E0DF91CF910895CF93DF93C0E0D0E09B
:1004700081E40E94E41EFE01EE0FFF1FE458FC4FD2
:10048000918380832196C11568E0D60789F780E0C3
:1004900090E02FEF33E040E050E0FC01EE0FFF1F53
:1004A000DF01A458BC4F6D917C91119746175707F7
:1004B00010F44D915C91E458FC4F6081718162179A
:1004C000730710F4208131810196811568E0960749
:1004D00021F7421B530BCA01880F991F840F951FE8
:1004E00090937B0380937A03DF91CF910895AF922D
:1004F000BF92CF92DF92EF92FF920F931F93CF9311
:10050000DF93CDB7DEB7A8970FB6F894DEBF0FBE66
:10051000CDBF6E0189E2C80ED11C8E010F5F1F4F47
:10052000E12CF12C86E30E94E41E5C01F80181932A
:1005300091938F0164E670E080E090E00E944B1E92
:10054000EA0CFB1C0C151D0569F7C70164E170E09E
:100550000E944824FE01319620E030E08191919183
:10056000861B970B889FA001899F500D500D112469
:10057000240F351FEC15FD0589F781E02C3331057B
:100580000CF480E0A8960FB6F894DEBF0FBECDBF86
:10059000DF91CF911F910F91FF90EF90DF90CF905F
:1005A000BF90AF9008950F931F93CF93DF93D9011E
:1005B00040FD0DC08A019B0136952795179507953B
:1005C000FD01DC01119640E050E0BA011EC081E05F
:1005D00044C0ED012197888190ED980F9A30D8F4AE
:1005E0008081C0E19C9F800D112480838C9190EDCF
:1005F000980F9A3010F590819053980F90834F5F29
:100600005F4F6F4F7F4F3196129640175107620729
:100610007307F9F621C09FE9980F963010F48755BB
:1006200005C09FEB980F963090F687539081C0E1FC
:100630008C9F900D11249083D9CF9FE9980F96300D
:1006400018F490819755D9CF9FEB980F963008F00A
:10065000BECF90819753D1CF80E0DF91CF911F9192
:100660000F9108950F9300E020E040E060E08FE9F3
:1006700093E10E94B62009E028E048EA60EC89E9AD
:1006800093E10E94B62065E87AE18DE893E10E944B
:10069000110C80E893E187D749E069EA73E184E7C8
:1006A00093E00F910C94EB15CF93DF9300D000D023
:1006B000CDB7DEB761E087E20E945C1F61E08AE0AF
:1006C0000E945C1F60E080E40E945C1F61E08AE0A1
:1006D0000E94951F60E087E20E94951FEEDD8EED7F
:1006E000809393138DEA809394138EEB80939513EC
:1006F0008FEE809396138EEF809397138DEE8093F9
:1007000098138AE0E2DD81E593E09A838983809102
:100710009B1390919C13A0919D13B0919E138B837A
:100720009C83AD83BE83AE014F5F5F4F63E973E18E
:1007300086EB93E1E8D58DE893E10E94D10B94DE3E
:1007400026960FB6F894DEBF0FBECDBFDF91CF91D6
:100750000895CF93DF931F92CDB7DEB780E893E182
:100760007ED6892B11F48FEF0DC0198241E050E045
:10077000BE016F5F7F4F80E893E10E940622892BC4
:1007800091F389810F90DF91CF91089580E893E1F3
:100790006ED6019639F062E070E080E090E00E9451
:1007A0004B1EF4CF80E893E181D760E087E20C94A0
:1007B000951FCF92DF92EF92FF920F931F93CF93EB
:1007C000DF93CDB7DEB7C55CD1400FB6F894DEBF7E
:1007D0000FBECDBFEDB6FEB664E773E0CE01019665
:1007E0000E946017CE52DF4F19821882C25DD0403E
:1007F000CC52DF4F1882C45DD04081E0CB52DF4F36
:100800008883C55DD040CA52DF4F19821882C65D09
:10081000D040CE0101960E94EC188E0108521F4F65
:1008200088E7F80111928A95E9F7CE018A579E4F21
:100830000E94F21ACB53DE4F1882C55CD140CE53D2
:10084000DE4F188219821A82C25CD14041E050E02A
:10085000BE016B537E4F80E893E122D6019709F0E9
:10086000A6C046E050E0BE0164547E4F80E893E1AC
:100870000E9406229E012E533E4F46E050E060E06B
:1008800070E0CE0184549E4F8EDE8DB79EB78054AB
:1008900091090FB6F8949EBF0FBE8DBFEDB7FEB79E
:1008A00031966F0140E450E0BF0180E893E10E947F
:1008B000062281E0CB53DE4F9881C55CD140903356
:1008C00009F080E0CB52DF4F8883C55DD04067E5FB
:1008D00072E080E893E10E945721CE01805B9E4F39
:1008E0000E94F21ABE01605B7E4FCE018A579E4F76
:1008F0000E94231BCE01805B9E4F0E940E1BB601FF
:10090000CE01805B9E4F0E949422BE01605B7E4FB1
:10091000CE018A579E4F0E94FF1BCE01805B9E4FE7
:100920000E942D22CE018A579E4F0E94851B6C018A
:100930008937910530F06DE672E089EF93E10E940E
:100940005721B801CE018A579E4F0E94AD1BA601C8
:10095000B801CE0101960E94F418BE016E537E4F7D
:10096000CE0101960E940219CE0101960E94EC1858
:1009700068E873E1CE0101960E94321968E873E1DC
:10098000CE0101960E943219811106C062E872E020
:1009900089EF93E10E945721CE018A579E4F0E9412
:1009A0000E1B0FB6F894FEBE0FBEEDBE05C0CE0105
:1009B0008A579E4F0E940E1B0FB6F894FEBE0FBEC4
:1009C000EDBECB53DE4F0FB6F894DEBF0FBECDBFEA
:1009D000DF91CF911F910F91FF90EF90DF90CF901B
:1009E00008958233A9F028F4803341F0813339F03F
:1009F00008958333B1F08433A9F00895DACEF1DCA1
:100A0000882319F06CE872E015C06BE972E012C03F
:100A1000DEDC882319F06AEA72E00CC065EB72E054
:100A200009C022CD64DD882319F060EC72E002C0B9
:100A30006BEC72E080E893E10C94572162DC80E873
:100A400093E16BD6882311F0A7DC81119FCE81DE64
:100A50008F3FE1F3C6DFF3CFCF93CFB7F894809108
:100A6000A813811127C0EFEFF1E08491E9EBF1E0E9
:100A70009491E82FF0E0EE0FFF1FE65DFD4FA5918A
:100A8000B4918C91892321F461E085E30E94951F44
:100A900061E085E30E945C1F8CB580618CBD8CB5E4
:100AA00080648CBD61E084E30E945C1F61E083E3AD
:100AB0000E945C1F8091A8138F5F8093A813CFBF03
:100AC000CF9108950F9300E020E040E060E08AEAD3
:100AD00093E10E94B6200F910895FB01428153815A
:100AE00064817581FC01428353836483758317821B
:100AF00016820895FB0120E080E090E06AE03191E9
:100B0000332309F170ED730F7A3080F4DC016A9FB2
:100B1000C0016B9F900D1124C097830F911D37FD6D
:100B20009A958F3F910559F350F314C03E3291F4DA
:100B3000233081F0DA01A20FB11D12968C932F5F42
:100B400080E090E0DCCF233029F4FA01858381E056
:100B500090E0089580E090E008950F9300E020E099
:100B600040E060E080EB93E10E94B6200F91089591
:100B7000AF92BF92CF92DF92EF92FF920F931F93AB
:100B8000CF93DF9300D01F921F92CDB7DEB78C01B9
:100B90007B010E941C1EF8017783668376276727F6
:100BA00076277A836983085F1F4F42E050E0BE01D9
:100BB0006F5F7F4FC801B7D781E090E09C838B8344
:100BC00042E050E0BE016D5F7F4FC801ACD780E0CE
:100BD00091E09C838B8342E050E0BE016D5F7F4FCC
:100BE000C801A1D71C821B8242E050E0BE016D5FAC
:100BF0007F4FC80198D742E050E0BE016D5F7F4F44
:100C0000C80191D742E050E0BE016D5F7F4FC8013F
:100C10008AD76701F6018081882301F1F7016F010E
:100C20008191811113C05601AE18BF081A141B041C
:100C300084F4AD8241E050E0BE016B5F7F4FC8019C
:100C400072D7A501B701C8016ED703C08E3239F73C
:100C5000EACF7601FFEFEF1AFF0ADCCF1D8241E0F9
:100C600050E0BE016B5F7F4FC8015DD7E12CFF24D0
:100C7000F394FC82EB8242E050E0BE016D5F7F4F57
:100C8000C80151D7FC82EB8242E050E0BE016D5FAB
:100C90007F4FC80148D781E090E00F900F900F90F0
:100CA0000F900F90DF91CF911F910F91FF90EF90D8
:100CB000DF90CF90BF90AF9008954F925F926F9268
:100CC0007F928F929F92AF92BF92CF92DF92EF92DC
:100CD000FF920F931F93CF93DF93CDB7DEB7639748
:100CE0000FB6F894DEBF0FBECDBF7C015B016A0179
:100CF0000E941C1E2B013C018701085F1F4F45010C
:100D0000A12CB12CC801A9D71816190694F00E947D
:100D10001C1E641975098609970986169706A80688
:100D2000B906D0F062E370E080E090E00E944B1ED4
:100D3000E9CFF7014281538164817581808D918D66
:100D4000A28DB38D481759076A077B0741F4848D3C
:100D5000958DC59721F406C08FEF9FEFE1C08EEF10
:100D60009FEFDEC0C801A6D60C97E4F04CE050E03F
:100D7000BE016F5F7F4FC80111D76C818B810E94CC
:100D800028229A8B898BF701E680F7806A81898116
:100D90000E942822E816F90641F489899A8997FF6A
:100DA00004C008C08DEF9FEFBBC0C8019DD68CEF7B
:100DB0009FEFB6C08F709270892B29F0C80194D62E
:100DC0008BEF9FEFADC068858F810E9428225C0168
:100DD000009719F0E12CF12C1DC0C80185D68AEFCF
:100DE0009FEF9EC041E050E0BE01635F7F4FC801AE
:100DF000D5D68D85811116C08D858111F3CFC8019F
:100E0000A5D6C801A3D6C801A1D6C8019FD6FFEFB9
:100E1000EF1AFF0A6E818D810E942822E816F906DA
:100E200008F309C08D859FEF980F9D87882321F3D4
:100E3000C8018CD6F7CFE12CF12C41E050E0BE0187
:100E40006D5E7F4FC801AAD68B89982F907C59F48C
:100E5000882361F08B899FEF980F9B8B882331F05B
:100E6000C80174D6F7CFC80171D61B8A8B8981114E
:100E7000E4CF42E050E0BE01615F7F4FC8018ED6F3
:100E800042E050E0BE01635F7F4FC80187D6C801D2
:100E90005DD6C8015BD6C80159D6C80157D642E015
:100EA00050E0BE016F5E7F4FC80178D68F8598896C
:100EB0008115914029F48D859E858115914019F009
:100EC000812C912C14C089899A898115944029F02C
:100ED000C8010AD687EF9FEF23C0B6016E5F7F4F30
:100EE00044E050E0C8015AD681E090E019C08989F9
:100EF0009A899827892798278816990630F4C80177
:100F000025D62FEF821A920AF2CF8FEFE81AF80A4D
:100F1000EA14FB0409F091CFC801E6D586EF9FEFF4
:100F200063960FB6F894DEBF0FBECDBFDF91CF91B1
:100F30001F910F91FF90EF90DF90CF90BF90AF90F7
:100F40009F908F907F906F905F904F9008958F92B9
:100F50009F92AF92BF92CF92DF92EF92FF920F9348
:100F60001F93CF93DF9300D000D0CDB7DEB78C01B5
:100F70005B016A01BFDD4C01009709F057C0F80121
:100F800042815381648175818091B2139091B31332
:100F9000A091B413B091B513481759076A077B079E
:100FA00009F448C00E941C1E7801F8E0EF0EF11C05
:100FB0006F7077277C5FC70125D6813009F03EC06E
:100FC00081E593E09A838983F80182819381A481EA
:100FD000B5818B839C83AD83BE8345E350E0BE0126
:100FE0006F5F7F4FC70195D5892B19F4812C912C08
:100FF0001AC0B501C801BCDD892BC1F3C70190D56A
:10100000892BA1F333E0A32EB12CA60168E873E18C
:10101000C80153DE4C01F1E0AF1AB10821F08F3F57
:101020002FEF920791F3C70160D508C088248394FD
:10103000912C04C09EEF892E99249A94C40126967F
:101040000FB6F894DEBF0FBECDBFDF91CF911F91D9
:101050000F91FF90EF90DF90CF90BF90AF909F9057
:101060008F9008952091A713222399F03FB7F89409
:101070002091A713213059F42DB32093A5134DB31C
:101080002091A613209524232DBB3FBF02C030938F
:10109000A5138CBD9DBD08958091A713882361F091
:1010A0009FB7F8942091A7138091A513213019F4CC
:1010B0008DBB9FBF08958FBF089544E050E0BC01F1
:1010C00081E090E00C94E11344E050E0BC0185E045
:1010D00090E00C94E11344E050E0BC018FE090E01C
:1010E0000C94E1138F929F92AF92BF92CF92DF92B6
:1010F000EF92FF920F931F93CF93DF931F921F9254
:10110000CDB7DEB74C016A01590180EE93E16983E6
:101110007A830E947C1380E590E0A4DF46E050E0F3
:1011200069817A8189E090E00E94E113C60102960C
:10113000D2DFC8010296C1DFC7010296C5DFACDF6E
:10114000F5014281538164817581F40142835383A7
:10115000648375830F900F90DF91CF911F910F9152
:10116000FF90EF90DF90CF90BF90AF909F908F90C7
:1011700008956F927F928F929F92AF92BF92CF927B
:10118000DF92EF92FF920F931F93CF93DF93CDB730
:10119000DEB76E970FB6F894DEBF0FBECDBF6C0101
:1011A0005B017A014901380100E02FEF4FEF6FEF4B
:1011B000CE0149960E94B62021E533E03A83298387
:1011C0008B8D9C8DAD8DBE8D8B839C83AD83BE83BB
:1011D00038872F83F30182819381A481B581898728
:1011E0009A87AB87BC873E872D87F40182819381E4
:1011F000A481B5818F87988BA98BBA8B3C8B2B8B65
:10120000F70142815381648175814D8B5E8B6F8BB9
:10121000788FCE0101967C018E01095F1F4F9E01E0
:10122000235F3F4FAE014D5E5F4FB501C6015ADFF0
:101230006E960FB6F894DEBF0FBECDBFDF91CF9193
:101240001F910F91FF90EF90DF90CF90BF90AF90E4
:101250009F908F907F906F900895CF92DF92EF9242
:10126000FF920F931F93CF93DF93CDB7DEB76897AD
:101270000FB6F894DEBF0FBECDBF6B017901DA0166
:1012800012964D915D916D917C9115974D8B5E8B72
:101290006F8B788FA1E5B3E0BA83A98321E0288F13
:1012A0000D891E892F89388D0B831C832D833E83E6
:1012B000B887AF83F70102811381248135810987C3
:1012C0001A872B873C87BE87AD874F87588B698BE2
:1012D0007A8B8E010F5F1F4F9E01295F3F4FAE013A
:1012E000435F5F4FB60145DF68960FB6F894DEBFE7
:1012F0000FBECDBFDF91CF911F910F91FF90EF9067
:10130000DF90CF9008950F931F93CF93DF93CDB7C6
:10131000DEB762970FB6F894DEBF0FBECDBFDB011C
:10132000FA0142815381648175814F87588B698BA3
:101330007A8BE1E5F3E0FA83E98321E02A8B0F85DC
:10134000188929893A890B831C832D833E83F8876A
:10135000EF8349875A876B877C879E012F5F3F4FBA
:10136000AE01495F5F4FBD0178DF62960FB6F8941A
:10137000DEBF0FBECDBFDF91CF911F910F910895BA
:1013800021E533E0FC0131832083FB01428153815D
:1013900064817581FC01428353836483758308955E
:1013A0000F9300E020E040E060E086EC93E10E94D3
:1013B000B62086EB93E10F910C94AC2081E0862758
:1013C0000895862F0895DC01ED91FC91048CF58D34
:1013D000E02D199591E089270895CF93DF931F920F
:1013E000CDB7DEB76983DC01ED91FC910280F3811A
:1013F000E02D41E050E0BE016F5F7F4F19950F90E7
:10140000DF91CF91089521E0FC018485843009F4B7
:1014100020E0822F0895FC019485FB0184859813B8
:1014200003C081E0943009F480E008950F931F9386
:10143000CF93DF93EC018A018C85843019F021D79A
:10144000892B39F481E090E09B838A8380E090E0EF
:1014500001C0C801DF91CF911F910F910895FC0148
:101460008485843009F0F4C780E090E00895CF933C
:10147000DF931F92CDB7DEB741E050E0BE016F5F52
:101480007F4FFC01848588D7181619061CF48981C2
:1014900090E002C08FEF9FEF0F90DF91CF91089502
:1014A000FC01848579C70F931F93CF93DF931F921D
:1014B000CDB7DEB78C01DC01ED91FC910480F581A4
:1014C000E02D1995892B49F0BE016F5F7F4FF80120
:1014D0008485E7D7898190E002C08FEF9FEF0F905E
:1014E000DF91CF911F910F910895FC0184850C9499
:1014F0007F12CF92DF92EF92FF920F931F93CF93C1
:10150000DF93CDB7DEB7AF970FB6F894DEBF0FBE4F
:10151000CDBF7C018B016A01CE0101960E94AC20F7
:10152000CE01099677D4CE018A960E94AC2066EB54
:1015300073E1CE01849624DFBE016C5D7F4FCE0146
:101540000196CBDAAE01465D5F4FB801CE01019640
:10155000FEDC81309105C1F4D701ED91FC9104844A
:10156000F585E02D81E593E09DA38CA30CA51DA539
:101570002EA53FA50EA31FA328A739A7A601BE012C
:101580006C5D7F4FC7011995AF960FB6F894DEBF1B
:101590000FBECDBFDF91CF911F910F91FF90EF90C4
:1015A000DF90CF900895FC011382128248EE53E041
:1015B00060E070E044835583668377838AED92E030
:1015C0009183808384E084870895FC01262F138211
:1015D000128248EE53E060E070E0448355836683F6
:1015E00077838AED92E09183808324870895FC01BC
:1015F0008485843009F001C580E00895DF92EF9280
:10160000FF920F931F93CF93DF93EC017B018A012D
:101610008C85843009F040C0D12C8D2DEED4811101
:1016200002C0DC8607C08B7F8831D9F3D39484E075
:10163000D812F3CF8C85843079F120910A02309151
:101640000B022F5F3F4F11F420E030EC30930B0280
:1016500020930A0240910A0250910B0220E061E0BF
:1016600016D5B7016E5F7F4FA8018C8590D581118B
:1016700003C084E08C8710C0CE01B9DF873149F008
:1016800061E070E080E090E00E944B1ECE01AFDF91
:10169000EECF81E090E002C080E090E0DF91CF915A
:1016A0001F910F91FF90EF90DF900895CF92DF92FE
:1016B000EF92FF92CF93DF93EC018C85843031F170
:1016C000BBD50E941C1E6B017C01CE0190DF8823DC
:1016D00099F061E070E080E090E00E944B1E0E9473
:1016E0001C1E6C197D098E099F09683E7340810597
:1016F000910558F38C85A4D4EC85F0E0EE0FFF1F24
:10170000E254FC4E1182108284E08C87DF91CF91ED
:10171000FF90EF90DF90CF900895CF93DF93EC018F
:101720008C858430C9F0CE0162DF8431A9F0882332
:1017300099F0883189F08C3169F4E881F98104806D
:10174000F581E02DCE01199521E0892B09F420E0E7
:10175000822F03C081E001C080E0DF91CF91089526
:101760000F9300E020E040E060E08CEC93E10E9409
:10177000B6200F910895CF93DF931F92CDB7DEB7B8
:101780006983DC01ED91FC910280F381E02D41E061
:1017900050E0BE016F5F7F4F19950F90DF91CF91A1
:1017A0000895EF92FF920F931F93CF93DF93CDB7DE
:1017B000DEB72D970FB6F894DEBF0FBECDBF7C010C
:1017C00000E010E0602FCE010196FFDECE01019611
:1017D0000EDF811114C0F7014481558120E061E0E2
:1017E000802F55D4802FA3D4F70184819581F801EF
:1017F000EE0FFF1FE254FC4E9183808305C00F5F04
:101800001F4F04301105F1F62D960FB6F894DEBF88
:101810000FBECDBFDF91CF911F910F91FF90EF9041
:101820000895FC01138212828EEF92E091838083EF
:10183000758364830895BF92CF92DF92EF92FF92F7
:101840000F931F93CF93DF93CDB7DEB72D970FB6CE
:10185000F894DEBF0FBECDBF8C014EEBC42E43E12A
:10186000D42EB12CE12CF12C6B2DCE010196ADDEE6
:10187000D6012D913D916D01F80184819581281744
:10188000390799F4CE010196B2DE843159F0CE01C8
:101890000196ADDE8C3149F4CE010196E0DD892B55
:1018A00099F003C0EE24E394F12CB394F4E0BF125A
:1018B000DBCFEF2869F4D801ED91FC910480F5812C
:1018C000E02DC801199504C0CE010196EFDEEDCFE1
:1018D0002D960FB6F894DEBF0FBECDBFDF91CF912E
:1018E0001F910F91FF90EF90DF90CF90BF900895E0
:1018F0007F928F929F92AF92BF92CF92DF92EF92A0
:10190000FF920F931F93CF93DF93CDB7DEB72D9741
:101910000FB6F894DEBF0FBECDBF6C015B014A016C
:101920008ADF5EEBE52E53E1F52E712C00E010E02E
:10193000672DCE01019649DEF701219131917F019A
:10194000F601848195812817390729F4CE01019683
:101950004EDE8731C9F07394F4E07F12E9CFC801FD
:101960002D960FB6F894DEBF0FBECDBFDF91CF919D
:101970001F910F91FF90EF90DF90CF90BF90AF90AD
:101980009F908F907F900895A401B501CE0101969C
:101990004DDD080F191FDFCFBF92CF92DF92EF927C
:1019A000FF920F931F93CF93DF93CDB7DEB72D97A1
:1019B0000FB6F894DEBF0FBECDBF8C016B01CB011B
:1019C0003ADF6EEBE62E63E1F62EB12C6B2DCE01E5
:1019D0000196FBDDF701219131917F01F6018481B0
:1019E00095812817390741F5CE01019600DE873130
:1019F00011F08C3109F5CE01019631DD892BE1F032
:101A00008B819C81F801938382838D819E81AF813C
:101A1000B88584839583A683B78349855A856B856A
:101A20007C8540875187628773878AED92E0918336
:101A300080838D85848707C0B394F4E0BF12C6CF3E
:101A400064E0C801C2DDC8012D960FB6F894DEBF70
:101A50000FBECDBFDF91CF911F910F91FF90EF90FF
:101A6000DF90CF90BF9008950F9300E020E040E01A
:101A700060E082ED93E10E94B6200F910895DC01B1
:101A8000ED91FC91008CF18DE02D199421E533E06E
:101A9000FC0131832083FB0140895189628973896C
:101AA000FC0142835383648375830895FC01848918
:101AB00095890895FC01818D928D0895CF93DF93D0
:101AC0001F92CDB7DEB76983DC01ED91FC910280F6
:101AD000F381E02D41E050E0BE016F5F7F4F19952B
:101AE0000F90DF91CF9108950895CF93DF93EC018C
:101AF000888D843059F0A4D2E88DF0E0EE0FFF1FFE
:101B0000E254FC4E1182108284E0888FDF91CF91E5
:101B10000895FC01178A168A6E5F7F4F808D34C549
:101B2000FC01808D75C5CF93DF93EC019A018E89FE
:101B30009F89AB01BC01888DE3D42E893F89280F92
:101B4000391F3F8B2E8BDF91CF9108950F931F93F9
:101B5000CF93DF931F92CDB7DEB78C01FC01818D4F
:101B6000928D892B51F041E050E0BE016F5F7F4FB5
:101B7000808D12D4181619061CF08FEF9FEF08C045
:101B8000F801818D928D0197928F818F898190E0EC
:101B90000F90DF91CF911F910F910895CF93DF9315
:101BA000EC01898D9A8D009719F48FEF9FEF0FC08C
:101BB0004817590708F0AC01888DEED3181619069E
:101BC000A4F7298D3A8D281B390B3A8F298FDF9185
:101BD000CF910895CF93DF931F92CDB7DEB7FC016D
:101BE000218D328D232B41F0BE016F5F7F4F808DA1
:101BF00058D4898190E002C08FEF9FEF0F90DF9162
:101C0000CF910895FF920F931F93CF93DF93EC0131
:101C10008B01888D8430D1F4F12C8F2DEED1811180
:101C200002C0F88E06C08831E1F3F39484E0F81224
:101C3000F4CF888D843051F01D870C871A8E198E51
:101C400020E0A80162E023D281E001C080E0DF91C2
:101C5000CF911F910F91FF9008950F931F93CF93F2
:101C6000DF93CDB7DEB728970FB6F894DEBF0FBE6F
:101C7000CDBF8C01F801818D928D892B49F0D8015F
:101C8000ED91FC910680F781E02DC8011995F2CF06
:101C9000808DDED3181619063CF548E050E0BE01F1
:101CA0006F5F7F4FD80158968C9176D3181619061E
:101CB000ECF4BE016F5F7F4FC8010E960E94C220F8
:101CC0008D8190E0982F88272E81820F911DF80139
:101CD000958B848B8F8190E0982F88272885820FA1
:101CE000911D928F818F02C080E090E028960FB600
:101CF000F894DEBF0FBECDBFDF91CF911F910F9142
:101D000008958F929F92AF92BF92CF92DF92EF92FF
:101D1000FF920F931F93CF93DF9300D000D0CDB7E6
:101D2000DEB78C017B014A01FC01808D843009F013
:101D30005DC073E0A72E74E0B72EC12CD12CC50175
:101D400069D5811103C0F801C08E0AC08831D9F36A
:101D5000FFEFCF1ADF0AB394E4E0CE16D10479F78F
:101D6000F801808D843009F441C096E0EDE0F2E0A6
:101D7000DE01119601900D929A95E1F7F70193819A
:101D80009F779C8394819D8395819E83B7016E5F2D
:101D90007F4F90E0982F882744E050E0845F9B4F6E
:101DA00010D5F801808D90E00496F82EEE24692D70
:101DB000C701409684D4682DC701419680D4F801AC
:101DC000808D90E0982F882746E050E0BE016F5F3D
:101DD0007F4F8A5F9B4FF5D4F801128E118E20E859
:101DE000A40162E0808D53D181E001C080E026969D
:101DF0000FB6F894DEBF0FBECDBFDF91CF911F911C
:101E00000F91FF90EF90DF90CF90BF90AF909F9099
:101E10008F900895CF93DF93EC011B821A8248EED6
:101E200053E060E070E04C835D836E837F8388E0E5
:101E300093E099838883CE010E960E94AC2084E0C3
:101E4000888FDF91CF910895CF92DF92EF92FF922A
:101E50000F931F93CF93DF93CDB7DEB7AF970FB636
:101E6000F894DEBF0FBECDBF7C018B016A01CE01AD
:101E700001960E94AC20CE010996CCDFCE018A9655
:101E80000E94AC2066EB73E1CE01849679DABE0144
:101E90006C5D7F4FCE0101960E946D05AE01465DDF
:101EA0005F4FB801CE01019652D881309105C1F43F
:101EB000D701ED91FC910088F189E02D81E593E057
:101EC0009DA38CA30CA51DA52EA53FA50EA31FA306
:101ED00028A739A7A601BE016C5D7F4FC7011995E0
:101EE000AF960FB6F894DEBF0FBECDBFDF91CF9196
:101EF0001F910F91FF90EF90DF90CF9008950F9377
:101F000000E020E040E060E088ED93E10E94B62030
:101F10000F910895CF92DF92EF92FF920F9330E0EE
:101F2000C12CF2E1DF2EFAE7EF2EF12C4C155D0506
:101F30006E057F0540F4F694E794D794C7943F5F0D
:101F40003630A1F737E041E04327211102C050E7C6
:101F500001C050E5242F30E03595279523700C7093
:101F6000202B252BFC012083417041830F91FF9092
:101F7000EF90DF90CF90089590E0982F882744E06D
:101F800050E0845F9B4F1DC4282F30E02C5F3F4FF3
:101F9000922F8827860F971F3DC462E070E0F4CF30
:101FA000FB01282F30E02C5F3F4F922F8827642FB2
:101FB0008E0F9F1F84C3CF93DF93C82FD62F472F39
:101FC00064E070E0EDDF4D2F65E070E08C2FDF9175
:101FD000CF91E6CF462F62E070E0E2CFCF93DF9360
:101FE000C82FD62F472F60E170E0DADF4D2F61E177
:101FF00070E08C2FDF91CF91D3CF0F931F93CF93AE
:10200000DF9300D0CDB7DEB7182F00E021E040E02D
:1020100059E06DE370E0CE0101967CDF89819A8101
:1020200021D863E070E0812FAFDF8B8335D88B81BF
:102030000F900F900F90DF91CF911F910F91089506
:102040000F931F93CF93DF931F921F92CDB7DEB7ED
:10205000182F00E021E040E059E06DE370E0CE0190
:10206000019658DF89819A810E94320840E150E050
:10207000612F80EE93E177D56FEF812FABDF0CD826
:102080000F900F90DF91CF911F910F910895CF92F4
:10209000DF92EF92FF920F931F93CF93DF931F92E4
:1020A0001F92CDB7DEB7182FD62E7A01C22E8FEF32
:1020B000860F853080F5812FC3DF00E021E040E00E
:1020C00059E06DE370E0CE01019624DF89819A81A9
:1020D0000E9432084D2D4C2960E070E0812F60DFB6
:1020E000E114F10411F0B7010AC06091DE137091A0
:1020F000DF136F5F7F4F7093DF136093DE13812FC9
:102100005ADF41E050E0612F80EE93E12CD50E9430
:102110004C0881E001C080E00F900F90DF91CF91DB
:102120001F910F91FF90EF90DF90CF9008950F9344
:102130001F93CF93DF931F921F92CDB7DEB7182F57
:1021400000E021E040E059E06DE370E0CE0101964F
:10215000E1DE89819A810E94320863E070E0812F7C
:1021600013DF833121F00E944C0880E009C042E077
:1021700050E0612F80EE93E1F6D40E944C0881E09C
:102180000F900F90DF91CF911F910F910895CF92F3
:10219000DF92EF92FF920F931F93CF93DF931F92E3
:1021A0001F92CDB7DEB7182F7B016A01FB0180813A
:1021B0008F3F51F481818F3F99F482818F3F81F469
:1021C00083818F3F69F42CC081110AC0FB0181819A
:1021D000811106C08281811103C08381882301F1AE
:1021E000C114D104E9F000E021E040E059E06DE3E2
:1021F00070E0CE0101968EDE89819A810E943208BC
:10220000B701812FB9DEB601812FE8DE44E050E04E
:10221000612F80EE93E1A7D40E944C0881E001C0B9
:1022200080E00F900F90DF91CF911F910F91FF9061
:10223000EF90DF90CF9008950F931F93CF93DF938C
:102240001F921F92CDB7DEB7182F00E021E040E0CB
:1022500059E06DE370E0CE0101965CDE89819A81E0
:102260000E94320848E050E0612F80EE93E17BD479
:102270000E944C080F900F90DF91CF911F910F910A
:102280000895BF92CF92DF92EF92FF920F931F9328
:10229000CF93DF9300D0CDB7DEB7B82E6B017A01B4
:1022A000413088E0580718F0E12C98E0F92E00E062
:1022B00021E040E059E06DE370E0CE0101962ADEB6
:1022C00089819A810E9432086B2D80EE93E1D2D2EF
:1022D0008C0163E070E08B2D57DE8B830E944C08ED
:1022E0008B81873111F08C3131F40E94D11D0E1594
:1022F0001F05E8F202C0E12CF12C00E021E040E0F3
:1023000059E06DE370E0CE01019604DE89819A8187
:102310000E9432089701A6016B2D80EE93E15DD3F8
:1023200040E250E06B2D80EE93E11DD48B2D35DE25
:1023300084FD1FC063E070E08B2D26DE811107C095
:102340000E944C088B2D7CDE80E090E018C00E943B
:102350004C080E94D11D00E021E040E059E06DE30F
:1023600070E0CE010196D6DD89819A810E94320803
:10237000DDCF60E18B2D2EDE0E944C08C7010F904F
:102380000F900F90DF91CF911F910F91FF90EF90E1
:10239000DF90CF90BF900895AF92BF92CF92DF921F
:1023A000EF92FF920F931F93CF93DF931F921F9291
:1023B000CDB7DEB7182F5B016A0100E021E040E0F5
:1023C00059E06DE370E0CE010196A4DD89819A8128
:1023D0000E943208612F80EE93E17CD27C0100974D
:1023E00099F463E070E0812FCFDD843109F1882317
:1023F000F9F021E030E08C3111F420E030E0EE24FF
:10240000FF24E21AF30A14C0C816D9060CF47601A8
:102410001E141F046CF400E09701A501612F80EEEB
:1024200093E156D340E450E0612F80EE93E19BD3DB
:102430000E944C08C7010F900F90DF91CF911F9120
:102440000F91FF90EF90DF90CF90BF90AF900895E5
:102450000F931F93CF93DF9300D01F92CDB7DEB7BA
:10246000182F00E021E040E059E06DE370E0CE017C
:10247000019650DD89819A810E943208612F80EE99
:1024800093E128D28B839C830E944C088B819C8192
:102490000F900F900F900F90DF91CF911F910F91A0
:1024A0000895EF92FF920F931F93CF93DF931F92A4
:1024B0001F92CDB7DEB7182F7B0100E021E040E08E
:1024C00059E06DE370E0CE01019624DD89819A81A7
:1024D0000E94320801E021E030E0A701612F80EE88
:1024E00093E1F6D20E944C0881E090E00F900F90AB
:1024F000DF91CF911F910F91FF90EF900895089574
:102500009F92AF92BF92CF92DF92EF92FF920F9382
:102510001F93CF93DF931F921F92CDB7DEB7982EF4
:102520006B015A01790100E021E040E059E06DE3E0
:1025300070E0CE010196EEDC89819A810E9432081A
:10254000692D80EE93E196D18E159F0528F4692DB3
:1025500080EE93E18FD17C0187019501A601692D61
:1025600080EE93E1D1D10E944C08C7010F900F90EB
:10257000DF91CF911F910F91FF90EF90DF90CF905F
:10258000BF90AF909F900895CF92DF92EF92FF920D
:102590000F931F93CF93DF931F921F92CDB7DEB798
:1025A000182F7B016A01FB018081811109C08181A3
:1025B000811106C08281811103C083818823D9F0F3
:1025C000C114D104C1F000E021E040E059E06DE326
:1025D00070E0CE0101969EDC89819A810E943208CA
:1025E000B701812FC9DCB601812FF8DC0E944C08AD
:1025F00081E090E002C080E090E00F900F90DF91CA
:10260000CF911F910F91FF90EF90DF90CF900895A1
:102610000F931F93CF93DF931F921F92CDB7DEB717
:10262000182F00E021E040E059E06DE370E0CE01BA
:10263000019670DC89819A810E94320840E250E064
:10264000612F80EE93E18FD2812FA7DC84FD1EC025
:10265000812FA3DC83FF08C068E1812FBBDC0E94CF
:102660004C0880E090E019C00E944C080E94D11DE7
:1026700000E021E040E059E06DE370E0CE0101961A
:1026800049DC89819A810E943208DECF60E1812F86
:10269000A1DC0E944C0881E090E00F900F90DF9148
:1026A000CF911F910F9108958EBD00000DB407FECC
:1026B000FDCF8EB508952C9808952C9A08951F93F8
:1026C000CF93DF931F921F92CDB7DEB7182F6A8387
:1026D0009983F1DF80EFE8DF9981892FE5DF812F92
:1026E000E3DF6A81862FE0DFE8DF81E00F900F9063
:1026F000DF91CF911F910895CF93DF93EC016CE2AE
:1027000071E080E090E00E944B1E0E942C05249A0C
:102710008091A713882399F09FB7F8948091A7130D
:10272000813059F48DB38093A5132DB38091A613F6
:10273000809582238DBB9FBF02C09093A51380E537
:102740008CBD1DBC60E880E090E0B9DF65E58BE101
:1027500090E0B5DF65E58AE190E0B1DF8091A713F5
:10276000882361F09FB7F8942091A7138091A51357
:10277000213019F48DBB9FBF01C08FBF80E090E472
:102780009983888380E090E69987888780E098E441
:102790009B838A8380E098E69B878A8780E090E528
:1027A0009D838C8380E090E79D878C8780E098E50F
:1027B0009F838E8380E098E79F878E87DF91CF91FC
:1027C0000895CF92DF92EF92FF920F931F93CF93D2
:1027D000DF93EC017A018B016C01C40ED51ECC1580
:1027E000DD0571F068DF80EF5FDF8D2F5DDF8C2FFF
:1027F0005BDF2196F80181918F0156DF5EDFEFCF1D
:10280000C701DF91CF911F910F91FF90EF90DF9063
:10281000CF9008951F93CF93DF931F92CDB7DEB76C
:10282000182F998348DF8FE03FDF9981892F3CDFA4
:10283000812F3ADF80E038DF89833FDF89810F9085
:10284000DF91CF911F9108951F93CF93DF93182F9E
:1028500060E270E099DBC82FD0E061E270E0812F88
:1028600093DBDC2FCC279E01282BC901DF91CF9170
:102870001F910895FF920F931F93CF93DF93F62E2E
:10288000C0E0D0E08F2DE0DF8C01009719F08F2D94
:10289000DBDFEC01C017D107A9F7CE01DF91CF91A3
:1028A0001F910F91FF9008951F93CF93DF93182FDF
:1028B00066E270E069DBC82FD0E067E270E0812F4C
:1028C00063DBDC2FCC279E01282BC901DF91CF9140
:1028D0001F910895FF920F931F93CF93DF93F62ECE
:1028E000C0E0D0E08F2DE0DF8C01009719F08F2D34
:1028F000DBDFEC01C017D107A9F7CE01DF91CF9143
:102900001F910F91FF9008956F927F929F92AF92C7
:10291000BF92CF92DF92EF92FF920F931F93CF93CC
:10292000DF931F92CDB7DEB7D82E962E3A0159010C
:1029300064E270E0892D998327DBE82EF12C65E2B3
:1029400070E0892D21DBFE2CEE24E82AE60CF71C32
:10295000970137706D2C9981792E690C711C690C67
:10296000711CD301ED91FC91E20FF31FC901800F9F
:10297000911F8130984098F0C12C48E0D42EC21AA3
:10298000D30AA601B501CF011CDFA8014C195D09CE
:10299000B5016C0D7D1DF3018081918103C0A801FB
:1029A000B501CF010EDFE00EF11E4F2D64E270E0A5
:1029B000892DF6DA4E2D65E270E0892D0F90DF91BA
:1029C000CF911F910F91FF90EF90DF90CF90BF902C
:1029D000AF909F907F906F90E3CA0F931F938901F0
:1029E0009A0140E050E090DF1F910F910895CF923F
:1029F000DF92EF92FF920F931F93CF93DF93EC013F
:102A00007A018B016C01C40ED51ECC15DD0579F061
:102A100052DE8FE049DE8D2F47DE8C2F45DE21967A
:102A200080E042DEF80181938F0147DEEECFC701DF
:102A3000DF91CF911F910F91FF90EF90DF90CF909A
:102A40000895AF92BF92CF92DF92EF92FF920F93D1
:102A50001F93CF93DF931F921F92CDB7DEB75A8398
:102A600049835901E981FA81F7707C01E60EF11C76
:102A7000E60EF11CD70118968D919C9119978E0F37
:102A80009F1F98012E0F3F1F2130384090F0C12C1E
:102A900068E0D62ECE1ADF0AA601B501A8DFA8018C
:102AA0004C195D09B5016C0D7D1DF701808591857F
:102AB00002C0A801B5010F900F90DF91CF911F9137
:102AC0000F91FF90EF90DF90CF90BF90AF908FCF9E
:102AD0008F929F92AF92BF92CF92DF92EF92FF922E
:102AE0000F931F93CF93DF936C01962E5A017901B8
:102AF000802E68E270E0892D47DAC82FD0E069E2C5
:102B000070E0892D41DADC2FCC27C82B8701950195
:102B1000AE01692DC60195DF811018C0CE0DDF1DF5
:102B20004D2F68E270E0892D3BDA4C2F69E270E0AE
:102B3000892DDF91CF911F910F91FF90EF90DF9042
:102B4000CF90BF90AF909F908F902ACADF91CF9186
:102B50001F910F91FF90EF90DF90CF90BF90AF90BB
:102B60009F908F900895CF93C62F61E070E08C2FD7
:102B700017DA61E070E08C2F07DA8111FACFCF917C
:102B8000089561E0FC0184810E945C1F0E942C0575
:102B90008CB5837F8CBD8CB580628CBD8CB58C7FF1
:102BA00081608CBD8DB581608DBD0895CF93DF931D
:102BB000EC0160E08C810E94951F62E070E080E093
:102BC00090E00E944B1E61E08C81DF91CF910C94CC
:102BD000951F80E069CDFC018EE293E091838083B4
:102BE000158273836283448308951F93CF93DF9389
:102BF000EC0160E08C810E94951F82E055DDE9DFE9
:102C0000182F61E08C810E94951F812F8170DF91C8
:102C1000CF911F910895BF92CF92DF92EF92FF92D2
:102C20000F931F93CF93DF938C01D62EB72EC42E14
:102C30007901C0E0D0E0C801D8DF811110C061E0A7
:102C400070E080E090E00E944B1E2196E114F104B8
:102C500091F3EC16FD0678F78EEF9FEF4CC060E025
:102C6000F80184810E94951F61E070E080E090E0AF
:102C70000E944B1E83E018DDACDF811110C0A9DF7C
:102C800081110DC0A6DF8F3F51F4A3DFF82EA1DF25
:102C90008F0D29F4F801C5819CDF853D49F0CDEF0A
:102CA000DFEF61E0F80184810E94951FCE0123C00F
:102CB00090DF91E09C0F9813F2CFFA94FA94CF141E
:102CC00028F487DF86DFCCEFDFEFEBCF86EDE82E51
:102CD000EC0ECD2CCD2DDB2D8C2F8C198F1520F4E7
:102CE00078DF8993E80EF8CF74DF8E0DC1F671DFBF
:102CF000CF2DD0E0D6CFDF91CF911F910F91FF90D4
:102D0000EF90DF90CF90BF9008958F929F92AF92F7
:102D1000BF92CF92DF92EF92FF920F931F93CF93C8
:102D2000DF937C01162FD72EB42EA22E932E60E0B7
:102D3000FC0184810E94951F62E070E080E090E0D9
:102D4000AAD781E0B1DC80E0AFDC80E0ADDC8FEFC2
:102D5000ABDCC1E0C00FCB0D8C2FA6DC8C2F819596
:102D6000A3DC84EDA1DC812EC12FDD2D14ED8C2F91
:102D700088198B1538F46E01899196DCF6018081F3
:102D8000180FF5CFBA2CCA2DD92D8C2F8B1980177F
:102D900038F46E01899188DCF6018081180FF5CF37
:102DA000812F819581DC80E07FDC61E0F701848107
:102DB000DF91CF911F910F91FF90EF90DF90CF9017
:102DC000BF90AF909F908F900C94951FAF92BF9241
:102DD000CF92DF92EF92FF920F931F93CF93DF93E7
:102DE000CDB7DEB72C970FB6F894DEBF0FBECDBFC0
:102DF0007C0186E0E3E1F2E0DE01179601900D929E
:102E00008A95E1F760E0F70184810E94951F61E0F7
:102E100070E080E090E03FD783E046DC8E010F5FFA
:102E20001F4F6E01F7E0CF0ED11CB02EA12ED1DEC8
:102E3000F80181938F01EC15FD05C9F761E0F701F9
:102E400084810E94951F46E050E0B8018B2D9A2D99
:102E50000E94A6262C960FB6F894DEBF0FBECDBFFB
:102E6000DF91CF911F910F91FF90EF90DF90CF9066
:102E7000BF90AF9008950F931F93CF93DF93EC0112
:102E8000FB0180818D83CE0140DF1AE0CE01ADDEF3
:102E9000811109C061E070E080E090E0FCD6115043
:102EA000A9F78EEF08C0CE0191DF91E0811101C03A
:102EB00090E0892F8195DF91CF911F910F91089517
:102EC000815B9F4FFC01718360830895CF93DF93F3
:102ED000EC01C15BDF4F88819981DC01ED91FC91B0
:102EE0000190F081E02D199588819981DC01ED91A7
:102EF000FC910280F381E02DDF91CF911994EF9244
:102F0000FF920F93CF93DF93FC0194E1978781E0C9
:102F1000808B918B828B7F018FE4E80EF11CD701AF
:102F20008D919C91EF012F96DC01ED91FC91048035
:102F3000F581E02D00E020E030E044E0BE0119958D
:102F4000811112C0F70180819181DC01ED91FC912A
:102F50000680F781E02D28EE33E040E4BE011995AC
:102F600021E0181619060CF020E0822FDF91CF9196
:102F70000F91FF90EF900895CF92DF92EF92FF9222
:102F80000F93CF93DF93EC0169017C018FE4E80E8E
:102F9000F11CD7018D919C91DC01ED91FC91048095
:102FA000F581E02D00E020E030E0199587FD15C0A7
:102FB000F70180819181DC01ED91FC91BE01615F9F
:102FC0007F4F0680F781E02D960140E41995181691
:102FD00034F08E3F31F480E005C08FEF03C081E014
:102FE00001C08EEFDF91CF910F91FF90EF90DF90B6
:102FF000CF900895EF92FF920F931F93CF93DF939B
:10300000EB01142F26E82883815B9F4F7C01DC01B4
:103010008D919C91DC01ED91FC910480F581E02D76
:1030200000E020E030E041E01995811126C0F70171
:1030300080819181DC01ED91FC910680F781E02D8A
:1030400028EB3BE0412FBE01199518161906CCF468
:103050009C01215031098881811111C040E0842FE9
:1030600090E08217930738F4FE01E80FF91F818181
:1030700080834F5FF4CFC90104C08FEF01C08BEF95
:103080009FEFDF91CF911F910F91FF90EF900895E7
:10309000EF92FF920F93CF93DF93EC014034E0F077
:1030A000232B09F057C0DC011F966A177B0709F430
:1030B00051C08EE88F87FE01E15BFF4F80819181D7
:1030C000FC0120813181F901E480F580042F9B010E
:1030D00041E0BD01F70124C05FEF540F5F3F79F07D
:1030E000852F992787FD9095FB01E80FF91FE08157
:1030F000DE01A80FB91F5096EC935150EFCF8EE828
:103100008F87FE01E15BFF4F80819181DC01ED91B2
:10311000FC914F5F0480F581E02DBE01615F7F4F20
:103120001995811117C0FE01E15BFF4F80819181EC
:10313000DC01ED91FC910680F781E02D28EB3BE06E
:1031400040E4BE01615F7F4F199597FD03C081E0A8
:103150009F85911180E0DF91CF910F91FF90EF90CB
:103160000895EF92FF920F93CF93DF93FC0182E5D6
:103170008787608B7F018FE4E80EF11CD7018D916A
:103180009C91EF012F96DC01ED91FC910480F5817B
:10319000E02D00E020E030E042E0BE011995811111
:1031A00013C0F70180819181DC01ED91FC910680D3
:1031B000F781E02D28EE33E040E4BE01DF91CF91AE
:1031C0000F91FF90EF90199480E090E0DF91CF9104
:1031D0000F91FF90EF900895CF93DF93EC0176DE8F
:1031E000CE01DF91CF918BCE4F37510554F4FC01C6
:1031F000EF5AFF4F5083319640838D5A9F4F0C9466
:10320000B32608958F529F4FFC0171836083089508
:103210000F93FA01D90162307105B9F044F46115D8
:10322000710569F061307105D9F48AE614C0633024
:10323000710569F06430710599F482E60CC080E98B
:10324000808311820E5F0C930BC08AE601C085E675
:10325000808381E802C0808382E8818382E08C934E
:103260000F9108952F923F924F925F926F927F92AB
:103270008F929F92AF92BF92CF92DF92EF92FF9286
:103280000F931F93CF93DF93CDB7DEB7C35CD10904
:103290000FB6F894DEBF0FBECDBF7C018B014AE0B4
:1032A00050E089EF93E10E94C62186E2E9E1F2E075
:1032B000DE01AF57BF4F01900D928A95E1F7F701FC
:1032C000EF52FF4F0190F081E02D309751F0808157
:1032D0009181A281CB57DF4F88839983AA83C558F8
:1032E000D040980146E2BE016F577F4FC70144DED0
:1032F000813009F05CC166E373E089EF93E1D7D7D1
:103300008FE0EFE3F2E0DE01A955BF4F01900D928F
:103310008A95E1F7570184EDA80EB11CD5018C9177
:10332000811106C08FEFCB54DF4F8883C55BD0403F
:103330004701B3ED8B0E911CF4011082C12CD12CEE
:10334000C7018F5A9F4FC054DF4F99838883C05C59
:10335000D040D701AE5ABF4FCE53DF4FB983A883B9
:10336000C25CD0402701B5ED4B0E511C3701E3E59F
:103370006E0E711C19E040E8BE016F5F7F4FC70100
:1033800039DE97FF05C060E0C701EBDE81E010C1C8
:103390008B812C810D81682F70E0762F6627620F5C
:1033A000711D9A81903B09F459C0963D09F49CC067
:1033B000943A09F0E3C0882319F0843061F1E9C040
:1033C0002C3041F000E09E0121543F4FAE014F5F91
:1033D0005F4F73C0023009F04DC08E81813E09F00D
:1033E00049C08F818350823008F044C000E09E01C4
:1033F00021543F4FAE014F5F5F4F60E070E0C70167
:1034000007DF8F81833031F1843009F0C2C092E050
:10341000C92ED12CBEC0EEE4F2E0DE01AA54BF4FAB
:10342000812F01900D928A95E1F749E050E0BE01AD
:103430006C5F7F4FCE018A549F4F0E94A62600E00A
:103440009E0121543F4FAE014F5F5F4F892B09F022
:103450009CC033C0CC24C394D12C9BC0F1E0CF16C8
:10346000D10491F082E0C816D10451F1C114D10405
:1034700009F08FC000E09E0121543F4FAE014F5F25
:103480005F4F61E070E083C061387105E0F4202E89
:10349000312CA7EAB0E0AC0FBD1F6A0F7B1FA10162
:1034A000CE0101960E94B32641E050E04C0F5D1F13
:1034B000420D531D9E0121543F4F60E070E067C0F4
:1034C0006138710550F000E09E0121543F4FAE017C
:1034D0004F5F5F4F64E070E05AC0202E312C6F5A6E
:1034E0007F4F6E0D7F1DDBCFF5018081882309F4AE
:1034F00045C06138710550F000E09E0121543F4FF6
:10350000AE014F5F5F4F63E070E041C0CB018F5A67
:103510009F4F402F50E0BE016A5F7F4F8E0D9F1D71
:103520000E94B32600E09E0121543F4FAE014F5F41
:103530005F4F60E070E0C7016BDEE1E0D401EC9327
:10354000C054DF4FA881B981C05CD0406C9170E05D
:10355000762F6627CE53DF4FE881F981C25CD040D9
:103560008081680F711D6115710599F0D201ED918F
:10357000FC91309771F0C30119950BC000E09E01DA
:1035800021543F4FAE014F5F5F4F62E070E0C701D3
:103590003FDE00E020E030E0C154DF4F4881CF5BE8
:1035A000D040BE016F5F7F4FC70172DDE4CE80E087
:1035B000CD53DF4F0FB6F894DEBF0FBECDBFDF9106
:1035C000CF911F910F91FF90EF90DF90CF90BF9020
:1035D000AF909F908F907F906F905F904F903F90B3
:1035E0002F900895EF92FF920F931F93CF93DF9345
:1035F0008C01EC017C0184E3E80EF11CCE0177D153
:103600002D96CE15DF05D1F7F80115AA14AADF9182
:10361000CF911F910F91FF90EF9008950F931F93FB
:10362000CF93DF938C01009749F0EC01E496C0172B
:10363000D10721F02D97CE0169D1F9CFDF91CF913C
:103640001F910F910895AF92BF92CF92DF92EF92A8
:10365000FF920F931F93CF93DF93CDB7DEB72D97D4
:103660000FB6F894DEBF0FBECDBF8C016B0186177D
:103670009707C9F17C01A12CB12CF80184A995A967
:10368000A816B90690F4CE01019631D1BE016F5F44
:103690007F4FC7015BD1CE01019638D18FEFA81AB9
:1036A000B80AEDE0EE0EF11CE8CFF60184A995A969
:1036B000F80195AB84ABE12CF12CA12CB12CF801D5
:1036C00084A995A9A816B90670F4B6016E0D7F1DE0
:1036D000C8018E0D9F1D3AD1FFEFAF1ABF0A8DE0D2
:1036E000E80EF11CECCFC8012D960FB6F894DEBFA2
:1036F0000FBECDBFDF91CF911F910F91FF90EF9043
:10370000DF90CF90BF90AF900895CF92DF92EF926D
:10371000FF920F931F93CF93DF936C017C0100E026
:1037200010E0C0E0D0E0F60184A995A908171907B8
:1037300050F4C70171D1C80FD91F0F5F1F4F8DE023
:10374000E80EF11CF0CFCE01DF91CF911F910F91C8
:10375000FF90EF90DF90CF900895CF92DF92EF929D
:10376000FF920F931F93CF93DF936C017B018C012A
:10377000C0E0D0E0F60184A995A9C817D907A8F43C
:10378000219621E0C817D90709F020E041E0C130B7
:10379000D10509F040E0B701C8016FD1C8013CD1A3
:1037A000E80EF91E035F1F4FE5CFDF91CF911F9108
:1037B0000F91FF90EF90DF90CF900895CF93DF931C
:1037C000EC012CA93DA92430310580F44DE0429F45
:1037D000C001439F900D11248C0F9D1FB7D08CA961
:1037E0009DA901969DAB8CAB81E006C068E071E0BD
:1037F00089EF93E14CD580E0DF91CF910895AF92AE
:10380000BF92CF92DF92EF92FF920F931F93CF93CD
:10381000DF93CDB7DEB72D970FB6F894DEBF0FBE9E
:10382000CDBF5C017B01CDB6DEB68DE090E01FD749
:103830008C015DD061E0C8016FD185E58D8741E0E5
:1038400050E0BE01635F7F4FC80169D164E473E05B
:10385000CE01019669D6B701CE010196C1D6BC0151
:10386000CE0107968BD6CE010196F7D54B855C85A8
:103870004F5F5F4F8DB79EB7841B950B0FB6F894C3
:103880009EBF0FBE8DBFEDB7FEB731967F0120E022
:1038900030E0BF01CE010796B4D6F70110824B8508
:1038A0005C85B701C8015CD1B801C50187DF01158E
:1038B000110521F0C8012AD0C801DAD6CE01079639
:1038C000CCD50FB6F894DEBE0FBECDBE2D960FB68A
:1038D000F894DEBF0FBECDBFDF91CF911F910F9146
:1038E000FF90EF90DF90CF90BF90AF900895FC01D4
:1038F000108212821182148213821682158210861F
:10390000178212861186148613860895CF93DF934B
:10391000EC0189819A81892B21F08F8198850E9401
:1039200033258B819C81892B21F089859A850E9482
:1039300033258D819E81892B31F08B859C85DF918C
:10394000CF910C943325DF91CF910895EF92FF92A0
:103950000F931F93CF93DF93EC018B01861797078B
:1039600009F452C089819A81892B21F08F81988531
:103970000E9433258B819C81892B21F089859A8532
:103980000E9433258D819E81892B21F08B859C851A
:103990000E943325F80180818883E180F280FA82D9
:1039A000E982838194819C838B83858196819E8328
:1039B0008D83E114F10451F0C701BDD798878F833F
:1039C000F80167817085A7010E94B326EB80FC8017
:1039D000E114F10451F0C701AED79A878987F80145
:1039E00061857285A7010E94B326ED80FE80E114F7
:1039F000F10451F0C7019FD79C878B87F80163853D
:103A00007485A7010E94B326CE01DF91CF911F914B
:103A10000F91FF90EF900895FC01438154814F3F37
:103A2000510521F01CF026E030E002C023E030E038
:103A3000658176816115710511F02F5F3F4F81819E
:103A40009281860F971F840F951F820F931F0895F1
:103A5000FC0120816111206830E0411120648381E4
:103A600094818F3F910509F00CF420618581968146
:103A7000892B09F02860822F0895EF92FF920F930F
:103A80001F93CF93DF93EC018B01642F422FE0DF74
:103A9000F8018083898181838B819C818F3F91058F
:103AA00009F024F482830D5F1F4F09C0F8011282D0
:103AB00013828C8184838B8185830A5F1F4F8D8164
:103AC0009E81009719F0F80181938F016F817885AD
:103AD00049815A81C8010E94B326E980FA80E00E2C
:103AE000F11E4D815E814115510549F06B857C8544
:103AF000C7010E94B3268D819E81E80EF91E69855B
:103B00007A854B815C81C701DF91CF911F910F9125
:103B1000FF90EF900C94B326FC0160830895EF9220
:103B2000FF920F931F93CF93DF93EC017B018A01E8
:103B300089819A81892B19F08F81988594D7C80142
:103B4000FAD698878F83A801B7010E94B3261A83FB
:103B50000983DF91CF911F910F91FF90EF9008950E
:103B6000EF92FF920F931F93CF93DF93EC017B01B2
:103B70008A018B819C81892B19F089859A8573D75D
:103B8000C801D9D69A878987A801B7010E94B326B0
:103B90001C830B83DF91CF911F910F91FF90EF90CA
:103BA000089508951F920F920FB60F9211242F932C
:103BB0003F938F939F93AF93BF938091F113909115
:103BC000F213A091F313B091F4133091F01323E0AA
:103BD000230F2D3720F40196A11DB11D05C026E845
:103BE000230F0296A11DB11D2093F0138093F113B2
:103BF0009093F213A093F313B093F4138091F51301
:103C00009091F613A091F713B091F8130196A11DAE
:103C1000B11D8093F5139093F613A093F713B0930F
:103C2000F813BF91AF919F918F913F912F910F907A
:103C30000FBE0F901F9018952FB7F8946091F11355
:103C40007091F2138091F3139091F4132FBF0895A4
:103C50003FB7F8948091F5139091F613A091F71364
:103C6000B091F81326B5A89B05C02F3F19F0019617
:103C7000A11DB11D3FBF6627782F892F9A2F620F94
:103C8000711D811D911D42E0660F771F881F991FCE
:103C90004A95D1F708958F929F92AF92BF92CF929B
:103CA000DF92EF92FF926B017C01D2DF4B015C014E
:103CB000C114D104E104F104E1F073DFC9DF681934
:103CC00079098A099B09683E73408105910580F353
:103CD00021E0C21AD108E108F10888EE880E83E0DD
:103CE000981EA11CB11CC114D104E104F10431F7E8
:103CF000DFCFFF90EF90DF90CF90BF90AF909F907D
:103D00008F900895789484B5826084BD84B5816075
:103D100084BD85B5826085BD85B5816085BDEEE6D3
:103D2000F0E0808181608083E1E8F0E010828081B2
:103D300082608083808181608083E0E8F0E0808120
:103D400081608083E1EBF0E0808184608083E0EB40
:103D5000F0E0808181608083E1E9F0E08081826031
:103D60008083808181608083E0E9F0E080818160F0
:103D70008083E1EAF0E080818260808380818160DD
:103D80008083E0EAF0E0808181608083E1E2F1E01D
:103D9000808182608083808181608083E0E2F1E0C5
:103DA000808181608083EAE7F0E0808184608083A5
:103DB000808182608083808181608083808180684F
:103DC00080831092C1000895863308F086532091B5
:103DD0007B00982F9870277F922B90937B008770A1
:103DE00020910C0290E4299F90011124822B809352
:103DF0007C0080917A00806480937A0080917A00C0
:103E000086FDFCCF809178002091790090E0922B84
:103E1000089590E0FC013197E231F10508F04BC0C4
:103E2000EE58FF4F6AC5809180008F7703C0809164
:103E300080008F7D80938000089580918000877F2F
:103E4000F9CF84B58F7702C084B58F7D84BD089586
:103E50008091B0008F7703C08091B0008F7D8093F8
:103E6000B0000895809190008F7707C080919000F6
:103E70008F7D03C080919000877F8093900008958C
:103E80008091A0008F7707C08091A0008F7D03C034
:103E90008091A000877F8093A000089580912001E9
:103EA0008F7707C0809120018F7D03C08091200112
:103EB000877F809320010895CF93DF9390E0FC01EA
:103EC000EC57FE4F2491FC01E653FE4F849188236A
:103ED00049F190E0880F991FFC01E65DFD4FA59127
:103EE000B491805F9D4FFC01C591D4919FB7611142
:103EF00008C0F8948C91209582238C93888182232A
:103F00000AC0623051F4F8948C91322F309583239B
:103F10008C938881822B888304C0F8948C91822BA7
:103F20008C939FBFDF91CF9108950F931F93CF93F1
:103F3000DF931F92CDB7DEB7282F30E0F901E25CA6
:103F4000FE4F8491F901EC57FE4F1491F901E653AD
:103F5000FE4F04910023C1F0882319F0698359DFD3
:103F60006981E02FF0E0EE0FFF1FE05FFD4FA591AC
:103F7000B4919FB7F8948C91611103C0109581237F
:103F800001C0812B8C939FBF0F90DF91CF911F9128
:103F90000F9108951F920F920FB60F9211240BB636
:103FA0000F922F938F939F93EF93FF93E0910914B8
:103FB000F0910A148081E0910F14F091101482FDA9
:103FC00012C09081809112148F5F8F73209113140F
:103FD000821751F0E0911214F0E0E750FC4E958FFB
:103FE0008093121401C08081FF91EF919F918F9176
:103FF0002F910F900BBE0F900FBE0F901F90189532
:104000001F920F920FB60F9211240BB60F922F939F
:104010003F934F935F936F937F938F939F93AF9350
:10402000BF93EF93FF9389EF93E18CD3FF91EF91CF
:10403000BF91AF919F918F917F916F915F914F91C0
:104040003F912F910F900BBE0F900FBE0F901F90BE
:10405000189589EF93E10DD321E0892B09F420E035
:10406000822F08951092FC131092FB1388EE93E0B8
:10407000A0E0B0E08093FD139093FE13A093FF1394
:10408000B093001488E693E09093FA138093F913A9
:1040900085EC90E0909306148093051484EC90E0F6
:1040A000909308148093071480EC90E090930A1486
:1040B0008093091481EC90E090930C1480930B147E
:1040C00082EC90E090930E1480930D1486EC90E0B7
:1040D0009093101480930F141092121410921314D2
:1040E00010921414109215140895AF92BF92CF92AB
:1040F000DF92EF92FF920F931F93CF93DF936C01A8
:104100007B01C0E0D0E000E010E0F601EC0FFD1F05
:104110004AE050E06281C70133D15C016EE2C70121
:10412000ACD08A0D9B1D080F191F2196C330D105F5
:1041300061F74AE050E0F6016581C70121D1800FA7
:10414000911FDF91CF911F910F91FF90EF90DF9022
:10415000CF90BF90AF90089521E533E0FC0131830B
:104160002083128213821482158208950F93FC011A
:1041700081E593E091838083628343832483058375
:104180000F910895FB014081518162817381FC018F
:104190004283538364837583089581E593E090930C
:1041A0009714809396141092981410929914109268
:1041B0009A1410929B140895CF92DF92EF92FF927F
:1041C0000F931F93CF93DF937C016A01EB0100E013
:1041D00010E00C151D0571F06991D701ED91FC916E
:1041E0000190F081E02DC7011995892B19F00F5F1F
:1041F0001F4FEFCFC801DF91CF911F910F91FF901B
:10420000EF90DF90CF9008956115710581F0DB018B
:104210000D900020E9F7AD0141505109461B570BA5
:10422000DC01ED91FC910280F381E02D199480E096
:1042300090E00895EF92FF920F931F93CF93DF9337
:104240008C017B01C0E0D0E0F701EC0FFD1F649111
:10425000662359F0F801A081B181ED91FC91C8016C
:104260001995892B11F02196EFCFCE01DF91CF91D7
:104270001F910F91FF90EF900895DC01ED91FC915B
:104280000190F081E02D199463E573E0BDCF0F93A9
:104290001F93CF93DF93EC01CDDF8C01CE01F4DFD0
:1042A000800F911FDF91CF911F910F9108950F9370
:1042B0001F93CF93DF93EC01A7DF8C01CE01E4DFE6
:1042C000800F911FDF91CF911F910F9108958F92D1
:1042D0009F92AF92BF92DF92EF92FF920F931F9344
:1042E000CF93DF93CDB7DEB7A1970FB6F894DEBFBB
:1042F0000FBECDBF7C01F42FD52ECB0119A22230E9
:1043000008F42AE08E010F5D1F4F822E912CA12C04
:10431000B12C6F2F7D2DA5019401CDD2F22FD32E7C
:10432000CA01015011096A3014F4E0E301C0E7E367
:10433000E60FD801EC93232B242B252B51F7B80142
:10434000C70162DFA1960FB6F894DEBF0FBECDBFE6
:10435000DF91CF911F910F91FF90EF90DF90BF9071
:10436000AF909F908F9008952115310541F4DC01A5
:10437000ED91FC910190F081E02D642F1994A7CF6D
:104380009A01462F50E060E070E0EECF0F931F934C
:10439000CF93DF93EC019A01AB0160E070E0E4DFC2
:1043A0008C01CE0171DF800F911FDF91CF911F91A2
:1043B0000F9108950F931F93CF93DF93EC013CDC93
:1043C000688779878A879B87E881F9810680F781EA
:1043D000E02DCE01199597FF14C02EDC08851985B4
:1043E0002A853B85601B710B820B930B0C811D8111
:1043F0002E813F81601771078207930728F38FEFA3
:104400009FEFDF91CF911F910F910895CF92DF928F
:10441000EF92FF920F931F93CF93DF937C016A017A
:10442000EB0100E010E00C151D0541F0C701C2DFF3
:1044300097FD04C089930F5F1F4FF5CFC801DF912F
:10444000CF911F910F91FF90EF90DF90CF90089543
:1044500070E09B01382BC9010895FC018081918196
:1044600002C3CF93DF93EC0188819981009709F013
:10447000FAD2198218821D821C821B821A82DF9155
:10448000CF9108950F931F93CF93DF93EC018B018E
:104490006F5F7F4F8881998175D3009731F0998341
:1044A00088831B830A8381E001C080E0DF91CF9184
:1044B0001F910F910895CF93DF93EC01888199812B
:1044C000892B29F08A819B818617970758F4CE01A2
:1044D000D9DF882341F08C819D81892B19F4E881F3
:1044E000F981108281E0DF91CF910895EF92FF92E0
:1044F0000F931F93CF93DF93EC017B018A01BA01E5
:10450000DADF811103C0CE01ACDF06C01D830C834E
:10451000B7018881998130D4CE01DF91CF911F916D
:104520000F91FF90EF900895FC0111821082138289
:104530001282158214826115710551F0FB01019000
:104540000020E9F7AF0141505109461B570BCECF70
:104550000895CF93DF93EC01FB018617970751F085
:10456000608171816115710521F044815581BEDF43
:1045700001C077DFCE01DF91CF910895FC01118258
:1045800010821382128215821482E3CFEF92FF927F
:104590000F931F93CF93DF93EC017B010C811D815F
:1045A0006115710511F480E014C04115510581F0C9
:1045B000040F151FB8017FDF8823A9F328813981F3
:1045C0008C819D81B701820F931FD6D31D830C83ED
:1045D00081E0DF91CF911F910F91FF90EF900895AF
:1045E000CF93DF93EC01FB014481558160817181A0
:1045F000CDDF811102C0CE0134DFCE01DF91CF913A
:1046000008950F931F93CF93DF93EB01411551054D
:10461000E1F02097D1F0FC016481758126173707FE
:1046200098F4621B730B8A0101501109601771071E
:1046300008F48B01FC0160817181620F731FA80176
:10464000CE01A1D3C00FD11F1882DF91CF911F914E
:104650000F910895089556DBFDDF0E945403C6E6CE
:10466000D3E20E941E052097E1F330D0FACF63C158
:10467000FAC1FC01818D228D90E0805C9F4F821BEE
:1046800091098F7399270895FC01918D828D981758
:1046900031F0828DE80FF11D858D90E008958FEF48
:1046A0009FEF0895FC01918D828D981761F0828DA6
:1046B000DF01A80FB11D5D968C91928D9F5F9F7356
:1046C000928F90E008958FEF9FEF089589E290E236
:1046D000892B39F080E090E0892B19F0BADC811148
:1046E00025C080E090E0892B41F080E090E0892BAC
:1046F00021F00E94000081111CC080E090E0892B15
:1047000041F080E090E0892B21F00E9400008111AF
:1047100013C080E090E0892BA1F080E090E0892B2D
:1047200081F00E94000081110AC008950E940000DB
:10473000D8CF0E940000E1CF0E940000EACF0C9485
:1047400000000895FC01848DDF01A80FB11DA35A5C
:10475000BF4F2C91848D90E001968F739927848FA1
:10476000A689B7892C93A089B1898C9180648C9398
:10477000938D848D981306C00288F389E02D808183
:104780008F7D80830895CF93DF93EC01888D8823FC
:10479000C1F0EA89FB89808185FD05C0A889B989B6
:1047A0008C9186FD0EC00FB607FCF5CF808185FF8A
:1047B000F2CFA889B9898C9185FFEDCFCE01C2DFF8
:1047C000E8CFDF91CF910895CF92DF92FF920F93C0
:1047D0001F93CF93DF931F92CDB7DEB76C0181E0BB
:1047E000D60158968C9358975B969C915B975C96F4
:1047F0008C915C97981307C05096ED91FC9151975E
:10480000808185FD2DC0F601038D10E00F5F1F4FE5
:104810000F731127F02EF601848DF81210C00FB619
:1048200007FCF9CFD6015096ED91FC91519780810C
:1048300085FFF1CFC601698385DF6981ECCF838D68
:10484000E80FF11DE35AFF4F6083D6015B960C938E
:104850005B975296ED91FC915397808180620CC0DA
:10486000D6015696ED91FC91579760835096ED9145
:10487000FC91519780818064808381E090E00F906B
:10488000DF91CF911F910F91FF90DF90CF9008950E
:1048900097FB072E16F4009406D077FD08D037D08A
:1048A00007FC05D03EF4909581959F4F0895709533
:1048B00061957F4F0895A1E21A2EAA1BBB1BFD0133
:1048C0000DC0AA1FBB1FEE1FFF1FA217B307E407EF
:1048D000F50720F0A21BB30BE40BF50B661F771F47
:1048E000881F991F1A9469F7609570958095909527
:1048F0009B01AC01BD01CF010895EE0FFF1F059094
:10490000F491E02D19940790F691E02D1994AA1BCB
:10491000BB1B51E107C0AA1FBB1FA617B70710F0AA
:10492000A61BB70B881F991F5A95A9F780959095DC
:10493000BC01CD010895CF93DF938230910510F42F
:1049400082E090E0E0919E14F0919F1420E030E02E
:10495000A0E0B0E0309739F1408151814817590704
:10496000B8F04817590771F482819381109729F0A4
:1049700013969C938E9312972CC090939F148093C0
:104980009E1427C02115310531F04217530718F046
:10499000A901DB0101C0EF019A01BD01DF01028025
:1049A000F381E02DD7CF21153105F9F0281B390B04
:1049B0002430310580F48A819B816115710521F0D5
:1049C000FB019383828304C090939F1480939E1471
:1049D000FE01329644C0FE01E20FF31F81939193D2
:1049E00022503109398328833AC020919C14309198
:1049F0009D14232B41F42091020230910302309345
:104A00009D1420939C1420910002309101022115E5
:104A1000310541F42DB73EB7409104025091050293
:104A2000241B350BE0919C14F0919D14E217F307C1
:104A3000A0F42E1B3F0B2817390778F0AC014E5F0E
:104A40005F4F2417350748F04E0F5F1F50939D149A
:104A500040939C148193919302C0E0E0F0E0CF0179
:104A6000DF91CF910895CF93DF93009709F487C02A
:104A7000FC01329713821282C0919E14D0919F1430
:104A8000209781F420813181280F391F80919C1457
:104A900090919D148217930779F5F0939D14E093FC
:104AA0009C146DC0DE0120E030E0AE17BF0750F46B
:104AB00012964D915C9113979D014115510509F195
:104AC000DA01F3CFB383A28340815181840F951F14
:104AD0008A179B0771F48D919C911197840F951FF4
:104AE00002969183808312968D919C911397938364
:104AF00082832115310529F4F0939F14E0939E14CD
:104B00003EC0D9011396FC93EE9312974D915D919F
:104B1000A40FB51FEA17FB0779F480819181840FF8
:104B2000951F0296D90111969C938E938281938151
:104B300013969C938E931297E0E0F0E08A819B811C
:104B4000009719F0FE01EC01F9CFCE010296288101
:104B50003981820F931F20919C1430919D14281746
:104B6000390769F4309729F410929F1410929E141B
:104B700002C013821282D0939D14C0939C14DF91C3
:104B8000CF9108956F927F928F929F92AF92BF9232
:104B9000CF92DF92EF92FF920F931F93CF93DF9309
:104BA000EC01CB01209779F4DF91CF911F910F9108
:104BB000FF90EF90DF90CF90BF90AF909F908F903D
:104BC0007F906F90B8CEFE01E60FF71F9E01225036
:104BD0003109E217F30708F4A8C0D9010D911C911F
:104BE000119706171707B0F00530110508F49BC0A0
:104BF000A801445051094617570708F494C00250C1
:104C00001109061B170B019311936D937C93CF0130
:104C10002ADF89C05B01A01AB10A4E01800E911EE5
:104C2000A0919E14B0919F14612C712C60E070E0F3
:104C3000109709F449C0A815B905C9F5ED90FC9085
:104C40001197670142E0C40ED11CCA14DB0478F14D
:104C500047018A189B08640142E0C40ED11C1296D9
:104C6000BC9012971396AC91B5E0CB16D10440F0EE
:104C7000B282A38391828082D9018D939C9309C0D3
:104C80000E5F1F4F0E0D1F1DF90111830083EB2DC9
:104C9000FA2F6115710531F0DB011396FC93EE9349
:104CA000129741C0F0939F14E0939E143CC06D9105
:104CB0007C9111976616770608F43B01BD011296A8
:104CC0000D90BC91A02DB4CF60919C1470919D1457
:104CD00068157905E9F468167906D0F44091000268
:104CE000509101024115510541F44DB75EB76091F5
:104CF000040270910502461B570BE417F507A8F450
:104D0000F0939D14E0939C14F901918380830BC070
:104D100012DE7C01009749F0A801BE0124D0CE012B
:104D2000A2DEC70104C0CE0102C080E090E0DF91A6
:104D3000CF911F910F91FF90EF90DF90CF90BF9098
:104D4000AF909F908F907F906F900895FB01DC0152
:104D500004C08D910190801921F441505040C8F752
:104D6000881B990B0895FB01DC0102C001900D9294
:104D700041505040D8F70895FB01DC0101900D929D
:104D80000020E1F70895FB01DC014150504048F05C
:104D900001900D920020C9F701C01D924150504072
:084DA000E0F70895F894FFCF3D
:104DA8000000A01480000100000000C00101005EA6
:104DB8000000000000FF00FF008C05040000000058
:104DC8002001FEA2A3A4A5A6A7C0C1C2C3C4C5C68C
:104DD800C7FFFFAA9988776655443322110000005F
:104DE8000F20005400FF0406E104008000000007C3
:104DF800D2760000850101535441525445445F4E18
:104E080046435F454D554C4154494F4E006E6465CD
:104E18006642756620697320746F6F20736D616CCC
:104E28006C0074696D6564206F7574003156494271
:104E3800524154494F4E5F454E4400305649425204
:104E48004154494F4E5F454E4400314C4947485400
:104E58005F454E4400304C494748545F454E440036
:104E680031415544494F5F454E440030415544490E
:104E78004F5F454E440000000000ED09160A2F0A56
:104E8800370A530A750AFE0A790A500A560B8D0B1F
:104E9800030ADE09E1090B0AE30900000000BB0B65
:104EA800780CD10B000000005E0D930D5A0DA60D75
:104EB800EA0D740D020E750D890D240F900D2D0E3F
:104EC800CE0D3F0D460D560D810E00000000C11598
:104ED800D6153B170B16496E20456D756C617465C8
:104EE800322E35005800656E00732C20000000003B
:104EF8000075200D0A006E616E00696E66006F769F
:104F080066002E0000000000E423DC203923522331
:044F18004423C32348
:00000001FF
